{
  "_format": "hh-sol-artifact-1",
  "contractName": "TTT",
  "sourceName": "contracts/TTT.sol",
  "abi": [
    {
      "inputs": [],
      "stateMutability": "nonpayable",
      "type": "constructor"
    },
    {
      "inputs": [
        {
          "internalType": "address",
          "name": "sender",
          "type": "address"
        },
        {
          "internalType": "uint256",
          "name": "balance",
          "type": "uint256"
        },
        {
          "internalType": "uint256",
          "name": "needed",
          "type": "uint256"
        },
        {
          "internalType": "uint256",
          "name": "tokenId",
          "type": "uint256"
        }
      ],
      "name": "ERC1155InsufficientBalance",
      "type": "error"
    },
    {
      "inputs": [
        {
          "internalType": "address",
          "name": "approver",
          "type": "address"
        }
      ],
      "name": "ERC1155InvalidApprover",
      "type": "error"
    },
    {
      "inputs": [
        {
          "internalType": "uint256",
          "name": "idsLength",
          "type": "uint256"
        },
        {
          "internalType": "uint256",
          "name": "valuesLength",
          "type": "uint256"
        }
      ],
      "name": "ERC1155InvalidArrayLength",
      "type": "error"
    },
    {
      "inputs": [
        {
          "internalType": "address",
          "name": "operator",
          "type": "address"
        }
      ],
      "name": "ERC1155InvalidOperator",
      "type": "error"
    },
    {
      "inputs": [
        {
          "internalType": "address",
          "name": "receiver",
          "type": "address"
        }
      ],
      "name": "ERC1155InvalidReceiver",
      "type": "error"
    },
    {
      "inputs": [
        {
          "internalType": "address",
          "name": "sender",
          "type": "address"
        }
      ],
      "name": "ERC1155InvalidSender",
      "type": "error"
    },
    {
      "inputs": [
        {
          "internalType": "address",
          "name": "operator",
          "type": "address"
        },
        {
          "internalType": "address",
          "name": "owner",
          "type": "address"
        }
      ],
      "name": "ERC1155MissingApprovalForAll",
      "type": "error"
    },
    {
      "inputs": [],
      "name": "EnforcedPause",
      "type": "error"
    },
    {
      "inputs": [],
      "name": "ExpectedPause",
      "type": "error"
    },
    {
      "inputs": [
        {
          "internalType": "address",
          "name": "owner",
          "type": "address"
        }
      ],
      "name": "OwnableInvalidOwner",
      "type": "error"
    },
    {
      "inputs": [
        {
          "internalType": "address",
          "name": "account",
          "type": "address"
        }
      ],
      "name": "OwnableUnauthorizedAccount",
      "type": "error"
    },
    {
      "inputs": [],
      "name": "ReentrancyGuardReentrantCall",
      "type": "error"
    },
    {
      "anonymous": false,
      "inputs": [
        {
          "indexed": true,
          "internalType": "address",
          "name": "account",
          "type": "address"
        },
        {
          "indexed": true,
          "internalType": "address",
          "name": "operator",
          "type": "address"
        },
        {
          "indexed": false,
          "internalType": "bool",
          "name": "approved",
          "type": "bool"
        }
      ],
      "name": "ApprovalForAll",
      "type": "event"
    },
    {
      "anonymous": false,
      "inputs": [
        {
          "indexed": true,
          "internalType": "address",
          "name": "previousOwner",
          "type": "address"
        },
        {
          "indexed": true,
          "internalType": "address",
          "name": "newOwner",
          "type": "address"
        }
      ],
      "name": "OwnershipTransferred",
      "type": "event"
    },
    {
      "anonymous": false,
      "inputs": [
        {
          "indexed": false,
          "internalType": "address",
          "name": "account",
          "type": "address"
        }
      ],
      "name": "Paused",
      "type": "event"
    },
    {
      "anonymous": false,
      "inputs": [
        {
          "indexed": true,
          "internalType": "address",
          "name": "from",
          "type": "address"
        },
        {
          "indexed": true,
          "internalType": "uint256",
          "name": "tokenId",
          "type": "uint256"
        },
        {
          "indexed": false,
          "internalType": "uint256",
          "name": "amount",
          "type": "uint256"
        },
        {
          "indexed": false,
          "internalType": "uint256",
          "name": "tier",
          "type": "uint256"
        }
      ],
      "name": "TTTBurned",
      "type": "event"
    },
    {
      "anonymous": false,
      "inputs": [
        {
          "indexed": true,
          "internalType": "address",
          "name": "to",
          "type": "address"
        },
        {
          "indexed": true,
          "internalType": "uint256",
          "name": "tokenId",
          "type": "uint256"
        },
        {
          "indexed": false,
          "internalType": "uint256",
          "name": "amount",
          "type": "uint256"
        }
      ],
      "name": "TTTMinted",
      "type": "event"
    },
    {
      "anonymous": false,
      "inputs": [
        {
          "indexed": true,
          "internalType": "address",
          "name": "operator",
          "type": "address"
        },
        {
          "indexed": true,
          "internalType": "address",
          "name": "from",
          "type": "address"
        },
        {
          "indexed": true,
          "internalType": "address",
          "name": "to",
          "type": "address"
        },
        {
          "indexed": false,
          "internalType": "uint256[]",
          "name": "ids",
          "type": "uint256[]"
        },
        {
          "indexed": false,
          "internalType": "uint256[]",
          "name": "values",
          "type": "uint256[]"
        }
      ],
      "name": "TransferBatch",
      "type": "event"
    },
    {
      "anonymous": false,
      "inputs": [
        {
          "indexed": true,
          "internalType": "address",
          "name": "operator",
          "type": "address"
        },
        {
          "indexed": true,
          "internalType": "address",
          "name": "from",
          "type": "address"
        },
        {
          "indexed": true,
          "internalType": "address",
          "name": "to",
          "type": "address"
        },
        {
          "indexed": false,
          "internalType": "uint256",
          "name": "id",
          "type": "uint256"
        },
        {
          "indexed": false,
          "internalType": "uint256",
          "name": "value",
          "type": "uint256"
        }
      ],
      "name": "TransferSingle",
      "type": "event"
    },
    {
      "anonymous": false,
      "inputs": [
        {
          "indexed": false,
          "internalType": "string",
          "name": "value",
          "type": "string"
        },
        {
          "indexed": true,
          "internalType": "uint256",
          "name": "id",
          "type": "uint256"
        }
      ],
      "name": "URI",
      "type": "event"
    },
    {
      "anonymous": false,
      "inputs": [
        {
          "indexed": false,
          "internalType": "address",
          "name": "account",
          "type": "address"
        }
      ],
      "name": "Unpaused",
      "type": "event"
    },
    {
      "inputs": [
        {
          "internalType": "address",
          "name": "account",
          "type": "address"
        },
        {
          "internalType": "uint256",
          "name": "id",
          "type": "uint256"
        }
      ],
      "name": "balanceOf",
      "outputs": [
        {
          "internalType": "uint256",
          "name": "",
          "type": "uint256"
        }
      ],
      "stateMutability": "view",
      "type": "function"
    },
    {
      "inputs": [
        {
          "internalType": "address[]",
          "name": "accounts",
          "type": "address[]"
        },
        {
          "internalType": "uint256[]",
          "name": "ids",
          "type": "uint256[]"
        }
      ],
      "name": "balanceOfBatch",
      "outputs": [
        {
          "internalType": "uint256[]",
          "name": "",
          "type": "uint256[]"
        }
      ],
      "stateMutability": "view",
      "type": "function"
    },
    {
      "inputs": [
        {
          "internalType": "uint256",
          "name": "amount",
          "type": "uint256"
        },
        {
          "internalType": "bytes32",
          "name": "grgHash",
          "type": "bytes32"
        },
        {
          "internalType": "uint256",
          "name": "tier",
          "type": "uint256"
        }
      ],
      "name": "burn",
      "outputs": [],
      "stateMutability": "nonpayable",
      "type": "function"
    },
    {
      "inputs": [
        {
          "internalType": "uint256",
          "name": "id",
          "type": "uint256"
        }
      ],
      "name": "exists",
      "outputs": [
        {
          "internalType": "bool",
          "name": "",
          "type": "bool"
        }
      ],
      "stateMutability": "view",
      "type": "function"
    },
    {
      "inputs": [
        {
          "internalType": "uint256",
          "name": "chainId",
          "type": "uint256"
        },
        {
          "internalType": "address",
          "name": "pool",
          "type": "address"
        },
        {
          "internalType": "uint256",
          "name": "timestamp",
          "type": "uint256"
        },
        {
          "internalType": "uint256",
          "name": "slotIndex",
          "type": "uint256"
        }
      ],
      "name": "getTokenId",
      "outputs": [
        {
          "internalType": "uint256",
          "name": "",
          "type": "uint256"
        }
      ],
      "stateMutability": "pure",
      "type": "function"
    },
    {
      "inputs": [
        {
          "internalType": "address",
          "name": "account",
          "type": "address"
        },
        {
          "internalType": "address",
          "name": "operator",
          "type": "address"
        }
      ],
      "name": "isApprovedForAll",
      "outputs": [
        {
          "internalType": "bool",
          "name": "",
          "type": "bool"
        }
      ],
      "stateMutability": "view",
      "type": "function"
    },
    {
      "inputs": [
        {
          "internalType": "address",
          "name": "to",
          "type": "address"
        },
        {
          "internalType": "uint256",
          "name": "amount",
          "type": "uint256"
        },
        {
          "internalType": "bytes32",
          "name": "grgHash",
          "type": "bytes32"
        }
      ],
      "name": "mint",
      "outputs": [],
      "stateMutability": "nonpayable",
      "type": "function"
    },
    {
      "inputs": [],
      "name": "owner",
      "outputs": [
        {
          "internalType": "address",
          "name": "",
          "type": "address"
        }
      ],
      "stateMutability": "view",
      "type": "function"
    },
    {
      "inputs": [],
      "name": "pause",
      "outputs": [],
      "stateMutability": "nonpayable",
      "type": "function"
    },
    {
      "inputs": [],
      "name": "paused",
      "outputs": [
        {
          "internalType": "bool",
          "name": "",
          "type": "bool"
        }
      ],
      "stateMutability": "view",
      "type": "function"
    },
    {
      "inputs": [],
      "name": "renounceOwnership",
      "outputs": [],
      "stateMutability": "nonpayable",
      "type": "function"
    },
    {
      "inputs": [
        {
          "internalType": "address",
          "name": "from",
          "type": "address"
        },
        {
          "internalType": "address",
          "name": "to",
          "type": "address"
        },
        {
          "internalType": "uint256[]",
          "name": "ids",
          "type": "uint256[]"
        },
        {
          "internalType": "uint256[]",
          "name": "values",
          "type": "uint256[]"
        },
        {
          "internalType": "bytes",
          "name": "data",
          "type": "bytes"
        }
      ],
      "name": "safeBatchTransferFrom",
      "outputs": [],
      "stateMutability": "nonpayable",
      "type": "function"
    },
    {
      "inputs": [
        {
          "internalType": "address",
          "name": "from",
          "type": "address"
        },
        {
          "internalType": "address",
          "name": "to",
          "type": "address"
        },
        {
          "internalType": "uint256",
          "name": "id",
          "type": "uint256"
        },
        {
          "internalType": "uint256",
          "name": "value",
          "type": "uint256"
        },
        {
          "internalType": "bytes",
          "name": "data",
          "type": "bytes"
        }
      ],
      "name": "safeTransferFrom",
      "outputs": [],
      "stateMutability": "nonpayable",
      "type": "function"
    },
    {
      "inputs": [
        {
          "internalType": "address",
          "name": "operator",
          "type": "address"
        },
        {
          "internalType": "bool",
          "name": "approved",
          "type": "bool"
        }
      ],
      "name": "setApprovalForAll",
      "outputs": [],
      "stateMutability": "nonpayable",
      "type": "function"
    },
    {
      "inputs": [
        {
          "internalType": "bytes4",
          "name": "interfaceId",
          "type": "bytes4"
        }
      ],
      "name": "supportsInterface",
      "outputs": [
        {
          "internalType": "bool",
          "name": "",
          "type": "bool"
        }
      ],
      "stateMutability": "view",
      "type": "function"
    },
    {
      "inputs": [],
      "name": "totalSupply",
      "outputs": [
        {
          "internalType": "uint256",
          "name": "",
          "type": "uint256"
        }
      ],
      "stateMutability": "view",
      "type": "function"
    },
    {
      "inputs": [
        {
          "internalType": "uint256",
          "name": "id",
          "type": "uint256"
        }
      ],
      "name": "totalSupply",
      "outputs": [
        {
          "internalType": "uint256",
          "name": "",
          "type": "uint256"
        }
      ],
      "stateMutability": "view",
      "type": "function"
    },
    {
      "inputs": [
        {
          "internalType": "address",
          "name": "newOwner",
          "type": "address"
        }
      ],
      "name": "transferOwnership",
      "outputs": [],
      "stateMutability": "nonpayable",
      "type": "function"
    },
    {
      "inputs": [],
      "name": "unpause",
      "outputs": [],
      "stateMutability": "nonpayable",
      "type": "function"
    },
    {
      "inputs": [
        {
          "internalType": "uint256",
          "name": "",
          "type": "uint256"
        }
      ],
      "name": "uri",
      "outputs": [
        {
          "internalType": "string",
          "name": "",
          "type": "string"
        }
      ],
      "stateMutability": "view",
      "type": "function"
    }
  ],
  "bytecode": "0x608060405234801562000010575f80fd5b503360405180606001604052806026815260200162001ae36026913962000037816200009c565b506001600160a01b0381166200006657604051631e4fbdf760e01b81525f600482015260240160405180910390fd5b6200007181620000ae565b5060017f9b779b17422d0df92223018b32b4d1fa46e071723d6817e2486d003becc55f005562000269565b6002620000aa82826200019d565b5050565b600580546001600160a01b038381166001600160a01b0319831681179093556040519116919082907f8be0079c531659141344cd1fd0a4f28419497f9722a3daafe3b4186f6b6457e0905f90a35050565b634e487b7160e01b5f52604160045260245ffd5b600181811c908216806200012857607f821691505b6020821081036200014757634e487b7160e01b5f52602260045260245ffd5b50919050565b601f8211156200019857805f5260205f20601f840160051c81016020851015620001745750805b601f840160051c820191505b8181101562000195575f815560010162000180565b50505b505050565b81516001600160401b03811115620001b957620001b9620000ff565b620001d181620001ca845462000113565b846200014d565b602080601f83116001811462000207575f8415620001ef5750858301515b5f19600386901b1c1916600185901b17855562000261565b5f85815260208120601f198616915b82811015620002375788860151825594840194600190910190840162000216565b50858210156200025557878501515f19600388901b60f8161c191681555b505060018460011b0185555b505050505050565b61186c80620002775f395ff3fe608060405234801561000f575f80fd5b5060043610610126575f3560e01c80635c975abb116100a9578063a22cb4651161006e578063a22cb465146102b1578063bd85b039146102c4578063e985e9c5146102e3578063f242432a1461031e578063f2fde38b14610331575f80fd5b80635c975abb14610261578063711856d414610273578063715018a6146102865780638456cb591461028e5780638da5cb5b14610296575f80fd5b80631e458bee116100ef5780631e458bee146101f05780632eb2c2d6146102055780633f4ba83a146102185780634e1273f4146102205780634f558e7914610240575f80fd5b8062fdd58e1461012a57806301ffc9a7146101505780630e89341c1461017357806318160ddd146101935780631c01607b1461019b575b5f80fd5b61013d6101383660046111ba565b610344565b6040519081526020015b60405180910390f35b61016361015e3660046111f7565b61036b565b6040519015158152602001610147565b610186610181366004611219565b6103ba565b6040516101479190611273565b60045461013d565b61013d6101a9366004611285565b604080516020808201969096526001600160a01b03949094168482015260608401929092526080808401919091528151808403909101815260a09092019052805191012090565b6102036101fe3660046112bd565b61044c565b005b61020361021336600461142d565b61054b565b61020361056a565b61023361022e3660046114d0565b61057c565b60405161014791906115c4565b61016361024e366004611219565b5f90815260036020526040902054151590565b600554600160a01b900460ff16610163565b6102036102813660046115d6565b610647565b6102036106ec565b6102036106fd565b6005546040516001600160a01b039091168152602001610147565b6102036102bf3660046115ff565b61070d565b61013d6102d2366004611219565b5f9081526003602052604090205490565b6101636102f1366004611638565b6001600160a01b039182165f90815260016020908152604080832093909416825291909152205460ff1690565b61020361032c366004611669565b61071c565b61020361033f3660046116c9565b610732565b5f818152602081815260408083206001600160a01b03861684529091529020545b92915050565b5f6001600160e01b03198216636cdb3d1360e11b148061039b57506001600160e01b031982166303a24d0760e21b145b8061036557506301ffc9a760e01b6001600160e01b0319831614610365565b6060600280546103c9906116e2565b80601f01602080910402602001604051908101604052809291908181526020018280546103f5906116e2565b80156104405780601f1061041757610100808354040283529160200191610440565b820191905f5260205f20905b81548152906001019060200180831161042357829003601f168201915b50505050509050919050565b61045461076f565b61045c61079c565b6104646107c7565b5f82116104b85760405162461bcd60e51b815260206004820181905260248201527f416d6f756e74206d7573742062652067726561746572207468616e207a65726f60448201526064015b60405180910390fd5b5f815f1c90506104d884828560405180602001604052805f8152506107f5565b80846001600160a01b03167f9534394585e752b909481a83c9942aed80ac648f5c43c9cf81b2b5932431a8248560405161051491815260200190565b60405180910390a35061054660017f9b779b17422d0df92223018b32b4d1fa46e071723d6817e2486d003becc55f0055565b505050565b610556335b86610859565b61056385858585856108d1565b5050505050565b61057261076f565b61057a610931565b565b606081518351146105ad5781518351604051635b05999160e01b8152600481019290925260248201526044016104af565b5f835167ffffffffffffffff8111156105c8576105c86112ed565b6040519080825280602002602001820160405280156105f1578160200160208202803683370190505b5090505f5b845181101561063f5760208082028601015161061a90602080840287010151610344565b82828151811061062c5761062c61171a565b60209081029190910101526001016105f6565b509392505050565b61064f61079c565b6106576107c7565b5f83116106a65760405162461bcd60e51b815260206004820181905260248201527f416d6f756e74206d7573742062652067726561746572207468616e207a65726f60448201526064016104af565b816106b2338286610986565b6040805185815260208101849052829133917fc93ad775892b2f394f0ebc9b4f2a5e72a8c73939de453e7daaa62b20a565bd659101610514565b6106f461076f565b61057a5f6109ed565b61070561076f565b61057a610a3e565b610718338383610a81565b5050565b61072533610550565b6105638585858585610b3e565b61073a61076f565b6001600160a01b03811661076357604051631e4fbdf760e01b81525f60048201526024016104af565b61076c816109ed565b50565b6005546001600160a01b0316331461057a5760405163118cdaa760e01b81523360048201526024016104af565b600554600160a01b900460ff161561057a5760405163d93c066560e01b815260040160405180910390fd5b6107cf610bcb565b60027f9b779b17422d0df92223018b32b4d1fa46e071723d6817e2486d003becc55f0055565b6001600160a01b03841661081e57604051632bfa23e760e11b81525f60048201526024016104af565b604080516001808252602082018690528183019081526060820185905260808201909252906108515f8784848784610c0d565b505050505050565b816001600160a01b0316816001600160a01b0316141580156108a057506001600160a01b038082165f9081526001602090815260408083209386168352929052205460ff16155b156107185760405163711bec9160e11b81526001600160a01b038084166004830152821660248201526044016104af565b6001600160a01b0384166108fa57604051632bfa23e760e11b81525f60048201526024016104af565b6001600160a01b03851661092257604051626a0d4560e21b81525f60048201526024016104af565b61056385858585856001610c0d565b610939610c65565b6005805460ff60a01b191690557f5db9ee0a495bf2e6ff9c91a7834c1ba4fdd244a5e8aa4e537bd38aeae4b073aa335b6040516001600160a01b03909116815260200160405180910390a1565b6001600160a01b0383166109ae57604051626a0d4560e21b81525f60048201526024016104af565b604080516001808252602082018590528183019081526060820184905260a082019092525f608082018181529192916105639187918590859083610c0d565b600580546001600160a01b038381166001600160a01b0319831681179093556040519116919082907f8be0079c531659141344cd1fd0a4f28419497f9722a3daafe3b4186f6b6457e0905f90a35050565b610a4661079c565b6005805460ff60a01b1916600160a01b1790557f62e78cea01bee320cd4e420270b5ea74000d11b0c9f74754ebdbfc544b05a2586109693390565b6001600160a01b038316610aaa57604051631f18c42760e11b81525f60048201526024016104af565b6001600160a01b038216610ad25760405162ced3e160e81b81525f60048201526024016104af565b6001600160a01b038381165f81815260016020908152604080832094871680845294825291829020805460ff191686151590811790915591519182527f17307eab39ab6107e8899845ad3d59bd9653f200f220920489ca2b5937696c31910160405180910390a3505050565b6001600160a01b038416610b6757604051632bfa23e760e11b81525f60048201526024016104af565b6001600160a01b038516610b8f57604051626a0d4560e21b81525f60048201526024016104af565b60408051600180825260208201869052818301908152606082018590526080820190925290610bc287878484875f610c0d565b50505050505050565b7f9b779b17422d0df92223018b32b4d1fa46e071723d6817e2486d003becc55f005460020361057a57604051633ee5aeb560e01b815260040160405180910390fd5b610c1986868686610c8f565b6001600160a01b0385161561085157338115610c4257610c3d818888888888610ca1565b610bc2565b60208581015190850151610c5a838a8a85858a610dc2565b505050505050505050565b600554600160a01b900460ff1661057a57604051638dfc202b60e01b815260040160405180910390fd5b610c9b84848484610ea9565b50505050565b6001600160a01b0384163b156108515760405163bc197c8160e01b81526001600160a01b0385169063bc197c8190610ce5908990899088908890889060040161172e565b6020604051808303815f875af1925050508015610d1f575060408051601f3d908101601f19168201909252610d1c9181019061178b565b60015b610d86573d808015610d4c576040519150601f19603f3d011682016040523d82523d5f602084013e610d51565b606091505b5080515f03610d7e57604051632bfa23e760e11b81526001600160a01b03861660048201526024016104af565b805160208201fd5b6001600160e01b0319811663bc197c8160e01b14610bc257604051632bfa23e760e11b81526001600160a01b03861660048201526024016104af565b6001600160a01b0384163b156108515760405163f23a6e6160e01b81526001600160a01b0385169063f23a6e6190610e0690899089908890889088906004016117a6565b6020604051808303815f875af1925050508015610e40575060408051601f3d908101601f19168201909252610e3d9181019061178b565b60015b610e6d573d808015610d4c576040519150601f19603f3d011682016040523d82523d5f602084013e610d51565b6001600160e01b0319811663f23a6e6160e01b14610bc257604051632bfa23e760e11b81526001600160a01b03861660048201526024016104af565b610eb584848484610f90565b6001600160a01b038416610f32575f805b8351811015610f195760208181028481018201519086018201515f908152600390925260408220805491928392610efe9084906117ea565b90915550610f0e905081846117ea565b925050600101610ec6565b508060045f828254610f2b91906117ea565b9091555050505b6001600160a01b038316610c9b575f805b8351811015610f7f5760208181028481018201519086018201515f90815260039092526040909120805482900390559190910190600101610f43565b506004805491909103905550505050565b8051825114610fbf5781518151604051635b05999160e01b8152600481019290925260248201526044016104af565b335f5b83518110156110c1576020818102858101820151908501909101516001600160a01b03881615611073575f828152602081815260408083206001600160a01b038c1684529091529020548181101561104d576040516303dee4c560e01b81526001600160a01b038a1660048201526024810182905260448101839052606481018490526084016104af565b5f838152602081815260408083206001600160a01b038d16845290915290209082900390555b6001600160a01b038716156110b7575f828152602081815260408083206001600160a01b038b168452909152812080548392906110b19084906117ea565b90915550505b5050600101610fc2565b5082516001036111415760208301515f906020840151909150856001600160a01b0316876001600160a01b0316846001600160a01b03167fc3d58168c5ae7397731d063d5bbf3d657854427343f4c083240f7aacaa2d0f628585604051611132929190918252602082015260400190565b60405180910390a45050610563565b836001600160a01b0316856001600160a01b0316826001600160a01b03167f4a39dc06d4c0dbc64b70af90fd698a233a518aa5d07e595d983b8c0526c8f7fb8686604051611190929190611809565b60405180910390a45050505050565b80356001600160a01b03811681146111b5575f80fd5b919050565b5f80604083850312156111cb575f80fd5b6111d48361119f565b946020939093013593505050565b6001600160e01b03198116811461076c575f80fd5b5f60208284031215611207575f80fd5b8135611212816111e2565b9392505050565b5f60208284031215611229575f80fd5b5035919050565b5f81518084525f5b8181101561125457602081850181015186830182015201611238565b505f602082860101526020601f19601f83011685010191505092915050565b602081525f6112126020830184611230565b5f805f8060808587031215611298575f80fd5b843593506112a86020860161119f565b93969395505050506040820135916060013590565b5f805f606084860312156112cf575f80fd5b6112d88461119f565b95602085013595506040909401359392505050565b634e487b7160e01b5f52604160045260245ffd5b604051601f8201601f1916810167ffffffffffffffff8111828210171561132a5761132a6112ed565b604052919050565b5f67ffffffffffffffff82111561134b5761134b6112ed565b5060051b60200190565b5f82601f830112611364575f80fd5b8135602061137961137483611332565b611301565b8083825260208201915060208460051b87010193508684111561139a575f80fd5b602086015b848110156113b6578035835291830191830161139f565b509695505050505050565b5f82601f8301126113d0575f80fd5b813567ffffffffffffffff8111156113ea576113ea6112ed565b6113fd601f8201601f1916602001611301565b818152846020838601011115611411575f80fd5b816020850160208301375f918101602001919091529392505050565b5f805f805f60a08688031215611441575f80fd5b61144a8661119f565b94506114586020870161119f565b9350604086013567ffffffffffffffff80821115611474575f80fd5b61148089838a01611355565b94506060880135915080821115611495575f80fd5b6114a189838a01611355565b935060808801359150808211156114b6575f80fd5b506114c3888289016113c1565b9150509295509295909350565b5f80604083850312156114e1575f80fd5b823567ffffffffffffffff808211156114f8575f80fd5b818501915085601f83011261150b575f80fd5b8135602061151b61137483611332565b82815260059290921b84018101918181019089841115611539575f80fd5b948201945b8386101561155e5761154f8661119f565b8252948201949082019061153e565b96505086013592505080821115611573575f80fd5b5061158085828601611355565b9150509250929050565b5f815180845260208085019450602084015f5b838110156115b95781518752958201959082019060010161159d565b509495945050505050565b602081525f611212602083018461158a565b5f805f606084860312156115e8575f80fd5b505081359360208301359350604090920135919050565b5f8060408385031215611610575f80fd5b6116198361119f565b91506020830135801515811461162d575f80fd5b809150509250929050565b5f8060408385031215611649575f80fd5b6116528361119f565b91506116606020840161119f565b90509250929050565b5f805f805f60a0868803121561167d575f80fd5b6116868661119f565b94506116946020870161119f565b93506040860135925060608601359150608086013567ffffffffffffffff8111156116bd575f80fd5b6114c3888289016113c1565b5f602082840312156116d9575f80fd5b6112128261119f565b600181811c908216806116f657607f821691505b60208210810361171457634e487b7160e01b5f52602260045260245ffd5b50919050565b634e487b7160e01b5f52603260045260245ffd5b6001600160a01b0386811682528516602082015260a0604082018190525f906117599083018661158a565b828103606084015261176b818661158a565b9050828103608084015261177f8185611230565b98975050505050505050565b5f6020828403121561179b575f80fd5b8151611212816111e2565b6001600160a01b03868116825285166020820152604081018490526060810183905260a0608082018190525f906117df90830184611230565b979650505050505050565b8082018082111561036557634e487b7160e01b5f52601160045260245ffd5b604081525f61181b604083018561158a565b828103602084015261182d818561158a565b9594505050505056fea26469706673582212207c095eff3d0518368a63b579a9edb460ab6717c99dbd80e8962da9b748887b6264736f6c6343000818003368747470733a2f2f6170692e68656c6d2e6e6574776f726b2f7474742f7b69647d2e6a736f6e",
  "linkReferences": {},
  "deployedLinkReferences": {}
}