{
  "_format": "hh-sol-artifact-1",
  "contractName": "BalanceDeltaLibrary",
  "sourceName": "@uniswap/v4-core/src/types/BalanceDelta.sol",
  "abi": [
    {
      "inputs": [],
      "name": "ZERO_DELTA",
      "outputs": [
        {
          "internalType": "BalanceDelta",
          "name": "",
          "type": "int256"
        }
      ],
      "stateMutability": "view",
      "type": "function"
    }
  ],
  "bytecode": "0x60846032600b8282823980515f1a607314602657634e487b7160e01b5f525f60045260245ffd5b305f52607381538281f3fe73000000000000000000000000000000000000000030146080604052600436106032575f3560e01c806391cb4669146036575b5f5ffd5b603c5f81565b60405190815260200160405180910390f3fea26469706673582212208c7fd2c415f85876fa147351093add9ae01f8e2192423c2070fbd6b66f49bbaf64736f6c634300081b0033",
  "linkReferences": {},
  "deployedLinkReferences": {}
}