{"contracts/PoolHelper.sol":{"PoolHelper":{"abi":[{"inputs":[{"internalType":"address","name":"_poolManager","type":"address"}],"stateMutability":"nonpayable","type":"constructor"},{"inputs":[],"name":"NotOwner","type":"error"},{"inputs":[],"name":"NotPoolManager","type":"error"},{"inputs":[{"components":[{"internalType":"Currency","name":"currency0","type":"address"},{"internalType":"Currency","name":"currency1","type":"address"},{"internalType":"uint24","name":"fee","type":"uint24"},{"internalType":"int24","name":"tickSpacing","type":"int24"},{"internalType":"contract IHooks","name":"hooks","type":"address"}],"internalType":"struct PoolKey","name":"key","type":"tuple"},{"internalType":"int24","name":"tickLower","type":"int24"},{"internalType":"int24","name":"tickUpper","type":"int24"},{"internalType":"int256","name":"liquidityDelta","type":"int256"}],"name":"addLiquidity","outputs":[{"internalType":"BalanceDelta","name":"delta","type":"int256"}],"stateMutability":"nonpayable","type":"function"},{"inputs":[],"name":"owner","outputs":[{"internalType":"address","name":"","type":"address"}],"stateMutability":"view","type":"function"},{"inputs":[],"name":"poolManager","outputs":[{"internalType":"contract IPoolManager","name":"","type":"address"}],"stateMutability":"view","type":"function"},{"inputs":[{"components":[{"internalType":"Currency","name":"currency0","type":"address"},{"internalType":"Currency","name":"currency1","type":"address"},{"internalType":"uint24","name":"fee","type":"uint24"},{"internalType":"int24","name":"tickSpacing","type":"int24"},{"internalType":"contract IHooks","name":"hooks","type":"address"}],"internalType":"struct PoolKey","name":"key","type":"tuple"},{"internalType":"bool","name":"zeroForOne","type":"bool"},{"internalType":"int256","name":"amountSpecified","type":"int256"}],"name":"swap","outputs":[{"internalType":"BalanceDelta","name":"delta","type":"int256"}],"stateMutability":"nonpayable","type":"function"},{"inputs":[{"internalType":"bytes","name":"data","type":"bytes"}],"name":"unlockCallback","outputs":[{"internalType":"bytes","name":"","type":"bytes"}],"stateMutability":"nonpayable","type":"function"}],"evm":{"bytecode":{"linkReferences":{},"object":"60c060405234801561000f575f5ffd5b5060405161137038038061137083398101604081905261002e91610043565b6001600160a01b03166080523360a052610070565b5f60208284031215610053575f5ffd5b81516001600160a01b0381168114610069575f5ffd5b9392505050565b60805160a05161128d6100e35f395f8181608401528181610124015261032d01525f818160e301528181610165015281816102970152818161036e0152818161050d01528181610670015281816107fa015281816108a001528181610914015281816109920152610a62015261128d5ff3fe608060405234801561000f575f5ffd5b5060043610610055575f3560e01c806341a1df46146100595780638da5cb5b1461007f57806391dd7346146100be578063dc4c90d3146100de578063e2e6fcbe14610105575b5f5ffd5b61006c610067366004610ae7565b610118565b6040519081526020015b60405180910390f35b6100a67f000000000000000000000000000000000000000000000000000000000000000081565b6040516001600160a01b039091168152602001610076565b6100d16100cc366004610b24565b61028a565b6040516100769190610bc0565b6100a67f000000000000000000000000000000000000000000000000000000000000000081565b61006c610113366004610be7565b610321565b5f336001600160a01b037f00000000000000000000000000000000000000000000000000000000000000001614610162576040516330cd747160e01b815260040160405180910390fd5b5f7f00000000000000000000000000000000000000000000000000000000000000006001600160a01b03166348c8949160016040518060800160405280898036038101906101b09190610cc7565b81526020018815158152602001878152602001336001600160a01b03168152506040516020016101e09190610d84565b60408051601f19818403018152908290526101fe9291602001610dd9565b6040516020818303038152906040526040518263ffffffff1660e01b81526004016102299190610bc0565b5f604051808303815f875af1158015610244573d5f5f3e3d5ffd5b505050506040513d5f823e601f3d908101601f1916820160405261026b9190810190610e3c565b9050808060200190518101906102819190610eb6565b95945050505050565b6060336001600160a01b037f000000000000000000000000000000000000000000000000000000000000000016146102d55760405163570c108560e11b815260040160405180910390fd5b5f806102e384860186610ecd565b90925090505f8260018111156102fb576102fb610dc5565b03610312576103098161049d565b9250505061031b565b61030981610614565b92915050565b5f336001600160a01b037f0000000000000000000000000000000000000000000000000000000000000000161461036b576040516330cd747160e01b815260040160405180910390fd5b5f7f00000000000000000000000000000000000000000000000000000000000000006001600160a01b03166348c894915f6040518060a001604052808a8036038101906103b89190610cc7565b81526020018960020b81526020018860020b8152602001878152602001336001600160a01b03168152506040516020016103f29190610f58565b60408051601f19818403018152908290526104109291602001610dd9565b6040516020818303038152906040526040518263ffffffff1660e01b815260040161043b9190610bc0565b5f604051808303815f875af1158015610456573d5f5f3e3d5ffd5b505050506040513d5f823e601f3d908101601f1916820160405261047d9190810190610e3c565b9050808060200190518101906104939190610eb6565b9695505050505050565b60605f828060200190518101906104b49190611022565b805160408051608081018252602080850151600290810b835283860151900b81830152606080860151838501525f908301819052835191820184528082529251632d35e7ed60e11b815294955091936001600160a01b037f00000000000000000000000000000000000000000000000000000000000000001693635a6bcfda93610542939192600401611088565b60408051808303815f875af115801561055d573d5f5f3e3d5ffd5b505050506040513d601f19601f8201168201806040525081019061058191906110d6565b5082515160808401519192506105a09161059b8460801d90565b6107c5565b6105ba825f015160200151836080015161059b84600f0b90565b81515160808301516105d691906105d18460801d90565b610a1a565b6105f0825f01516020015183608001516105d184600f0b90565b60408051602081018390520160405160208183030381529060405292505050919050565b60605f8280602001905181019061062b91906110f8565b90505f816020015161065b57610656600173fffd8963efd1fc6a506488495d951d5263988d26611188565b61066b565b61066b6401000276a360016111a7565b90505f7f00000000000000000000000000000000000000000000000000000000000000006001600160a01b031663f3cd914c845f0151604051806060016040528087602001511515815260200187604001518152602001866001600160a01b031681525060405180602001604052805f8152506040518463ffffffff1660e01b81526004016106fc939291906111c6565b6020604051808303815f875af1158015610718573d5f5f3e3d5ffd5b505050506040513d601f19601f8201168201806040525081019061073c9190610eb6565b83515160608501519192506107559161059b8460801d90565b61076f835f015160200151846060015161059b84600f0b90565b825151606084015161078691906105d18460801d90565b6107a0835f01516020015184606001516105d184600f0b90565b6040805160208101839052016040516020818303038152906040529350505050919050565b5f81600f0b126107d457505050565b5f6107de8261120f565b6001600160801b03169050836001600160a01b038116610881577f00000000000000000000000000000000000000000000000000000000000000006001600160a01b03166311da60b4836040518263ffffffff1660e01b815260040160206040518083038185885af1158015610856573d5f5f3e3d5ffd5b50505050506040513d601f19601f8201168201806040525081019061087b9190610eb6565b50610a13565b604051632961046560e21b81526001600160a01b0386811660048301527f0000000000000000000000000000000000000000000000000000000000000000169063a5841194906024015f604051808303815f87803b1580156108e1575f5ffd5b505af11580156108f3573d5f5f3e3d5ffd5b50506040516323b872dd60e01b81526001600160a01b0387811660048301527f00000000000000000000000000000000000000000000000000000000000000008116602483015260448201869052841692506323b872dd91506064016020604051808303815f875af115801561096b573d5f5f3e3d5ffd5b505050506040513d601f19601f8201168201806040525081019061098f919061123c565b507f00000000000000000000000000000000000000000000000000000000000000006001600160a01b03166311da60b46040518163ffffffff1660e01b81526004016020604051808303815f875af11580156109ed573d5f5f3e3d5ffd5b505050506040513d601f19601f82011682018060405250810190610a119190610eb6565b505b5050505050565b5f81600f0b13610a2957505050565b604051630b0d9c0960e01b81526001600160a01b03848116600483015283811660248301526001600160801b03831660448301819052917f000000000000000000000000000000000000000000000000000000000000000090911690630b0d9c09906064015f604051808303815f87803b158015610aa5575f5ffd5b505af1158015610ab7573d5f5f3e3d5ffd5b5050505050505050565b5f60a08284031215610ad1575f5ffd5b50919050565b8015158114610ae4575f5ffd5b50565b5f5f5f60e08486031215610af9575f5ffd5b610b038585610ac1565b925060a0840135610b1381610ad7565b9295929450505060c0919091013590565b5f5f60208385031215610b35575f5ffd5b823567ffffffffffffffff811115610b4b575f5ffd5b8301601f81018513610b5b575f5ffd5b803567ffffffffffffffff811115610b71575f5ffd5b856020828401011115610b82575f5ffd5b6020919091019590945092505050565b5f81518084528060208401602086015e5f602082860101526020601f19601f83011685010191505092915050565b602081525f610bd26020830184610b92565b9392505050565b8060020b8114610ae4575f5ffd5b5f5f5f5f6101008587031215610bfb575f5ffd5b610c058686610ac1565b935060a0850135610c1581610bd9565b925060c0850135610c2581610bd9565b9396929550929360e00135925050565b634e487b7160e01b5f52604160045260245ffd5b60405160a0810167ffffffffffffffff81118282101715610c6c57610c6c610c35565b60405290565b604051601f8201601f1916810167ffffffffffffffff81118282101715610c9b57610c9b610c35565b604052919050565b6001600160a01b0381168114610ae4575f5ffd5b62ffffff81168114610ae4575f5ffd5b5f60a0828403128015610cd8575f5ffd5b50610ce1610c49565b8235610cec81610ca3565b81526020830135610cfc81610ca3565b60208201526040830135610d0f81610cb7565b60408201526060830135610d2281610bd9565b60608201526080830135610d3581610ca3565b60808201529392505050565b80516001600160a01b03908116835260208083015182169084015260408083015162ffffff169084015260608083015160020b9084015260809182015116910152565b5f61010082019050610d97828451610d41565b6020830151151560a0830152604083015160c08301526060909201516001600160a01b031660e09091015290565b634e487b7160e01b5f52602160045260245ffd5b5f60028410610df657634e487b7160e01b5f52602160045260245ffd5b83825260406020830152610e0d6040830184610b92565b949350505050565b5f67ffffffffffffffff821115610e2e57610e2e610c35565b50601f01601f191660200190565b5f60208284031215610e4c575f5ffd5b815167ffffffffffffffff811115610e62575f5ffd5b8201601f81018413610e72575f5ffd5b8051610e85610e8082610e15565b610c72565b818152856020838501011115610e99575f5ffd5b8160208401602083015e5f91810160200191909152949350505050565b5f60208284031215610ec6575f5ffd5b5051919050565b5f5f60408385031215610ede575f5ffd5b823560028110610eec575f5ffd5b9150602083013567ffffffffffffffff811115610f07575f5ffd5b8301601f81018513610f17575f5ffd5b8035610f25610e8082610e15565b818152866020838501011115610f39575f5ffd5b816020840160208301375f602083830101528093505050509250929050565b5f61012082019050610f6b828451610d41565b6020830151600290810b60a08401526040840151900b60c0830152606083015160e08301526080909201516001600160a01b03166101009091015290565b5f60a08284031215610fb9575f5ffd5b610fc1610c49565b90508151610fce81610ca3565b81526020820151610fde81610ca3565b60208201526040820151610ff181610cb7565b6040820152606082015161100481610bd9565b6060820152608082015161101781610ca3565b608082015292915050565b5f610120828403128015611034575f5ffd5b5061103d610c49565b6110478484610fa9565b815260a083015161105781610bd9565b602082015260c083015161106a81610bd9565b604082015260e08301516060820152610100830151610d3581610ca3565b6110928185610d41565b825160020b60a0820152602083015160020b60c0820152604083015160e082015260608301516101008201526101406101208201525f610281610140830184610b92565b5f5f604083850312156110e7575f5ffd5b505080516020909101519092909150565b5f61010082840312801561110a575f5ffd5b506040516080810167ffffffffffffffff8111828210171561112e5761112e610c35565b60405261113b8484610fa9565b815260a083015161114b81610ad7565b602082015260c0830151604082015260e083015161116881610ca3565b60608201529392505050565b634e487b7160e01b5f52601160045260245ffd5b6001600160a01b03828116828216039081111561031b5761031b611174565b6001600160a01b03818116838216019081111561031b5761031b611174565b6111d08185610d41565b8251151560a0820152602083015160c082015260408301516001600160a01b031660e082015261012061010082018190525f9061028190830184610b92565b5f81600f0b6f7fffffffffffffffffffffffffffffff19810361123457611234611174565b5f0392915050565b5f6020828403121561124c575f5ffd5b8151610bd281610ad756fea26469706673582212207107b863a3c28bec0ae08978b81a24999aa4fc0aa6c19f79ac2672c5e05c17bf64736f6c634300081b0033","opcodes":"PUSH1 0xC0 PUSH1 0x40 MSTORE CALLVALUE DUP1 ISZERO PUSH2 0xF JUMPI PUSH0 PUSH0 REVERT JUMPDEST POP PUSH1 0x40 MLOAD PUSH2 0x1370 CODESIZE SUB DUP1 PUSH2 0x1370 DUP4 CODECOPY DUP2 ADD PUSH1 0x40 DUP2 SWAP1 MSTORE PUSH2 0x2E SWAP2 PUSH2 0x43 JUMP JUMPDEST PUSH1 0x1 PUSH1 0x1 PUSH1 0xA0 SHL SUB AND PUSH1 0x80 MSTORE CALLER PUSH1 0xA0 MSTORE PUSH2 0x70 JUMP JUMPDEST PUSH0 PUSH1 0x20 DUP3 DUP5 SUB SLT ISZERO PUSH2 0x53 JUMPI PUSH0 PUSH0 REVERT JUMPDEST DUP2 MLOAD PUSH1 0x1 PUSH1 0x1 PUSH1 0xA0 SHL SUB DUP2 AND DUP2 EQ PUSH2 0x69 JUMPI PUSH0 PUSH0 REVERT JUMPDEST SWAP4 SWAP3 POP POP POP JUMP JUMPDEST PUSH1 0x80 MLOAD PUSH1 0xA0 MLOAD PUSH2 0x128D PUSH2 0xE3 PUSH0 CODECOPY PUSH0 DUP2 DUP2 PUSH1 0x84 ADD MSTORE DUP2 DUP2 PUSH2 0x124 ADD MSTORE PUSH2 0x32D ADD MSTORE PUSH0 DUP2 DUP2 PUSH1 0xE3 ADD MSTORE DUP2 DUP2 PUSH2 0x165 ADD MSTORE DUP2 DUP2 PUSH2 0x297 ADD MSTORE DUP2 DUP2 PUSH2 0x36E ADD MSTORE DUP2 DUP2 PUSH2 0x50D ADD MSTORE DUP2 DUP2 PUSH2 0x670 ADD MSTORE DUP2 DUP2 PUSH2 0x7FA ADD MSTORE DUP2 DUP2 PUSH2 0x8A0 ADD MSTORE DUP2 DUP2 PUSH2 0x914 ADD MSTORE DUP2 DUP2 PUSH2 0x992 ADD MSTORE PUSH2 0xA62 ADD MSTORE PUSH2 0x128D PUSH0 RETURN INVALID PUSH1 0x80 PUSH1 0x40 MSTORE CALLVALUE DUP1 ISZERO PUSH2 0xF JUMPI PUSH0 PUSH0 REVERT JUMPDEST POP PUSH1 0x4 CALLDATASIZE LT PUSH2 0x55 JUMPI PUSH0 CALLDATALOAD PUSH1 0xE0 SHR DUP1 PUSH4 0x41A1DF46 EQ PUSH2 0x59 JUMPI DUP1 PUSH4 0x8DA5CB5B EQ PUSH2 0x7F JUMPI DUP1 PUSH4 0x91DD7346 EQ PUSH2 0xBE JUMPI DUP1 PUSH4 0xDC4C90D3 EQ PUSH2 0xDE JUMPI DUP1 PUSH4 0xE2E6FCBE EQ PUSH2 0x105 JUMPI JUMPDEST PUSH0 PUSH0 REVERT JUMPDEST PUSH2 0x6C PUSH2 0x67 CALLDATASIZE PUSH1 0x4 PUSH2 0xAE7 JUMP JUMPDEST PUSH2 0x118 JUMP JUMPDEST PUSH1 0x40 MLOAD SWAP1 DUP2 MSTORE PUSH1 0x20 ADD JUMPDEST PUSH1 0x40 MLOAD DUP1 SWAP2 SUB SWAP1 RETURN JUMPDEST PUSH2 0xA6 PUSH32 0x0 DUP2 JUMP JUMPDEST PUSH1 0x40 MLOAD PUSH1 0x1 PUSH1 0x1 PUSH1 0xA0 SHL SUB SWAP1 SWAP2 AND DUP2 MSTORE PUSH1 0x20 ADD PUSH2 0x76 JUMP JUMPDEST PUSH2 0xD1 PUSH2 0xCC CALLDATASIZE PUSH1 0x4 PUSH2 0xB24 JUMP JUMPDEST PUSH2 0x28A JUMP JUMPDEST PUSH1 0x40 MLOAD PUSH2 0x76 SWAP2 SWAP1 PUSH2 0xBC0 JUMP JUMPDEST PUSH2 0xA6 PUSH32 0x0 DUP2 JUMP JUMPDEST PUSH2 0x6C PUSH2 0x113 CALLDATASIZE PUSH1 0x4 PUSH2 0xBE7 JUMP JUMPDEST PUSH2 0x321 JUMP JUMPDEST PUSH0 CALLER PUSH1 0x1 PUSH1 0x1 PUSH1 0xA0 SHL SUB PUSH32 0x0 AND EQ PUSH2 0x162 JUMPI PUSH1 0x40 MLOAD PUSH4 0x30CD7471 PUSH1 0xE0 SHL DUP2 MSTORE PUSH1 0x4 ADD PUSH1 0x40 MLOAD DUP1 SWAP2 SUB SWAP1 REVERT JUMPDEST PUSH0 PUSH32 0x0 PUSH1 0x1 PUSH1 0x1 PUSH1 0xA0 SHL SUB AND PUSH4 0x48C89491 PUSH1 0x1 PUSH1 0x40 MLOAD DUP1 PUSH1 0x80 ADD PUSH1 0x40 MSTORE DUP1 DUP10 DUP1 CALLDATASIZE SUB DUP2 ADD SWAP1 PUSH2 0x1B0 SWAP2 SWAP1 PUSH2 0xCC7 JUMP JUMPDEST DUP2 MSTORE PUSH1 0x20 ADD DUP9 ISZERO ISZERO DUP2 MSTORE PUSH1 0x20 ADD DUP8 DUP2 MSTORE PUSH1 0x20 ADD CALLER PUSH1 0x1 PUSH1 0x1 PUSH1 0xA0 SHL SUB AND DUP2 MSTORE POP PUSH1 0x40 MLOAD PUSH1 0x20 ADD PUSH2 0x1E0 SWAP2 SWAP1 PUSH2 0xD84 JUMP JUMPDEST PUSH1 0x40 DUP1 MLOAD PUSH1 0x1F NOT DUP2 DUP5 SUB ADD DUP2 MSTORE SWAP1 DUP3 SWAP1 MSTORE PUSH2 0x1FE SWAP3 SWAP2 PUSH1 0x20 ADD PUSH2 0xDD9 JUMP JUMPDEST PUSH1 0x40 MLOAD PUSH1 0x20 DUP2 DUP4 SUB SUB DUP2 MSTORE SWAP1 PUSH1 0x40 MSTORE PUSH1 0x40 MLOAD DUP3 PUSH4 0xFFFFFFFF AND PUSH1 0xE0 SHL DUP2 MSTORE PUSH1 0x4 ADD PUSH2 0x229 SWAP2 SWAP1 PUSH2 0xBC0 JUMP JUMPDEST PUSH0 PUSH1 0x40 MLOAD DUP1 DUP4 SUB DUP2 PUSH0 DUP8 GAS CALL ISZERO DUP1 ISZERO PUSH2 0x244 JUMPI RETURNDATASIZE PUSH0 PUSH0 RETURNDATACOPY RETURNDATASIZE PUSH0 REVERT JUMPDEST POP POP POP POP PUSH1 0x40 MLOAD RETURNDATASIZE PUSH0 DUP3 RETURNDATACOPY PUSH1 0x1F RETURNDATASIZE SWAP1 DUP2 ADD PUSH1 0x1F NOT AND DUP3 ADD PUSH1 0x40 MSTORE PUSH2 0x26B SWAP2 SWAP1 DUP2 ADD SWAP1 PUSH2 0xE3C JUMP JUMPDEST SWAP1 POP DUP1 DUP1 PUSH1 0x20 ADD SWAP1 MLOAD DUP2 ADD SWAP1 PUSH2 0x281 SWAP2 SWAP1 PUSH2 0xEB6 JUMP JUMPDEST SWAP6 SWAP5 POP POP POP POP POP JUMP JUMPDEST PUSH1 0x60 CALLER PUSH1 0x1 PUSH1 0x1 PUSH1 0xA0 SHL SUB PUSH32 0x0 AND EQ PUSH2 0x2D5 JUMPI PUSH1 0x40 MLOAD PUSH4 0x570C1085 PUSH1 0xE1 SHL DUP2 MSTORE PUSH1 0x4 ADD PUSH1 0x40 MLOAD DUP1 SWAP2 SUB SWAP1 REVERT JUMPDEST PUSH0 DUP1 PUSH2 0x2E3 DUP5 DUP7 ADD DUP7 PUSH2 0xECD JUMP JUMPDEST SWAP1 SWAP3 POP SWAP1 POP PUSH0 DUP3 PUSH1 0x1 DUP2 GT ISZERO PUSH2 0x2FB JUMPI PUSH2 0x2FB PUSH2 0xDC5 JUMP JUMPDEST SUB PUSH2 0x312 JUMPI PUSH2 0x309 DUP2 PUSH2 0x49D JUMP JUMPDEST SWAP3 POP POP POP PUSH2 0x31B JUMP JUMPDEST PUSH2 0x309 DUP2 PUSH2 0x614 JUMP JUMPDEST SWAP3 SWAP2 POP POP JUMP JUMPDEST PUSH0 CALLER PUSH1 0x1 PUSH1 0x1 PUSH1 0xA0 SHL SUB PUSH32 0x0 AND EQ PUSH2 0x36B JUMPI PUSH1 0x40 MLOAD PUSH4 0x30CD7471 PUSH1 0xE0 SHL DUP2 MSTORE PUSH1 0x4 ADD PUSH1 0x40 MLOAD DUP1 SWAP2 SUB SWAP1 REVERT JUMPDEST PUSH0 PUSH32 0x0 PUSH1 0x1 PUSH1 0x1 PUSH1 0xA0 SHL SUB AND PUSH4 0x48C89491 PUSH0 PUSH1 0x40 MLOAD DUP1 PUSH1 0xA0 ADD PUSH1 0x40 MSTORE DUP1 DUP11 DUP1 CALLDATASIZE SUB DUP2 ADD SWAP1 PUSH2 0x3B8 SWAP2 SWAP1 PUSH2 0xCC7 JUMP JUMPDEST DUP2 MSTORE PUSH1 0x20 ADD DUP10 PUSH1 0x2 SIGNEXTEND DUP2 MSTORE PUSH1 0x20 ADD DUP9 PUSH1 0x2 SIGNEXTEND DUP2 MSTORE PUSH1 0x20 ADD DUP8 DUP2 MSTORE PUSH1 0x20 ADD CALLER PUSH1 0x1 PUSH1 0x1 PUSH1 0xA0 SHL SUB AND DUP2 MSTORE POP PUSH1 0x40 MLOAD PUSH1 0x20 ADD PUSH2 0x3F2 SWAP2 SWAP1 PUSH2 0xF58 JUMP JUMPDEST PUSH1 0x40 DUP1 MLOAD PUSH1 0x1F NOT DUP2 DUP5 SUB ADD DUP2 MSTORE SWAP1 DUP3 SWAP1 MSTORE PUSH2 0x410 SWAP3 SWAP2 PUSH1 0x20 ADD PUSH2 0xDD9 JUMP JUMPDEST PUSH1 0x40 MLOAD PUSH1 0x20 DUP2 DUP4 SUB SUB DUP2 MSTORE SWAP1 PUSH1 0x40 MSTORE PUSH1 0x40 MLOAD DUP3 PUSH4 0xFFFFFFFF AND PUSH1 0xE0 SHL DUP2 MSTORE PUSH1 0x4 ADD PUSH2 0x43B SWAP2 SWAP1 PUSH2 0xBC0 JUMP JUMPDEST PUSH0 PUSH1 0x40 MLOAD DUP1 DUP4 SUB DUP2 PUSH0 DUP8 GAS CALL ISZERO DUP1 ISZERO PUSH2 0x456 JUMPI RETURNDATASIZE PUSH0 PUSH0 RETURNDATACOPY RETURNDATASIZE PUSH0 REVERT JUMPDEST POP POP POP POP PUSH1 0x40 MLOAD RETURNDATASIZE PUSH0 DUP3 RETURNDATACOPY PUSH1 0x1F RETURNDATASIZE SWAP1 DUP2 ADD PUSH1 0x1F NOT AND DUP3 ADD PUSH1 0x40 MSTORE PUSH2 0x47D SWAP2 SWAP1 DUP2 ADD SWAP1 PUSH2 0xE3C JUMP JUMPDEST SWAP1 POP DUP1 DUP1 PUSH1 0x20 ADD SWAP1 MLOAD DUP2 ADD SWAP1 PUSH2 0x493 SWAP2 SWAP1 PUSH2 0xEB6 JUMP JUMPDEST SWAP7 SWAP6 POP POP POP POP POP POP JUMP JUMPDEST PUSH1 0x60 PUSH0 DUP3 DUP1 PUSH1 0x20 ADD SWAP1 MLOAD DUP2 ADD SWAP1 PUSH2 0x4B4 SWAP2 SWAP1 PUSH2 0x1022 JUMP JUMPDEST DUP1 MLOAD PUSH1 0x40 DUP1 MLOAD PUSH1 0x80 DUP2 ADD DUP3 MSTORE PUSH1 0x20 DUP1 DUP6 ADD MLOAD PUSH1 0x2 SWAP1 DUP2 SIGNEXTEND DUP4 MSTORE DUP4 DUP7 ADD MLOAD SWAP1 SIGNEXTEND DUP2 DUP4 ADD MSTORE PUSH1 0x60 DUP1 DUP7 ADD MLOAD DUP4 DUP6 ADD MSTORE PUSH0 SWAP1 DUP4 ADD DUP2 SWAP1 MSTORE DUP4 MLOAD SWAP2 DUP3 ADD DUP5 MSTORE DUP1 DUP3 MSTORE SWAP3 MLOAD PUSH4 0x2D35E7ED PUSH1 0xE1 SHL DUP2 MSTORE SWAP5 SWAP6 POP SWAP2 SWAP4 PUSH1 0x1 PUSH1 0x1 PUSH1 0xA0 SHL SUB PUSH32 0x0 AND SWAP4 PUSH4 0x5A6BCFDA SWAP4 PUSH2 0x542 SWAP4 SWAP2 SWAP3 PUSH1 0x4 ADD PUSH2 0x1088 JUMP JUMPDEST PUSH1 0x40 DUP1 MLOAD DUP1 DUP4 SUB DUP2 PUSH0 DUP8 GAS CALL ISZERO DUP1 ISZERO PUSH2 0x55D JUMPI RETURNDATASIZE PUSH0 PUSH0 RETURNDATACOPY RETURNDATASIZE PUSH0 REVERT JUMPDEST POP POP POP POP PUSH1 0x40 MLOAD RETURNDATASIZE PUSH1 0x1F NOT PUSH1 0x1F DUP3 ADD AND DUP3 ADD DUP1 PUSH1 0x40 MSTORE POP DUP2 ADD SWAP1 PUSH2 0x581 SWAP2 SWAP1 PUSH2 0x10D6 JUMP JUMPDEST POP DUP3 MLOAD MLOAD PUSH1 0x80 DUP5 ADD MLOAD SWAP2 SWAP3 POP PUSH2 0x5A0 SWAP2 PUSH2 0x59B DUP5 PUSH1 0x80 SAR SWAP1 JUMP JUMPDEST PUSH2 0x7C5 JUMP JUMPDEST PUSH2 0x5BA DUP3 PUSH0 ADD MLOAD PUSH1 0x20 ADD MLOAD DUP4 PUSH1 0x80 ADD MLOAD PUSH2 0x59B DUP5 PUSH1 0xF SIGNEXTEND SWAP1 JUMP JUMPDEST DUP2 MLOAD MLOAD PUSH1 0x80 DUP4 ADD MLOAD PUSH2 0x5D6 SWAP2 SWAP1 PUSH2 0x5D1 DUP5 PUSH1 0x80 SAR SWAP1 JUMP JUMPDEST PUSH2 0xA1A JUMP JUMPDEST PUSH2 0x5F0 DUP3 PUSH0 ADD MLOAD PUSH1 0x20 ADD MLOAD DUP4 PUSH1 0x80 ADD MLOAD PUSH2 0x5D1 DUP5 PUSH1 0xF SIGNEXTEND SWAP1 JUMP JUMPDEST PUSH1 0x40 DUP1 MLOAD PUSH1 0x20 DUP2 ADD DUP4 SWAP1 MSTORE ADD PUSH1 0x40 MLOAD PUSH1 0x20 DUP2 DUP4 SUB SUB DUP2 MSTORE SWAP1 PUSH1 0x40 MSTORE SWAP3 POP POP POP SWAP2 SWAP1 POP JUMP JUMPDEST PUSH1 0x60 PUSH0 DUP3 DUP1 PUSH1 0x20 ADD SWAP1 MLOAD DUP2 ADD SWAP1 PUSH2 0x62B SWAP2 SWAP1 PUSH2 0x10F8 JUMP JUMPDEST SWAP1 POP PUSH0 DUP2 PUSH1 0x20 ADD MLOAD PUSH2 0x65B JUMPI PUSH2 0x656 PUSH1 0x1 PUSH20 0xFFFD8963EFD1FC6A506488495D951D5263988D26 PUSH2 0x1188 JUMP JUMPDEST PUSH2 0x66B JUMP JUMPDEST PUSH2 0x66B PUSH5 0x1000276A3 PUSH1 0x1 PUSH2 0x11A7 JUMP JUMPDEST SWAP1 POP PUSH0 PUSH32 0x0 PUSH1 0x1 PUSH1 0x1 PUSH1 0xA0 SHL SUB AND PUSH4 0xF3CD914C DUP5 PUSH0 ADD MLOAD PUSH1 0x40 MLOAD DUP1 PUSH1 0x60 ADD PUSH1 0x40 MSTORE DUP1 DUP8 PUSH1 0x20 ADD MLOAD ISZERO ISZERO DUP2 MSTORE PUSH1 0x20 ADD DUP8 PUSH1 0x40 ADD MLOAD DUP2 MSTORE PUSH1 0x20 ADD DUP7 PUSH1 0x1 PUSH1 0x1 PUSH1 0xA0 SHL SUB AND DUP2 MSTORE POP PUSH1 0x40 MLOAD DUP1 PUSH1 0x20 ADD PUSH1 0x40 MSTORE DUP1 PUSH0 DUP2 MSTORE POP PUSH1 0x40 MLOAD DUP5 PUSH4 0xFFFFFFFF AND PUSH1 0xE0 SHL DUP2 MSTORE PUSH1 0x4 ADD PUSH2 0x6FC SWAP4 SWAP3 SWAP2 SWAP1 PUSH2 0x11C6 JUMP JUMPDEST PUSH1 0x20 PUSH1 0x40 MLOAD DUP1 DUP4 SUB DUP2 PUSH0 DUP8 GAS CALL ISZERO DUP1 ISZERO PUSH2 0x718 JUMPI RETURNDATASIZE PUSH0 PUSH0 RETURNDATACOPY RETURNDATASIZE PUSH0 REVERT JUMPDEST POP POP POP POP PUSH1 0x40 MLOAD RETURNDATASIZE PUSH1 0x1F NOT PUSH1 0x1F DUP3 ADD AND DUP3 ADD DUP1 PUSH1 0x40 MSTORE POP DUP2 ADD SWAP1 PUSH2 0x73C SWAP2 SWAP1 PUSH2 0xEB6 JUMP JUMPDEST DUP4 MLOAD MLOAD PUSH1 0x60 DUP6 ADD MLOAD SWAP2 SWAP3 POP PUSH2 0x755 SWAP2 PUSH2 0x59B DUP5 PUSH1 0x80 SAR SWAP1 JUMP JUMPDEST PUSH2 0x76F DUP4 PUSH0 ADD MLOAD PUSH1 0x20 ADD MLOAD DUP5 PUSH1 0x60 ADD MLOAD PUSH2 0x59B DUP5 PUSH1 0xF SIGNEXTEND SWAP1 JUMP JUMPDEST DUP3 MLOAD MLOAD PUSH1 0x60 DUP5 ADD MLOAD PUSH2 0x786 SWAP2 SWAP1 PUSH2 0x5D1 DUP5 PUSH1 0x80 SAR SWAP1 JUMP JUMPDEST PUSH2 0x7A0 DUP4 PUSH0 ADD MLOAD PUSH1 0x20 ADD MLOAD DUP5 PUSH1 0x60 ADD MLOAD PUSH2 0x5D1 DUP5 PUSH1 0xF SIGNEXTEND SWAP1 JUMP JUMPDEST PUSH1 0x40 DUP1 MLOAD PUSH1 0x20 DUP2 ADD DUP4 SWAP1 MSTORE ADD PUSH1 0x40 MLOAD PUSH1 0x20 DUP2 DUP4 SUB SUB DUP2 MSTORE SWAP1 PUSH1 0x40 MSTORE SWAP4 POP POP POP POP SWAP2 SWAP1 POP JUMP JUMPDEST PUSH0 DUP2 PUSH1 0xF SIGNEXTEND SLT PUSH2 0x7D4 JUMPI POP POP POP JUMP JUMPDEST PUSH0 PUSH2 0x7DE DUP3 PUSH2 0x120F JUMP JUMPDEST PUSH1 0x1 PUSH1 0x1 PUSH1 0x80 SHL SUB AND SWAP1 POP DUP4 PUSH1 0x1 PUSH1 0x1 PUSH1 0xA0 SHL SUB DUP2 AND PUSH2 0x881 JUMPI PUSH32 0x0 PUSH1 0x1 PUSH1 0x1 PUSH1 0xA0 SHL SUB AND PUSH4 0x11DA60B4 DUP4 PUSH1 0x40 MLOAD DUP3 PUSH4 0xFFFFFFFF AND PUSH1 0xE0 SHL DUP2 MSTORE PUSH1 0x4 ADD PUSH1 0x20 PUSH1 0x40 MLOAD DUP1 DUP4 SUB DUP2 DUP6 DUP9 GAS CALL ISZERO DUP1 ISZERO PUSH2 0x856 JUMPI RETURNDATASIZE PUSH0 PUSH0 RETURNDATACOPY RETURNDATASIZE PUSH0 REVERT JUMPDEST POP POP POP POP POP PUSH1 0x40 MLOAD RETURNDATASIZE PUSH1 0x1F NOT PUSH1 0x1F DUP3 ADD AND DUP3 ADD DUP1 PUSH1 0x40 MSTORE POP DUP2 ADD SWAP1 PUSH2 0x87B SWAP2 SWAP1 PUSH2 0xEB6 JUMP JUMPDEST POP PUSH2 0xA13 JUMP JUMPDEST PUSH1 0x40 MLOAD PUSH4 0x29610465 PUSH1 0xE2 SHL DUP2 MSTORE PUSH1 0x1 PUSH1 0x1 PUSH1 0xA0 SHL SUB DUP7 DUP2 AND PUSH1 0x4 DUP4 ADD MSTORE PUSH32 0x0 AND SWAP1 PUSH4 0xA5841194 SWAP1 PUSH1 0x24 ADD PUSH0 PUSH1 0x40 MLOAD DUP1 DUP4 SUB DUP2 PUSH0 DUP8 DUP1 EXTCODESIZE ISZERO DUP1 ISZERO PUSH2 0x8E1 JUMPI PUSH0 PUSH0 REVERT JUMPDEST POP GAS CALL ISZERO DUP1 ISZERO PUSH2 0x8F3 JUMPI RETURNDATASIZE PUSH0 PUSH0 RETURNDATACOPY RETURNDATASIZE PUSH0 REVERT JUMPDEST POP POP PUSH1 0x40 MLOAD PUSH4 0x23B872DD PUSH1 0xE0 SHL DUP2 MSTORE PUSH1 0x1 PUSH1 0x1 PUSH1 0xA0 SHL SUB DUP8 DUP2 AND PUSH1 0x4 DUP4 ADD MSTORE PUSH32 0x0 DUP2 AND PUSH1 0x24 DUP4 ADD MSTORE PUSH1 0x44 DUP3 ADD DUP7 SWAP1 MSTORE DUP5 AND SWAP3 POP PUSH4 0x23B872DD SWAP2 POP PUSH1 0x64 ADD PUSH1 0x20 PUSH1 0x40 MLOAD DUP1 DUP4 SUB DUP2 PUSH0 DUP8 GAS CALL ISZERO DUP1 ISZERO PUSH2 0x96B JUMPI RETURNDATASIZE PUSH0 PUSH0 RETURNDATACOPY RETURNDATASIZE PUSH0 REVERT JUMPDEST POP POP POP POP PUSH1 0x40 MLOAD RETURNDATASIZE PUSH1 0x1F NOT PUSH1 0x1F DUP3 ADD AND DUP3 ADD DUP1 PUSH1 0x40 MSTORE POP DUP2 ADD SWAP1 PUSH2 0x98F SWAP2 SWAP1 PUSH2 0x123C JUMP JUMPDEST POP PUSH32 0x0 PUSH1 0x1 PUSH1 0x1 PUSH1 0xA0 SHL SUB AND PUSH4 0x11DA60B4 PUSH1 0x40 MLOAD DUP2 PUSH4 0xFFFFFFFF AND PUSH1 0xE0 SHL DUP2 MSTORE PUSH1 0x4 ADD PUSH1 0x20 PUSH1 0x40 MLOAD DUP1 DUP4 SUB DUP2 PUSH0 DUP8 GAS CALL ISZERO DUP1 ISZERO PUSH2 0x9ED JUMPI RETURNDATASIZE PUSH0 PUSH0 RETURNDATACOPY RETURNDATASIZE PUSH0 REVERT JUMPDEST POP POP POP POP PUSH1 0x40 MLOAD RETURNDATASIZE PUSH1 0x1F NOT PUSH1 0x1F DUP3 ADD AND DUP3 ADD DUP1 PUSH1 0x40 MSTORE POP DUP2 ADD SWAP1 PUSH2 0xA11 SWAP2 SWAP1 PUSH2 0xEB6 JUMP JUMPDEST POP JUMPDEST POP POP POP POP POP JUMP JUMPDEST PUSH0 DUP2 PUSH1 0xF SIGNEXTEND SGT PUSH2 0xA29 JUMPI POP POP POP JUMP JUMPDEST PUSH1 0x40 MLOAD PUSH4 0xB0D9C09 PUSH1 0xE0 SHL DUP2 MSTORE PUSH1 0x1 PUSH1 0x1 PUSH1 0xA0 SHL SUB DUP5 DUP2 AND PUSH1 0x4 DUP4 ADD MSTORE DUP4 DUP2 AND PUSH1 0x24 DUP4 ADD MSTORE PUSH1 0x1 PUSH1 0x1 PUSH1 0x80 SHL SUB DUP4 AND PUSH1 0x44 DUP4 ADD DUP2 SWAP1 MSTORE SWAP2 PUSH32 0x0 SWAP1 SWAP2 AND SWAP1 PUSH4 0xB0D9C09 SWAP1 PUSH1 0x64 ADD PUSH0 PUSH1 0x40 MLOAD DUP1 DUP4 SUB DUP2 PUSH0 DUP8 DUP1 EXTCODESIZE ISZERO DUP1 ISZERO PUSH2 0xAA5 JUMPI PUSH0 PUSH0 REVERT JUMPDEST POP GAS CALL ISZERO DUP1 ISZERO PUSH2 0xAB7 JUMPI RETURNDATASIZE PUSH0 PUSH0 RETURNDATACOPY RETURNDATASIZE PUSH0 REVERT JUMPDEST POP POP POP POP POP POP POP POP JUMP JUMPDEST PUSH0 PUSH1 0xA0 DUP3 DUP5 SUB SLT ISZERO PUSH2 0xAD1 JUMPI PUSH0 PUSH0 REVERT JUMPDEST POP SWAP2 SWAP1 POP JUMP JUMPDEST DUP1 ISZERO ISZERO DUP2 EQ PUSH2 0xAE4 JUMPI PUSH0 PUSH0 REVERT JUMPDEST POP JUMP JUMPDEST PUSH0 PUSH0 PUSH0 PUSH1 0xE0 DUP5 DUP7 SUB SLT ISZERO PUSH2 0xAF9 JUMPI PUSH0 PUSH0 REVERT JUMPDEST PUSH2 0xB03 DUP6 DUP6 PUSH2 0xAC1 JUMP JUMPDEST SWAP3 POP PUSH1 0xA0 DUP5 ADD CALLDATALOAD PUSH2 0xB13 DUP2 PUSH2 0xAD7 JUMP JUMPDEST SWAP3 SWAP6 SWAP3 SWAP5 POP POP POP PUSH1 0xC0 SWAP2 SWAP1 SWAP2 ADD CALLDATALOAD SWAP1 JUMP JUMPDEST PUSH0 PUSH0 PUSH1 0x20 DUP4 DUP6 SUB SLT ISZERO PUSH2 0xB35 JUMPI PUSH0 PUSH0 REVERT JUMPDEST DUP3 CALLDATALOAD PUSH8 0xFFFFFFFFFFFFFFFF DUP2 GT ISZERO PUSH2 0xB4B JUMPI PUSH0 PUSH0 REVERT JUMPDEST DUP4 ADD PUSH1 0x1F DUP2 ADD DUP6 SGT PUSH2 0xB5B JUMPI PUSH0 PUSH0 REVERT JUMPDEST DUP1 CALLDATALOAD PUSH8 0xFFFFFFFFFFFFFFFF DUP2 GT ISZERO PUSH2 0xB71 JUMPI PUSH0 PUSH0 REVERT JUMPDEST DUP6 PUSH1 0x20 DUP3 DUP5 ADD ADD GT ISZERO PUSH2 0xB82 JUMPI PUSH0 PUSH0 REVERT JUMPDEST PUSH1 0x20 SWAP2 SWAP1 SWAP2 ADD SWAP6 SWAP1 SWAP5 POP SWAP3 POP POP POP JUMP JUMPDEST PUSH0 DUP2 MLOAD DUP1 DUP5 MSTORE DUP1 PUSH1 0x20 DUP5 ADD PUSH1 0x20 DUP7 ADD MCOPY PUSH0 PUSH1 0x20 DUP3 DUP7 ADD ADD MSTORE PUSH1 0x20 PUSH1 0x1F NOT PUSH1 0x1F DUP4 ADD AND DUP6 ADD ADD SWAP2 POP POP SWAP3 SWAP2 POP POP JUMP JUMPDEST PUSH1 0x20 DUP2 MSTORE PUSH0 PUSH2 0xBD2 PUSH1 0x20 DUP4 ADD DUP5 PUSH2 0xB92 JUMP JUMPDEST SWAP4 SWAP3 POP POP POP JUMP JUMPDEST DUP1 PUSH1 0x2 SIGNEXTEND DUP2 EQ PUSH2 0xAE4 JUMPI PUSH0 PUSH0 REVERT JUMPDEST PUSH0 PUSH0 PUSH0 PUSH0 PUSH2 0x100 DUP6 DUP8 SUB SLT ISZERO PUSH2 0xBFB JUMPI PUSH0 PUSH0 REVERT JUMPDEST PUSH2 0xC05 DUP7 DUP7 PUSH2 0xAC1 JUMP JUMPDEST SWAP4 POP PUSH1 0xA0 DUP6 ADD CALLDATALOAD PUSH2 0xC15 DUP2 PUSH2 0xBD9 JUMP JUMPDEST SWAP3 POP PUSH1 0xC0 DUP6 ADD CALLDATALOAD PUSH2 0xC25 DUP2 PUSH2 0xBD9 JUMP JUMPDEST SWAP4 SWAP7 SWAP3 SWAP6 POP SWAP3 SWAP4 PUSH1 0xE0 ADD CALLDATALOAD SWAP3 POP POP JUMP JUMPDEST PUSH4 0x4E487B71 PUSH1 0xE0 SHL PUSH0 MSTORE PUSH1 0x41 PUSH1 0x4 MSTORE PUSH1 0x24 PUSH0 REVERT JUMPDEST PUSH1 0x40 MLOAD PUSH1 0xA0 DUP2 ADD PUSH8 0xFFFFFFFFFFFFFFFF DUP2 GT DUP3 DUP3 LT OR ISZERO PUSH2 0xC6C JUMPI PUSH2 0xC6C PUSH2 0xC35 JUMP JUMPDEST PUSH1 0x40 MSTORE SWAP1 JUMP JUMPDEST PUSH1 0x40 MLOAD PUSH1 0x1F DUP3 ADD PUSH1 0x1F NOT AND DUP2 ADD PUSH8 0xFFFFFFFFFFFFFFFF DUP2 GT DUP3 DUP3 LT OR ISZERO PUSH2 0xC9B JUMPI PUSH2 0xC9B PUSH2 0xC35 JUMP JUMPDEST PUSH1 0x40 MSTORE SWAP2 SWAP1 POP JUMP JUMPDEST PUSH1 0x1 PUSH1 0x1 PUSH1 0xA0 SHL SUB DUP2 AND DUP2 EQ PUSH2 0xAE4 JUMPI PUSH0 PUSH0 REVERT JUMPDEST PUSH3 0xFFFFFF DUP2 AND DUP2 EQ PUSH2 0xAE4 JUMPI PUSH0 PUSH0 REVERT JUMPDEST PUSH0 PUSH1 0xA0 DUP3 DUP5 SUB SLT DUP1 ISZERO PUSH2 0xCD8 JUMPI PUSH0 PUSH0 REVERT JUMPDEST POP PUSH2 0xCE1 PUSH2 0xC49 JUMP JUMPDEST DUP3 CALLDATALOAD PUSH2 0xCEC DUP2 PUSH2 0xCA3 JUMP JUMPDEST DUP2 MSTORE PUSH1 0x20 DUP4 ADD CALLDATALOAD PUSH2 0xCFC DUP2 PUSH2 0xCA3 JUMP JUMPDEST PUSH1 0x20 DUP3 ADD MSTORE PUSH1 0x40 DUP4 ADD CALLDATALOAD PUSH2 0xD0F DUP2 PUSH2 0xCB7 JUMP JUMPDEST PUSH1 0x40 DUP3 ADD MSTORE PUSH1 0x60 DUP4 ADD CALLDATALOAD PUSH2 0xD22 DUP2 PUSH2 0xBD9 JUMP JUMPDEST PUSH1 0x60 DUP3 ADD MSTORE PUSH1 0x80 DUP4 ADD CALLDATALOAD PUSH2 0xD35 DUP2 PUSH2 0xCA3 JUMP JUMPDEST PUSH1 0x80 DUP3 ADD MSTORE SWAP4 SWAP3 POP POP POP JUMP JUMPDEST DUP1 MLOAD PUSH1 0x1 PUSH1 0x1 PUSH1 0xA0 SHL SUB SWAP1 DUP2 AND DUP4 MSTORE PUSH1 0x20 DUP1 DUP4 ADD MLOAD DUP3 AND SWAP1 DUP5 ADD MSTORE PUSH1 0x40 DUP1 DUP4 ADD MLOAD PUSH3 0xFFFFFF AND SWAP1 DUP5 ADD MSTORE PUSH1 0x60 DUP1 DUP4 ADD MLOAD PUSH1 0x2 SIGNEXTEND SWAP1 DUP5 ADD MSTORE PUSH1 0x80 SWAP2 DUP3 ADD MLOAD AND SWAP2 ADD MSTORE JUMP JUMPDEST PUSH0 PUSH2 0x100 DUP3 ADD SWAP1 POP PUSH2 0xD97 DUP3 DUP5 MLOAD PUSH2 0xD41 JUMP JUMPDEST PUSH1 0x20 DUP4 ADD MLOAD ISZERO ISZERO PUSH1 0xA0 DUP4 ADD MSTORE PUSH1 0x40 DUP4 ADD MLOAD PUSH1 0xC0 DUP4 ADD MSTORE PUSH1 0x60 SWAP1 SWAP3 ADD MLOAD PUSH1 0x1 PUSH1 0x1 PUSH1 0xA0 SHL SUB AND PUSH1 0xE0 SWAP1 SWAP2 ADD MSTORE SWAP1 JUMP JUMPDEST PUSH4 0x4E487B71 PUSH1 0xE0 SHL PUSH0 MSTORE PUSH1 0x21 PUSH1 0x4 MSTORE PUSH1 0x24 PUSH0 REVERT JUMPDEST PUSH0 PUSH1 0x2 DUP5 LT PUSH2 0xDF6 JUMPI PUSH4 0x4E487B71 PUSH1 0xE0 SHL PUSH0 MSTORE PUSH1 0x21 PUSH1 0x4 MSTORE PUSH1 0x24 PUSH0 REVERT JUMPDEST DUP4 DUP3 MSTORE PUSH1 0x40 PUSH1 0x20 DUP4 ADD MSTORE PUSH2 0xE0D PUSH1 0x40 DUP4 ADD DUP5 PUSH2 0xB92 JUMP JUMPDEST SWAP5 SWAP4 POP POP POP POP JUMP JUMPDEST PUSH0 PUSH8 0xFFFFFFFFFFFFFFFF DUP3 GT ISZERO PUSH2 0xE2E JUMPI PUSH2 0xE2E PUSH2 0xC35 JUMP JUMPDEST POP PUSH1 0x1F ADD PUSH1 0x1F NOT AND PUSH1 0x20 ADD SWAP1 JUMP JUMPDEST PUSH0 PUSH1 0x20 DUP3 DUP5 SUB SLT ISZERO PUSH2 0xE4C JUMPI PUSH0 PUSH0 REVERT JUMPDEST DUP2 MLOAD PUSH8 0xFFFFFFFFFFFFFFFF DUP2 GT ISZERO PUSH2 0xE62 JUMPI PUSH0 PUSH0 REVERT JUMPDEST DUP3 ADD PUSH1 0x1F DUP2 ADD DUP5 SGT PUSH2 0xE72 JUMPI PUSH0 PUSH0 REVERT JUMPDEST DUP1 MLOAD PUSH2 0xE85 PUSH2 0xE80 DUP3 PUSH2 0xE15 JUMP JUMPDEST PUSH2 0xC72 JUMP JUMPDEST DUP2 DUP2 MSTORE DUP6 PUSH1 0x20 DUP4 DUP6 ADD ADD GT ISZERO PUSH2 0xE99 JUMPI PUSH0 PUSH0 REVERT JUMPDEST DUP2 PUSH1 0x20 DUP5 ADD PUSH1 0x20 DUP4 ADD MCOPY PUSH0 SWAP2 DUP2 ADD PUSH1 0x20 ADD SWAP2 SWAP1 SWAP2 MSTORE SWAP5 SWAP4 POP POP POP POP JUMP JUMPDEST PUSH0 PUSH1 0x20 DUP3 DUP5 SUB SLT ISZERO PUSH2 0xEC6 JUMPI PUSH0 PUSH0 REVERT JUMPDEST POP MLOAD SWAP2 SWAP1 POP JUMP JUMPDEST PUSH0 PUSH0 PUSH1 0x40 DUP4 DUP6 SUB SLT ISZERO PUSH2 0xEDE JUMPI PUSH0 PUSH0 REVERT JUMPDEST DUP3 CALLDATALOAD PUSH1 0x2 DUP2 LT PUSH2 0xEEC JUMPI PUSH0 PUSH0 REVERT JUMPDEST SWAP2 POP PUSH1 0x20 DUP4 ADD CALLDATALOAD PUSH8 0xFFFFFFFFFFFFFFFF DUP2 GT ISZERO PUSH2 0xF07 JUMPI PUSH0 PUSH0 REVERT JUMPDEST DUP4 ADD PUSH1 0x1F DUP2 ADD DUP6 SGT PUSH2 0xF17 JUMPI PUSH0 PUSH0 REVERT JUMPDEST DUP1 CALLDATALOAD PUSH2 0xF25 PUSH2 0xE80 DUP3 PUSH2 0xE15 JUMP JUMPDEST DUP2 DUP2 MSTORE DUP7 PUSH1 0x20 DUP4 DUP6 ADD ADD GT ISZERO PUSH2 0xF39 JUMPI PUSH0 PUSH0 REVERT JUMPDEST DUP2 PUSH1 0x20 DUP5 ADD PUSH1 0x20 DUP4 ADD CALLDATACOPY PUSH0 PUSH1 0x20 DUP4 DUP4 ADD ADD MSTORE DUP1 SWAP4 POP POP POP POP SWAP3 POP SWAP3 SWAP1 POP JUMP JUMPDEST PUSH0 PUSH2 0x120 DUP3 ADD SWAP1 POP PUSH2 0xF6B DUP3 DUP5 MLOAD PUSH2 0xD41 JUMP JUMPDEST PUSH1 0x20 DUP4 ADD MLOAD PUSH1 0x2 SWAP1 DUP2 SIGNEXTEND PUSH1 0xA0 DUP5 ADD MSTORE PUSH1 0x40 DUP5 ADD MLOAD SWAP1 SIGNEXTEND PUSH1 0xC0 DUP4 ADD MSTORE PUSH1 0x60 DUP4 ADD MLOAD PUSH1 0xE0 DUP4 ADD MSTORE PUSH1 0x80 SWAP1 SWAP3 ADD MLOAD PUSH1 0x1 PUSH1 0x1 PUSH1 0xA0 SHL SUB AND PUSH2 0x100 SWAP1 SWAP2 ADD MSTORE SWAP1 JUMP JUMPDEST PUSH0 PUSH1 0xA0 DUP3 DUP5 SUB SLT ISZERO PUSH2 0xFB9 JUMPI PUSH0 PUSH0 REVERT JUMPDEST PUSH2 0xFC1 PUSH2 0xC49 JUMP JUMPDEST SWAP1 POP DUP2 MLOAD PUSH2 0xFCE DUP2 PUSH2 0xCA3 JUMP JUMPDEST DUP2 MSTORE PUSH1 0x20 DUP3 ADD MLOAD PUSH2 0xFDE DUP2 PUSH2 0xCA3 JUMP JUMPDEST PUSH1 0x20 DUP3 ADD MSTORE PUSH1 0x40 DUP3 ADD MLOAD PUSH2 0xFF1 DUP2 PUSH2 0xCB7 JUMP JUMPDEST PUSH1 0x40 DUP3 ADD MSTORE PUSH1 0x60 DUP3 ADD MLOAD PUSH2 0x1004 DUP2 PUSH2 0xBD9 JUMP JUMPDEST PUSH1 0x60 DUP3 ADD MSTORE PUSH1 0x80 DUP3 ADD MLOAD PUSH2 0x1017 DUP2 PUSH2 0xCA3 JUMP JUMPDEST PUSH1 0x80 DUP3 ADD MSTORE SWAP3 SWAP2 POP POP JUMP JUMPDEST PUSH0 PUSH2 0x120 DUP3 DUP5 SUB SLT DUP1 ISZERO PUSH2 0x1034 JUMPI PUSH0 PUSH0 REVERT JUMPDEST POP PUSH2 0x103D PUSH2 0xC49 JUMP JUMPDEST PUSH2 0x1047 DUP5 DUP5 PUSH2 0xFA9 JUMP JUMPDEST DUP2 MSTORE PUSH1 0xA0 DUP4 ADD MLOAD PUSH2 0x1057 DUP2 PUSH2 0xBD9 JUMP JUMPDEST PUSH1 0x20 DUP3 ADD MSTORE PUSH1 0xC0 DUP4 ADD MLOAD PUSH2 0x106A DUP2 PUSH2 0xBD9 JUMP JUMPDEST PUSH1 0x40 DUP3 ADD MSTORE PUSH1 0xE0 DUP4 ADD MLOAD PUSH1 0x60 DUP3 ADD MSTORE PUSH2 0x100 DUP4 ADD MLOAD PUSH2 0xD35 DUP2 PUSH2 0xCA3 JUMP JUMPDEST PUSH2 0x1092 DUP2 DUP6 PUSH2 0xD41 JUMP JUMPDEST DUP3 MLOAD PUSH1 0x2 SIGNEXTEND PUSH1 0xA0 DUP3 ADD MSTORE PUSH1 0x20 DUP4 ADD MLOAD PUSH1 0x2 SIGNEXTEND PUSH1 0xC0 DUP3 ADD MSTORE PUSH1 0x40 DUP4 ADD MLOAD PUSH1 0xE0 DUP3 ADD MSTORE PUSH1 0x60 DUP4 ADD MLOAD PUSH2 0x100 DUP3 ADD MSTORE PUSH2 0x140 PUSH2 0x120 DUP3 ADD MSTORE PUSH0 PUSH2 0x281 PUSH2 0x140 DUP4 ADD DUP5 PUSH2 0xB92 JUMP JUMPDEST PUSH0 PUSH0 PUSH1 0x40 DUP4 DUP6 SUB SLT ISZERO PUSH2 0x10E7 JUMPI PUSH0 PUSH0 REVERT JUMPDEST POP POP DUP1 MLOAD PUSH1 0x20 SWAP1 SWAP2 ADD MLOAD SWAP1 SWAP3 SWAP1 SWAP2 POP JUMP JUMPDEST PUSH0 PUSH2 0x100 DUP3 DUP5 SUB SLT DUP1 ISZERO PUSH2 0x110A JUMPI PUSH0 PUSH0 REVERT JUMPDEST POP PUSH1 0x40 MLOAD PUSH1 0x80 DUP2 ADD PUSH8 0xFFFFFFFFFFFFFFFF DUP2 GT DUP3 DUP3 LT OR ISZERO PUSH2 0x112E JUMPI PUSH2 0x112E PUSH2 0xC35 JUMP JUMPDEST PUSH1 0x40 MSTORE PUSH2 0x113B DUP5 DUP5 PUSH2 0xFA9 JUMP JUMPDEST DUP2 MSTORE PUSH1 0xA0 DUP4 ADD MLOAD PUSH2 0x114B DUP2 PUSH2 0xAD7 JUMP JUMPDEST PUSH1 0x20 DUP3 ADD MSTORE PUSH1 0xC0 DUP4 ADD MLOAD PUSH1 0x40 DUP3 ADD MSTORE PUSH1 0xE0 DUP4 ADD MLOAD PUSH2 0x1168 DUP2 PUSH2 0xCA3 JUMP JUMPDEST PUSH1 0x60 DUP3 ADD MSTORE SWAP4 SWAP3 POP POP POP JUMP JUMPDEST PUSH4 0x4E487B71 PUSH1 0xE0 SHL PUSH0 MSTORE PUSH1 0x11 PUSH1 0x4 MSTORE PUSH1 0x24 PUSH0 REVERT JUMPDEST PUSH1 0x1 PUSH1 0x1 PUSH1 0xA0 SHL SUB DUP3 DUP2 AND DUP3 DUP3 AND SUB SWAP1 DUP2 GT ISZERO PUSH2 0x31B JUMPI PUSH2 0x31B PUSH2 0x1174 JUMP JUMPDEST PUSH1 0x1 PUSH1 0x1 PUSH1 0xA0 SHL SUB DUP2 DUP2 AND DUP4 DUP3 AND ADD SWAP1 DUP2 GT ISZERO PUSH2 0x31B JUMPI PUSH2 0x31B PUSH2 0x1174 JUMP JUMPDEST PUSH2 0x11D0 DUP2 DUP6 PUSH2 0xD41 JUMP JUMPDEST DUP3 MLOAD ISZERO ISZERO PUSH1 0xA0 DUP3 ADD MSTORE PUSH1 0x20 DUP4 ADD MLOAD PUSH1 0xC0 DUP3 ADD MSTORE PUSH1 0x40 DUP4 ADD MLOAD PUSH1 0x1 PUSH1 0x1 PUSH1 0xA0 SHL SUB AND PUSH1 0xE0 DUP3 ADD MSTORE PUSH2 0x120 PUSH2 0x100 DUP3 ADD DUP2 SWAP1 MSTORE PUSH0 SWAP1 PUSH2 0x281 SWAP1 DUP4 ADD DUP5 PUSH2 0xB92 JUMP JUMPDEST PUSH0 DUP2 PUSH1 0xF SIGNEXTEND PUSH16 0x7FFFFFFFFFFFFFFFFFFFFFFFFFFFFFFF NOT DUP2 SUB PUSH2 0x1234 JUMPI PUSH2 0x1234 PUSH2 0x1174 JUMP JUMPDEST PUSH0 SUB SWAP3 SWAP2 POP POP JUMP JUMPDEST PUSH0 PUSH1 0x20 DUP3 DUP5 SUB SLT ISZERO PUSH2 0x124C JUMPI PUSH0 PUSH0 REVERT JUMPDEST DUP2 MLOAD PUSH2 0xBD2 DUP2 PUSH2 0xAD7 JUMP INVALID LOG2 PUSH5 0x6970667358 0x22 SLT KECCAK256 PUSH18 0x7B863A3C28BEC0AE08978B81A24999AA4FC EXP 0xA6 0xC1 SWAP16 PUSH26 0xAC2672C5E05C17BF64736F6C634300081B003300000000000000 "},"methodIdentifiers":{"addLiquidity((address,address,uint24,int24,address),int24,int24,int256)":"e2e6fcbe","owner()":"8da5cb5b","poolManager()":"dc4c90d3","swap((address,address,uint24,int24,address),bool,int256)":"41a1df46","unlockCallback(bytes)":"91dd7346"}}}}}