{"contracts/TTTHookSimple.sol":{"TTTHookSimple":{"abi":[{"inputs":[{"internalType":"address","name":"_ttt","type":"address"},{"internalType":"uint256","name":"_minBalance","type":"uint256"},{"internalType":"uint24","name":"_turboFee","type":"uint24"},{"internalType":"uint24","name":"_fullFee","type":"uint24"}],"stateMutability":"nonpayable","type":"constructor"},{"inputs":[],"name":"AccessControlBadConfirmation","type":"error"},{"inputs":[{"internalType":"address","name":"account","type":"address"},{"internalType":"bytes32","name":"neededRole","type":"bytes32"}],"name":"AccessControlUnauthorizedAccount","type":"error"},{"inputs":[],"name":"ZeroAddress","type":"error"},{"anonymous":false,"inputs":[{"indexed":true,"internalType":"bytes32","name":"role","type":"bytes32"},{"indexed":true,"internalType":"bytes32","name":"previousAdminRole","type":"bytes32"},{"indexed":true,"internalType":"bytes32","name":"newAdminRole","type":"bytes32"}],"name":"RoleAdminChanged","type":"event"},{"anonymous":false,"inputs":[{"indexed":true,"internalType":"bytes32","name":"role","type":"bytes32"},{"indexed":true,"internalType":"address","name":"account","type":"address"},{"indexed":true,"internalType":"address","name":"sender","type":"address"}],"name":"RoleGranted","type":"event"},{"anonymous":false,"inputs":[{"indexed":true,"internalType":"bytes32","name":"role","type":"bytes32"},{"indexed":true,"internalType":"address","name":"account","type":"address"},{"indexed":true,"internalType":"address","name":"sender","type":"address"}],"name":"RoleRevoked","type":"event"},{"anonymous":false,"inputs":[{"indexed":true,"internalType":"address","name":"sender","type":"address"},{"indexed":true,"internalType":"bytes32","name":"pool","type":"bytes32"},{"indexed":true,"internalType":"address","name":"hook","type":"address"},{"indexed":false,"internalType":"string","name":"mode","type":"string"},{"indexed":false,"internalType":"uint256","name":"feeAmount","type":"uint256"},{"indexed":false,"internalType":"bytes32","name":"potHash","type":"bytes32"}],"name":"SwapVerified","type":"event"},{"inputs":[],"name":"DEFAULT_ADMIN_ROLE","outputs":[{"internalType":"bytes32","name":"","type":"bytes32"}],"stateMutability":"view","type":"function"},{"inputs":[],"name":"HOOK_OPERATOR_ROLE","outputs":[{"internalType":"bytes32","name":"","type":"bytes32"}],"stateMutability":"view","type":"function"},{"inputs":[],"name":"fullFee","outputs":[{"internalType":"uint24","name":"","type":"uint24"}],"stateMutability":"view","type":"function"},{"inputs":[],"name":"fullSwaps","outputs":[{"internalType":"uint256","name":"","type":"uint256"}],"stateMutability":"view","type":"function"},{"inputs":[{"internalType":"bytes32","name":"role","type":"bytes32"}],"name":"getRoleAdmin","outputs":[{"internalType":"bytes32","name":"","type":"bytes32"}],"stateMutability":"view","type":"function"},{"inputs":[],"name":"getStats","outputs":[{"internalType":"uint256","name":"_totalSwaps","type":"uint256"},{"internalType":"uint256","name":"_turboSwaps","type":"uint256"},{"internalType":"uint256","name":"_fullSwaps","type":"uint256"}],"stateMutability":"view","type":"function"},{"inputs":[{"internalType":"bytes32","name":"role","type":"bytes32"},{"internalType":"address","name":"account","type":"address"}],"name":"grantRole","outputs":[],"stateMutability":"nonpayable","type":"function"},{"inputs":[{"internalType":"bytes32","name":"role","type":"bytes32"},{"internalType":"address","name":"account","type":"address"}],"name":"hasRole","outputs":[{"internalType":"bool","name":"","type":"bool"}],"stateMutability":"view","type":"function"},{"inputs":[],"name":"minTTTBalance","outputs":[{"internalType":"uint256","name":"","type":"uint256"}],"stateMutability":"view","type":"function"},{"inputs":[{"internalType":"bytes32","name":"role","type":"bytes32"},{"internalType":"address","name":"callerConfirmation","type":"address"}],"name":"renounceRole","outputs":[],"stateMutability":"nonpayable","type":"function"},{"inputs":[{"internalType":"bytes32","name":"role","type":"bytes32"},{"internalType":"address","name":"account","type":"address"}],"name":"revokeRole","outputs":[],"stateMutability":"nonpayable","type":"function"},{"inputs":[{"internalType":"uint256","name":"_minBalance","type":"uint256"},{"internalType":"uint24","name":"_turboFee","type":"uint24"},{"internalType":"uint24","name":"_fullFee","type":"uint24"},{"internalType":"uint256","name":"_tttTokenId","type":"uint256"}],"name":"setFeeConfig","outputs":[],"stateMutability":"nonpayable","type":"function"},{"inputs":[{"internalType":"bytes4","name":"interfaceId","type":"bytes4"}],"name":"supportsInterface","outputs":[{"internalType":"bool","name":"","type":"bool"}],"stateMutability":"view","type":"function"},{"inputs":[],"name":"totalSwaps","outputs":[{"internalType":"uint256","name":"","type":"uint256"}],"stateMutability":"view","type":"function"},{"inputs":[],"name":"ttt","outputs":[{"internalType":"contract IERC1155","name":"","type":"address"}],"stateMutability":"view","type":"function"},{"inputs":[],"name":"tttTokenId","outputs":[{"internalType":"uint256","name":"","type":"uint256"}],"stateMutability":"view","type":"function"},{"inputs":[],"name":"turboFee","outputs":[{"internalType":"uint24","name":"","type":"uint24"}],"stateMutability":"view","type":"function"},{"inputs":[],"name":"turboSwaps","outputs":[{"internalType":"uint256","name":"","type":"uint256"}],"stateMutability":"view","type":"function"},{"inputs":[{"internalType":"address","name":"sender","type":"address"},{"internalType":"bytes32","name":"pool","type":"bytes32"},{"internalType":"int256","name":"swapDelta","type":"int256"}],"name":"verifySwap","outputs":[],"stateMutability":"nonpayable","type":"function"}],"evm":{"bytecode":{"linkReferences":{},"object":"60a060405234801561000f575f5ffd5b50604051610b59380380610b5983398101604081905261002e9161018f565b6001600160a01b0384166100555760405163d92e233d60e01b815260040160405180910390fd5b6001600160a01b03841660805260028390556003805462ffffff83811663010000000265ffffffffffff19909216908516171790555f600181905561009a90336100cf565b506100c57f31178abb9fd04b197098d2d73fd8b7e906460b75713e526ab738912b1968eede336100cf565b50505050506101e7565b5f828152602081815260408083206001600160a01b038516845290915281205460ff1661016f575f838152602081815260408083206001600160a01b03861684529091529020805460ff191660011790556101273390565b6001600160a01b0316826001600160a01b0316847f2f8788117e7eff1d82e926ec794901d17c78024a50270940304540a733656f0d60405160405180910390a4506001610172565b505f5b92915050565b805162ffffff8116811461018a575f5ffd5b919050565b5f5f5f5f608085870312156101a2575f5ffd5b84516001600160a01b03811681146101b8575f5ffd5b602086015190945092506101ce60408601610178565b91506101dc60608601610178565b905092959194509250565b6080516109536102065f395f81816102a0015261043001526109535ff3fe608060405234801561000f575f5ffd5b506004361061011c575f3560e01c8063848f82b3116100a9578063c59d48471161006e578063c59d48471461025b578063c6e75bee1461027f578063d547741f14610288578063d59809c51461029b578063f2cba57f146102da575f5ffd5b8063848f82b31461021c57806391d148541461022f578063a217fddf14610242578063b4a800ce14610249578063bb89ff4714610252575f5ffd5b8063248a9ca3116100ef578063248a9ca3146101b05780632f2ff15d146101d257806336568abe146101e7578063513a0b41146101fa5780635d667ae214610209575f5ffd5b806301ffc9a714610120578063034003fc146101485780630d116d6a1461017d57806320f58d82146101a7575b5f5ffd5b61013361012e366004610792565b6102e3565b60405190151581526020015b60405180910390f35b61016f7f31178abb9fd04b197098d2d73fd8b7e906460b75713e526ab738912b1968eede81565b60405190815260200161013f565b600354610193906301000000900462ffffff1681565b60405162ffffff909116815260200161013f565b61016f60065481565b61016f6101be3660046107c0565b5f9081526020819052604090206001015490565b6101e56101e03660046107f2565b610319565b005b6101e56101f53660046107f2565b610343565b6003546101939062ffffff1681565b6101e561021736600461082e565b61037b565b6101e561022a36600461086f565b6103db565b61013361023d3660046107f2565b610600565b61016f5f81565b61016f60045481565b61016f60055481565b6004546005546006546040805193845260208401929092529082015260600161013f565b61016f60025481565b6101e56102963660046107f2565b610628565b6102c27f000000000000000000000000000000000000000000000000000000000000000081565b6040516001600160a01b03909116815260200161013f565b61016f60015481565b5f6001600160e01b03198216637965db0b60e01b148061031357506301ffc9a760e01b6001600160e01b03198316145b92915050565b5f828152602081905260409020600101546103338161064c565b61033d8383610659565b50505050565b6001600160a01b038116331461036c5760405163334bd91960e11b815260040160405180910390fd5b61037682826106e8565b505050565b7f31178abb9fd04b197098d2d73fd8b7e906460b75713e526ab738912b1968eede6103a58161064c565b506002939093556003805462ffffff92831663010000000265ffffffffffff199091169290931691909117919091179055600155565b7f31178abb9fd04b197098d2d73fd8b7e906460b75713e526ab738912b1968eede6104058161064c565b600154604051627eeac760e11b81526001600160a01b03868116600483015260248201929092525f917f0000000000000000000000000000000000000000000000000000000000000000169062fdd58e90604401602060405180830381865afa158015610474573d5f5f3e3d5ffd5b505050506040513d601f19601f82011682018060405250810190610498919061089f565b6002549091508110155f816104bb576003546301000000900462ffffff166104c4565b60035462ffffff165b90505f826104ee5760405180604001604052806004815260200163199d5b1b60e21b81525061050d565b60405180604001604052806005815260200164747572626f60d81b8152505b6040516bffffffffffffffffffffffff1960608b901b166020820152426034820152605481018890529091505f9060740160408051601f198184030181529190528051602090910120600480549192505f610567836108b6565b9190505550831561058b5760058054905f610581836108b6565b91905055506105a0565b60068054905f61059a836108b6565b91905055505b306001600160a01b0316888a6001600160a01b03167ffa42f85f670c1b90112a108fb51c17665b5d3ca083733628963a48e09103c732858762ffffff16866040516105ed939291906108da565b60405180910390a4505050505050505050565b5f918252602082815260408084206001600160a01b0393909316845291905290205460ff1690565b5f828152602081905260409020600101546106428161064c565b61033d83836106e8565b6106568133610751565b50565b5f6106648383610600565b6106e1575f838152602081815260408083206001600160a01b03861684529091529020805460ff191660011790556106993390565b6001600160a01b0316826001600160a01b0316847f2f8788117e7eff1d82e926ec794901d17c78024a50270940304540a733656f0d60405160405180910390a4506001610313565b505f610313565b5f6106f38383610600565b156106e1575f838152602081815260408083206001600160a01b0386168085529252808320805460ff1916905551339286917ff6391f5c32d9c69d2a47ea670b442974b53935d1edc7fd64eb21e047a839171b9190a4506001610313565b61075b8282610600565b61078e5760405163e2517d3f60e01b81526001600160a01b03821660048201526024810183905260440160405180910390fd5b5050565b5f602082840312156107a2575f5ffd5b81356001600160e01b0319811681146107b9575f5ffd5b9392505050565b5f602082840312156107d0575f5ffd5b5035919050565b80356001600160a01b03811681146107ed575f5ffd5b919050565b5f5f60408385031215610803575f5ffd5b82359150610813602084016107d7565b90509250929050565b803562ffffff811681146107ed575f5ffd5b5f5f5f5f60808587031215610841575f5ffd5b843593506108516020860161081c565b925061085f6040860161081c565b9396929550929360600135925050565b5f5f5f60608486031215610881575f5ffd5b61088a846107d7565b95602085013595506040909401359392505050565b5f602082840312156108af575f5ffd5b5051919050565b5f600182016108d357634e487b7160e01b5f52601160045260245ffd5b5060010190565b606081525f84518060608401528060208701608085015e5f608082850101526080601f19601f83011684010191505083602083015282604083015294935050505056fea2646970667358221220bee3e930f0ae478544a0ca63d08ffeb1c9d6cc8470b484616ede254c466400cc64736f6c634300081b0033","opcodes":"PUSH1 0xA0 PUSH1 0x40 MSTORE CALLVALUE DUP1 ISZERO PUSH2 0xF JUMPI PUSH0 PUSH0 REVERT JUMPDEST POP PUSH1 0x40 MLOAD PUSH2 0xB59 CODESIZE SUB DUP1 PUSH2 0xB59 DUP4 CODECOPY DUP2 ADD PUSH1 0x40 DUP2 SWAP1 MSTORE PUSH2 0x2E SWAP2 PUSH2 0x18F JUMP JUMPDEST PUSH1 0x1 PUSH1 0x1 PUSH1 0xA0 SHL SUB DUP5 AND PUSH2 0x55 JUMPI PUSH1 0x40 MLOAD PUSH4 0xD92E233D PUSH1 0xE0 SHL DUP2 MSTORE PUSH1 0x4 ADD PUSH1 0x40 MLOAD DUP1 SWAP2 SUB SWAP1 REVERT JUMPDEST PUSH1 0x1 PUSH1 0x1 PUSH1 0xA0 SHL SUB DUP5 AND PUSH1 0x80 MSTORE PUSH1 0x2 DUP4 SWAP1 SSTORE PUSH1 0x3 DUP1 SLOAD PUSH3 0xFFFFFF DUP4 DUP2 AND PUSH4 0x1000000 MUL PUSH6 0xFFFFFFFFFFFF NOT SWAP1 SWAP3 AND SWAP1 DUP6 AND OR OR SWAP1 SSTORE PUSH0 PUSH1 0x1 DUP2 SWAP1 SSTORE PUSH2 0x9A SWAP1 CALLER PUSH2 0xCF JUMP JUMPDEST POP PUSH2 0xC5 PUSH32 0x31178ABB9FD04B197098D2D73FD8B7E906460B75713E526AB738912B1968EEDE CALLER PUSH2 0xCF JUMP JUMPDEST POP POP POP POP POP PUSH2 0x1E7 JUMP JUMPDEST PUSH0 DUP3 DUP2 MSTORE PUSH1 0x20 DUP2 DUP2 MSTORE PUSH1 0x40 DUP1 DUP4 KECCAK256 PUSH1 0x1 PUSH1 0x1 PUSH1 0xA0 SHL SUB DUP6 AND DUP5 MSTORE SWAP1 SWAP2 MSTORE DUP2 KECCAK256 SLOAD PUSH1 0xFF AND PUSH2 0x16F JUMPI PUSH0 DUP4 DUP2 MSTORE PUSH1 0x20 DUP2 DUP2 MSTORE PUSH1 0x40 DUP1 DUP4 KECCAK256 PUSH1 0x1 PUSH1 0x1 PUSH1 0xA0 SHL SUB DUP7 AND DUP5 MSTORE SWAP1 SWAP2 MSTORE SWAP1 KECCAK256 DUP1 SLOAD PUSH1 0xFF NOT AND PUSH1 0x1 OR SWAP1 SSTORE PUSH2 0x127 CALLER SWAP1 JUMP JUMPDEST PUSH1 0x1 PUSH1 0x1 PUSH1 0xA0 SHL SUB AND DUP3 PUSH1 0x1 PUSH1 0x1 PUSH1 0xA0 SHL SUB AND DUP5 PUSH32 0x2F8788117E7EFF1D82E926EC794901D17C78024A50270940304540A733656F0D PUSH1 0x40 MLOAD PUSH1 0x40 MLOAD DUP1 SWAP2 SUB SWAP1 LOG4 POP PUSH1 0x1 PUSH2 0x172 JUMP JUMPDEST POP PUSH0 JUMPDEST SWAP3 SWAP2 POP POP JUMP JUMPDEST DUP1 MLOAD PUSH3 0xFFFFFF DUP2 AND DUP2 EQ PUSH2 0x18A JUMPI PUSH0 PUSH0 REVERT JUMPDEST SWAP2 SWAP1 POP JUMP JUMPDEST PUSH0 PUSH0 PUSH0 PUSH0 PUSH1 0x80 DUP6 DUP8 SUB SLT ISZERO PUSH2 0x1A2 JUMPI PUSH0 PUSH0 REVERT JUMPDEST DUP5 MLOAD PUSH1 0x1 PUSH1 0x1 PUSH1 0xA0 SHL SUB DUP2 AND DUP2 EQ PUSH2 0x1B8 JUMPI PUSH0 PUSH0 REVERT JUMPDEST PUSH1 0x20 DUP7 ADD MLOAD SWAP1 SWAP5 POP SWAP3 POP PUSH2 0x1CE PUSH1 0x40 DUP7 ADD PUSH2 0x178 JUMP JUMPDEST SWAP2 POP PUSH2 0x1DC PUSH1 0x60 DUP7 ADD PUSH2 0x178 JUMP JUMPDEST SWAP1 POP SWAP3 SWAP6 SWAP2 SWAP5 POP SWAP3 POP JUMP JUMPDEST PUSH1 0x80 MLOAD PUSH2 0x953 PUSH2 0x206 PUSH0 CODECOPY PUSH0 DUP2 DUP2 PUSH2 0x2A0 ADD MSTORE PUSH2 0x430 ADD MSTORE PUSH2 0x953 PUSH0 RETURN INVALID PUSH1 0x80 PUSH1 0x40 MSTORE CALLVALUE DUP1 ISZERO PUSH2 0xF JUMPI PUSH0 PUSH0 REVERT JUMPDEST POP PUSH1 0x4 CALLDATASIZE LT PUSH2 0x11C JUMPI PUSH0 CALLDATALOAD PUSH1 0xE0 SHR DUP1 PUSH4 0x848F82B3 GT PUSH2 0xA9 JUMPI DUP1 PUSH4 0xC59D4847 GT PUSH2 0x6E JUMPI DUP1 PUSH4 0xC59D4847 EQ PUSH2 0x25B JUMPI DUP1 PUSH4 0xC6E75BEE EQ PUSH2 0x27F JUMPI DUP1 PUSH4 0xD547741F EQ PUSH2 0x288 JUMPI DUP1 PUSH4 0xD59809C5 EQ PUSH2 0x29B JUMPI DUP1 PUSH4 0xF2CBA57F EQ PUSH2 0x2DA JUMPI PUSH0 PUSH0 REVERT JUMPDEST DUP1 PUSH4 0x848F82B3 EQ PUSH2 0x21C JUMPI DUP1 PUSH4 0x91D14854 EQ PUSH2 0x22F JUMPI DUP1 PUSH4 0xA217FDDF EQ PUSH2 0x242 JUMPI DUP1 PUSH4 0xB4A800CE EQ PUSH2 0x249 JUMPI DUP1 PUSH4 0xBB89FF47 EQ PUSH2 0x252 JUMPI PUSH0 PUSH0 REVERT JUMPDEST DUP1 PUSH4 0x248A9CA3 GT PUSH2 0xEF JUMPI DUP1 PUSH4 0x248A9CA3 EQ PUSH2 0x1B0 JUMPI DUP1 PUSH4 0x2F2FF15D EQ PUSH2 0x1D2 JUMPI DUP1 PUSH4 0x36568ABE EQ PUSH2 0x1E7 JUMPI DUP1 PUSH4 0x513A0B41 EQ PUSH2 0x1FA JUMPI DUP1 PUSH4 0x5D667AE2 EQ PUSH2 0x209 JUMPI PUSH0 PUSH0 REVERT JUMPDEST DUP1 PUSH4 0x1FFC9A7 EQ PUSH2 0x120 JUMPI DUP1 PUSH4 0x34003FC EQ PUSH2 0x148 JUMPI DUP1 PUSH4 0xD116D6A EQ PUSH2 0x17D JUMPI DUP1 PUSH4 0x20F58D82 EQ PUSH2 0x1A7 JUMPI JUMPDEST PUSH0 PUSH0 REVERT JUMPDEST PUSH2 0x133 PUSH2 0x12E CALLDATASIZE PUSH1 0x4 PUSH2 0x792 JUMP JUMPDEST PUSH2 0x2E3 JUMP JUMPDEST PUSH1 0x40 MLOAD SWAP1 ISZERO ISZERO DUP2 MSTORE PUSH1 0x20 ADD JUMPDEST PUSH1 0x40 MLOAD DUP1 SWAP2 SUB SWAP1 RETURN JUMPDEST PUSH2 0x16F PUSH32 0x31178ABB9FD04B197098D2D73FD8B7E906460B75713E526AB738912B1968EEDE DUP2 JUMP JUMPDEST PUSH1 0x40 MLOAD SWAP1 DUP2 MSTORE PUSH1 0x20 ADD PUSH2 0x13F JUMP JUMPDEST PUSH1 0x3 SLOAD PUSH2 0x193 SWAP1 PUSH4 0x1000000 SWAP1 DIV PUSH3 0xFFFFFF AND DUP2 JUMP JUMPDEST PUSH1 0x40 MLOAD PUSH3 0xFFFFFF SWAP1 SWAP2 AND DUP2 MSTORE PUSH1 0x20 ADD PUSH2 0x13F JUMP JUMPDEST PUSH2 0x16F PUSH1 0x6 SLOAD DUP2 JUMP JUMPDEST PUSH2 0x16F PUSH2 0x1BE CALLDATASIZE PUSH1 0x4 PUSH2 0x7C0 JUMP JUMPDEST PUSH0 SWAP1 DUP2 MSTORE PUSH1 0x20 DUP2 SWAP1 MSTORE PUSH1 0x40 SWAP1 KECCAK256 PUSH1 0x1 ADD SLOAD SWAP1 JUMP JUMPDEST PUSH2 0x1E5 PUSH2 0x1E0 CALLDATASIZE PUSH1 0x4 PUSH2 0x7F2 JUMP JUMPDEST PUSH2 0x319 JUMP JUMPDEST STOP JUMPDEST PUSH2 0x1E5 PUSH2 0x1F5 CALLDATASIZE PUSH1 0x4 PUSH2 0x7F2 JUMP JUMPDEST PUSH2 0x343 JUMP JUMPDEST PUSH1 0x3 SLOAD PUSH2 0x193 SWAP1 PUSH3 0xFFFFFF AND DUP2 JUMP JUMPDEST PUSH2 0x1E5 PUSH2 0x217 CALLDATASIZE PUSH1 0x4 PUSH2 0x82E JUMP JUMPDEST PUSH2 0x37B JUMP JUMPDEST PUSH2 0x1E5 PUSH2 0x22A CALLDATASIZE PUSH1 0x4 PUSH2 0x86F JUMP JUMPDEST PUSH2 0x3DB JUMP JUMPDEST PUSH2 0x133 PUSH2 0x23D CALLDATASIZE PUSH1 0x4 PUSH2 0x7F2 JUMP JUMPDEST PUSH2 0x600 JUMP JUMPDEST PUSH2 0x16F PUSH0 DUP2 JUMP JUMPDEST PUSH2 0x16F PUSH1 0x4 SLOAD DUP2 JUMP JUMPDEST PUSH2 0x16F PUSH1 0x5 SLOAD DUP2 JUMP JUMPDEST PUSH1 0x4 SLOAD PUSH1 0x5 SLOAD PUSH1 0x6 SLOAD PUSH1 0x40 DUP1 MLOAD SWAP4 DUP5 MSTORE PUSH1 0x20 DUP5 ADD SWAP3 SWAP1 SWAP3 MSTORE SWAP1 DUP3 ADD MSTORE PUSH1 0x60 ADD PUSH2 0x13F JUMP JUMPDEST PUSH2 0x16F PUSH1 0x2 SLOAD DUP2 JUMP JUMPDEST PUSH2 0x1E5 PUSH2 0x296 CALLDATASIZE PUSH1 0x4 PUSH2 0x7F2 JUMP JUMPDEST PUSH2 0x628 JUMP JUMPDEST PUSH2 0x2C2 PUSH32 0x0 DUP2 JUMP JUMPDEST PUSH1 0x40 MLOAD PUSH1 0x1 PUSH1 0x1 PUSH1 0xA0 SHL SUB SWAP1 SWAP2 AND DUP2 MSTORE PUSH1 0x20 ADD PUSH2 0x13F JUMP JUMPDEST PUSH2 0x16F PUSH1 0x1 SLOAD DUP2 JUMP JUMPDEST PUSH0 PUSH1 0x1 PUSH1 0x1 PUSH1 0xE0 SHL SUB NOT DUP3 AND PUSH4 0x7965DB0B PUSH1 0xE0 SHL EQ DUP1 PUSH2 0x313 JUMPI POP PUSH4 0x1FFC9A7 PUSH1 0xE0 SHL PUSH1 0x1 PUSH1 0x1 PUSH1 0xE0 SHL SUB NOT DUP4 AND EQ JUMPDEST SWAP3 SWAP2 POP POP JUMP JUMPDEST PUSH0 DUP3 DUP2 MSTORE PUSH1 0x20 DUP2 SWAP1 MSTORE PUSH1 0x40 SWAP1 KECCAK256 PUSH1 0x1 ADD SLOAD PUSH2 0x333 DUP2 PUSH2 0x64C JUMP JUMPDEST PUSH2 0x33D DUP4 DUP4 PUSH2 0x659 JUMP JUMPDEST POP POP POP POP JUMP JUMPDEST PUSH1 0x1 PUSH1 0x1 PUSH1 0xA0 SHL SUB DUP2 AND CALLER EQ PUSH2 0x36C JUMPI PUSH1 0x40 MLOAD PUSH4 0x334BD919 PUSH1 0xE1 SHL DUP2 MSTORE PUSH1 0x4 ADD PUSH1 0x40 MLOAD DUP1 SWAP2 SUB SWAP1 REVERT JUMPDEST PUSH2 0x376 DUP3 DUP3 PUSH2 0x6E8 JUMP JUMPDEST POP POP POP JUMP JUMPDEST PUSH32 0x31178ABB9FD04B197098D2D73FD8B7E906460B75713E526AB738912B1968EEDE PUSH2 0x3A5 DUP2 PUSH2 0x64C JUMP JUMPDEST POP PUSH1 0x2 SWAP4 SWAP1 SWAP4 SSTORE PUSH1 0x3 DUP1 SLOAD PUSH3 0xFFFFFF SWAP3 DUP4 AND PUSH4 0x1000000 MUL PUSH6 0xFFFFFFFFFFFF NOT SWAP1 SWAP2 AND SWAP3 SWAP1 SWAP4 AND SWAP2 SWAP1 SWAP2 OR SWAP2 SWAP1 SWAP2 OR SWAP1 SSTORE PUSH1 0x1 SSTORE JUMP JUMPDEST PUSH32 0x31178ABB9FD04B197098D2D73FD8B7E906460B75713E526AB738912B1968EEDE PUSH2 0x405 DUP2 PUSH2 0x64C JUMP JUMPDEST PUSH1 0x1 SLOAD PUSH1 0x40 MLOAD PUSH3 0x7EEAC7 PUSH1 0xE1 SHL DUP2 MSTORE PUSH1 0x1 PUSH1 0x1 PUSH1 0xA0 SHL SUB DUP7 DUP2 AND PUSH1 0x4 DUP4 ADD MSTORE PUSH1 0x24 DUP3 ADD SWAP3 SWAP1 SWAP3 MSTORE PUSH0 SWAP2 PUSH32 0x0 AND SWAP1 PUSH3 0xFDD58E SWAP1 PUSH1 0x44 ADD PUSH1 0x20 PUSH1 0x40 MLOAD DUP1 DUP4 SUB DUP2 DUP7 GAS STATICCALL ISZERO DUP1 ISZERO PUSH2 0x474 JUMPI RETURNDATASIZE PUSH0 PUSH0 RETURNDATACOPY RETURNDATASIZE PUSH0 REVERT JUMPDEST POP POP POP POP PUSH1 0x40 MLOAD RETURNDATASIZE PUSH1 0x1F NOT PUSH1 0x1F DUP3 ADD AND DUP3 ADD DUP1 PUSH1 0x40 MSTORE POP DUP2 ADD SWAP1 PUSH2 0x498 SWAP2 SWAP1 PUSH2 0x89F JUMP JUMPDEST PUSH1 0x2 SLOAD SWAP1 SWAP2 POP DUP2 LT ISZERO PUSH0 DUP2 PUSH2 0x4BB JUMPI PUSH1 0x3 SLOAD PUSH4 0x1000000 SWAP1 DIV PUSH3 0xFFFFFF AND PUSH2 0x4C4 JUMP JUMPDEST PUSH1 0x3 SLOAD PUSH3 0xFFFFFF AND JUMPDEST SWAP1 POP PUSH0 DUP3 PUSH2 0x4EE JUMPI PUSH1 0x40 MLOAD DUP1 PUSH1 0x40 ADD PUSH1 0x40 MSTORE DUP1 PUSH1 0x4 DUP2 MSTORE PUSH1 0x20 ADD PUSH4 0x199D5B1B PUSH1 0xE2 SHL DUP2 MSTORE POP PUSH2 0x50D JUMP JUMPDEST PUSH1 0x40 MLOAD DUP1 PUSH1 0x40 ADD PUSH1 0x40 MSTORE DUP1 PUSH1 0x5 DUP2 MSTORE PUSH1 0x20 ADD PUSH5 0x747572626F PUSH1 0xD8 SHL DUP2 MSTORE POP JUMPDEST PUSH1 0x40 MLOAD PUSH12 0xFFFFFFFFFFFFFFFFFFFFFFFF NOT PUSH1 0x60 DUP12 SWAP1 SHL AND PUSH1 0x20 DUP3 ADD MSTORE TIMESTAMP PUSH1 0x34 DUP3 ADD MSTORE PUSH1 0x54 DUP2 ADD DUP9 SWAP1 MSTORE SWAP1 SWAP2 POP PUSH0 SWAP1 PUSH1 0x74 ADD PUSH1 0x40 DUP1 MLOAD PUSH1 0x1F NOT DUP2 DUP5 SUB ADD DUP2 MSTORE SWAP2 SWAP1 MSTORE DUP1 MLOAD PUSH1 0x20 SWAP1 SWAP2 ADD KECCAK256 PUSH1 0x4 DUP1 SLOAD SWAP2 SWAP3 POP PUSH0 PUSH2 0x567 DUP4 PUSH2 0x8B6 JUMP JUMPDEST SWAP2 SWAP1 POP SSTORE POP DUP4 ISZERO PUSH2 0x58B JUMPI PUSH1 0x5 DUP1 SLOAD SWAP1 PUSH0 PUSH2 0x581 DUP4 PUSH2 0x8B6 JUMP JUMPDEST SWAP2 SWAP1 POP SSTORE POP PUSH2 0x5A0 JUMP JUMPDEST PUSH1 0x6 DUP1 SLOAD SWAP1 PUSH0 PUSH2 0x59A DUP4 PUSH2 0x8B6 JUMP JUMPDEST SWAP2 SWAP1 POP SSTORE POP JUMPDEST ADDRESS PUSH1 0x1 PUSH1 0x1 PUSH1 0xA0 SHL SUB AND DUP9 DUP11 PUSH1 0x1 PUSH1 0x1 PUSH1 0xA0 SHL SUB AND PUSH32 0xFA42F85F670C1B90112A108FB51C17665B5D3CA083733628963A48E09103C732 DUP6 DUP8 PUSH3 0xFFFFFF AND DUP7 PUSH1 0x40 MLOAD PUSH2 0x5ED SWAP4 SWAP3 SWAP2 SWAP1 PUSH2 0x8DA JUMP JUMPDEST PUSH1 0x40 MLOAD DUP1 SWAP2 SUB SWAP1 LOG4 POP POP POP POP POP POP POP POP POP JUMP JUMPDEST PUSH0 SWAP2 DUP3 MSTORE PUSH1 0x20 DUP3 DUP2 MSTORE PUSH1 0x40 DUP1 DUP5 KECCAK256 PUSH1 0x1 PUSH1 0x1 PUSH1 0xA0 SHL SUB SWAP4 SWAP1 SWAP4 AND DUP5 MSTORE SWAP2 SWAP1 MSTORE SWAP1 KECCAK256 SLOAD PUSH1 0xFF AND SWAP1 JUMP JUMPDEST PUSH0 DUP3 DUP2 MSTORE PUSH1 0x20 DUP2 SWAP1 MSTORE PUSH1 0x40 SWAP1 KECCAK256 PUSH1 0x1 ADD SLOAD PUSH2 0x642 DUP2 PUSH2 0x64C JUMP JUMPDEST PUSH2 0x33D DUP4 DUP4 PUSH2 0x6E8 JUMP JUMPDEST PUSH2 0x656 DUP2 CALLER PUSH2 0x751 JUMP JUMPDEST POP JUMP JUMPDEST PUSH0 PUSH2 0x664 DUP4 DUP4 PUSH2 0x600 JUMP JUMPDEST PUSH2 0x6E1 JUMPI PUSH0 DUP4 DUP2 MSTORE PUSH1 0x20 DUP2 DUP2 MSTORE PUSH1 0x40 DUP1 DUP4 KECCAK256 PUSH1 0x1 PUSH1 0x1 PUSH1 0xA0 SHL SUB DUP7 AND DUP5 MSTORE SWAP1 SWAP2 MSTORE SWAP1 KECCAK256 DUP1 SLOAD PUSH1 0xFF NOT AND PUSH1 0x1 OR SWAP1 SSTORE PUSH2 0x699 CALLER SWAP1 JUMP JUMPDEST PUSH1 0x1 PUSH1 0x1 PUSH1 0xA0 SHL SUB AND DUP3 PUSH1 0x1 PUSH1 0x1 PUSH1 0xA0 SHL SUB AND DUP5 PUSH32 0x2F8788117E7EFF1D82E926EC794901D17C78024A50270940304540A733656F0D PUSH1 0x40 MLOAD PUSH1 0x40 MLOAD DUP1 SWAP2 SUB SWAP1 LOG4 POP PUSH1 0x1 PUSH2 0x313 JUMP JUMPDEST POP PUSH0 PUSH2 0x313 JUMP JUMPDEST PUSH0 PUSH2 0x6F3 DUP4 DUP4 PUSH2 0x600 JUMP JUMPDEST ISZERO PUSH2 0x6E1 JUMPI PUSH0 DUP4 DUP2 MSTORE PUSH1 0x20 DUP2 DUP2 MSTORE PUSH1 0x40 DUP1 DUP4 KECCAK256 PUSH1 0x1 PUSH1 0x1 PUSH1 0xA0 SHL SUB DUP7 AND DUP1 DUP6 MSTORE SWAP3 MSTORE DUP1 DUP4 KECCAK256 DUP1 SLOAD PUSH1 0xFF NOT AND SWAP1 SSTORE MLOAD CALLER SWAP3 DUP7 SWAP2 PUSH32 0xF6391F5C32D9C69D2A47EA670B442974B53935D1EDC7FD64EB21E047A839171B SWAP2 SWAP1 LOG4 POP PUSH1 0x1 PUSH2 0x313 JUMP JUMPDEST PUSH2 0x75B DUP3 DUP3 PUSH2 0x600 JUMP JUMPDEST PUSH2 0x78E JUMPI PUSH1 0x40 MLOAD PUSH4 0xE2517D3F PUSH1 0xE0 SHL DUP2 MSTORE PUSH1 0x1 PUSH1 0x1 PUSH1 0xA0 SHL SUB DUP3 AND PUSH1 0x4 DUP3 ADD MSTORE PUSH1 0x24 DUP2 ADD DUP4 SWAP1 MSTORE PUSH1 0x44 ADD PUSH1 0x40 MLOAD DUP1 SWAP2 SUB SWAP1 REVERT JUMPDEST POP POP JUMP JUMPDEST PUSH0 PUSH1 0x20 DUP3 DUP5 SUB SLT ISZERO PUSH2 0x7A2 JUMPI PUSH0 PUSH0 REVERT JUMPDEST DUP2 CALLDATALOAD PUSH1 0x1 PUSH1 0x1 PUSH1 0xE0 SHL SUB NOT DUP2 AND DUP2 EQ PUSH2 0x7B9 JUMPI PUSH0 PUSH0 REVERT JUMPDEST SWAP4 SWAP3 POP POP POP JUMP JUMPDEST PUSH0 PUSH1 0x20 DUP3 DUP5 SUB SLT ISZERO PUSH2 0x7D0 JUMPI PUSH0 PUSH0 REVERT JUMPDEST POP CALLDATALOAD SWAP2 SWAP1 POP JUMP JUMPDEST DUP1 CALLDATALOAD PUSH1 0x1 PUSH1 0x1 PUSH1 0xA0 SHL SUB DUP2 AND DUP2 EQ PUSH2 0x7ED JUMPI PUSH0 PUSH0 REVERT JUMPDEST SWAP2 SWAP1 POP JUMP JUMPDEST PUSH0 PUSH0 PUSH1 0x40 DUP4 DUP6 SUB SLT ISZERO PUSH2 0x803 JUMPI PUSH0 PUSH0 REVERT JUMPDEST DUP3 CALLDATALOAD SWAP2 POP PUSH2 0x813 PUSH1 0x20 DUP5 ADD PUSH2 0x7D7 JUMP JUMPDEST SWAP1 POP SWAP3 POP SWAP3 SWAP1 POP JUMP JUMPDEST DUP1 CALLDATALOAD PUSH3 0xFFFFFF DUP2 AND DUP2 EQ PUSH2 0x7ED JUMPI PUSH0 PUSH0 REVERT JUMPDEST PUSH0 PUSH0 PUSH0 PUSH0 PUSH1 0x80 DUP6 DUP8 SUB SLT ISZERO PUSH2 0x841 JUMPI PUSH0 PUSH0 REVERT JUMPDEST DUP5 CALLDATALOAD SWAP4 POP PUSH2 0x851 PUSH1 0x20 DUP7 ADD PUSH2 0x81C JUMP JUMPDEST SWAP3 POP PUSH2 0x85F PUSH1 0x40 DUP7 ADD PUSH2 0x81C JUMP JUMPDEST SWAP4 SWAP7 SWAP3 SWAP6 POP SWAP3 SWAP4 PUSH1 0x60 ADD CALLDATALOAD SWAP3 POP POP JUMP JUMPDEST PUSH0 PUSH0 PUSH0 PUSH1 0x60 DUP5 DUP7 SUB SLT ISZERO PUSH2 0x881 JUMPI PUSH0 PUSH0 REVERT JUMPDEST PUSH2 0x88A DUP5 PUSH2 0x7D7 JUMP JUMPDEST SWAP6 PUSH1 0x20 DUP6 ADD CALLDATALOAD SWAP6 POP PUSH1 0x40 SWAP1 SWAP5 ADD CALLDATALOAD SWAP4 SWAP3 POP POP POP JUMP JUMPDEST PUSH0 PUSH1 0x20 DUP3 DUP5 SUB SLT ISZERO PUSH2 0x8AF JUMPI PUSH0 PUSH0 REVERT JUMPDEST POP MLOAD SWAP2 SWAP1 POP JUMP JUMPDEST PUSH0 PUSH1 0x1 DUP3 ADD PUSH2 0x8D3 JUMPI PUSH4 0x4E487B71 PUSH1 0xE0 SHL PUSH0 MSTORE PUSH1 0x11 PUSH1 0x4 MSTORE PUSH1 0x24 PUSH0 REVERT JUMPDEST POP PUSH1 0x1 ADD SWAP1 JUMP JUMPDEST PUSH1 0x60 DUP2 MSTORE PUSH0 DUP5 MLOAD DUP1 PUSH1 0x60 DUP5 ADD MSTORE DUP1 PUSH1 0x20 DUP8 ADD PUSH1 0x80 DUP6 ADD MCOPY PUSH0 PUSH1 0x80 DUP3 DUP6 ADD ADD MSTORE PUSH1 0x80 PUSH1 0x1F NOT PUSH1 0x1F DUP4 ADD AND DUP5 ADD ADD SWAP2 POP POP DUP4 PUSH1 0x20 DUP4 ADD MSTORE DUP3 PUSH1 0x40 DUP4 ADD MSTORE SWAP5 SWAP4 POP POP POP POP JUMP INVALID LOG2 PUSH5 0x6970667358 0x22 SLT KECCAK256 0xBE 0xE3 0xE9 ADDRESS CREATE 0xAE SELFBALANCE DUP6 PREVRANDAO LOG0 0xCA PUSH4 0xD08FFEB1 0xC9 0xD6 0xCC DUP5 PUSH17 0xB484616EDE254C466400CC64736F6C6343 STOP ADDMOD SHL STOP CALLER "},"methodIdentifiers":{"DEFAULT_ADMIN_ROLE()":"a217fddf","HOOK_OPERATOR_ROLE()":"034003fc","fullFee()":"0d116d6a","fullSwaps()":"20f58d82","getRoleAdmin(bytes32)":"248a9ca3","getStats()":"c59d4847","grantRole(bytes32,address)":"2f2ff15d","hasRole(bytes32,address)":"91d14854","minTTTBalance()":"c6e75bee","renounceRole(bytes32,address)":"36568abe","revokeRole(bytes32,address)":"d547741f","setFeeConfig(uint256,uint24,uint24,uint256)":"5d667ae2","supportsInterface(bytes4)":"01ffc9a7","totalSwaps()":"b4a800ce","ttt()":"d59809c5","tttTokenId()":"f2cba57f","turboFee()":"513a0b41","turboSwaps()":"bb89ff47","verifySwap(address,bytes32,int256)":"848f82b3"}}}}}