{"@uniswap/v4-core/src/libraries/LPFeeLibrary.sol":{"LPFeeLibrary":{"abi":[{"inputs":[{"internalType":"uint24","name":"fee","type":"uint24"}],"name":"LPFeeTooLarge","type":"error"},{"inputs":[],"name":"DYNAMIC_FEE_FLAG","outputs":[{"internalType":"uint24","name":"","type":"uint24"}],"stateMutability":"view","type":"function"},{"inputs":[],"name":"MAX_LP_FEE","outputs":[{"internalType":"uint24","name":"","type":"uint24"}],"stateMutability":"view","type":"function"},{"inputs":[],"name":"OVERRIDE_FEE_FLAG","outputs":[{"internalType":"uint24","name":"","type":"uint24"}],"stateMutability":"view","type":"function"},{"inputs":[],"name":"REMOVE_OVERRIDE_MASK","outputs":[{"internalType":"uint24","name":"","type":"uint24"}],"stateMutability":"view","type":"function"}],"evm":{"bytecode":{"linkReferences":{},"object":"60c66032600b8282823980515f1a607314602657634e487b7160e01b5f525f60045260245ffd5b305f52607381538281f3fe73000000000000000000000000000000000000000030146080604052600436106050575f3560e01c80633b01d64d1460545780633fc48eba1460755780636f95ebcf14607e578063f26ef49d146087575b5f5ffd5b605d6240000081565b60405162ffffff909116815260200160405180910390f35b605d620f424081565b605d62bfffff81565b605d628000008156fea2646970667358221220a1ede31d48fa4b7f778253f5812f2cbc0383a1873b196f99e3928254da93b0ee64736f6c634300081b0033","opcodes":"PUSH1 0xC6 PUSH1 0x32 PUSH1 0xB DUP3 DUP3 DUP3 CODECOPY DUP1 MLOAD PUSH0 BYTE PUSH1 0x73 EQ PUSH1 0x26 JUMPI PUSH4 0x4E487B71 PUSH1 0xE0 SHL PUSH0 MSTORE PUSH0 PUSH1 0x4 MSTORE PUSH1 0x24 PUSH0 REVERT JUMPDEST ADDRESS PUSH0 MSTORE PUSH1 0x73 DUP2 MSTORE8 DUP3 DUP2 RETURN INVALID PUSH20 0x0 ADDRESS EQ PUSH1 0x80 PUSH1 0x40 MSTORE PUSH1 0x4 CALLDATASIZE LT PUSH1 0x50 JUMPI PUSH0 CALLDATALOAD PUSH1 0xE0 SHR DUP1 PUSH4 0x3B01D64D EQ PUSH1 0x54 JUMPI DUP1 PUSH4 0x3FC48EBA EQ PUSH1 0x75 JUMPI DUP1 PUSH4 0x6F95EBCF EQ PUSH1 0x7E JUMPI DUP1 PUSH4 0xF26EF49D EQ PUSH1 0x87 JUMPI JUMPDEST PUSH0 PUSH0 REVERT JUMPDEST PUSH1 0x5D PUSH3 0x400000 DUP2 JUMP JUMPDEST PUSH1 0x40 MLOAD PUSH3 0xFFFFFF SWAP1 SWAP2 AND DUP2 MSTORE PUSH1 0x20 ADD PUSH1 0x40 MLOAD DUP1 SWAP2 SUB SWAP1 RETURN JUMPDEST PUSH1 0x5D PUSH3 0xF4240 DUP2 JUMP JUMPDEST PUSH1 0x5D PUSH3 0xBFFFFF DUP2 JUMP JUMPDEST PUSH1 0x5D PUSH3 0x800000 DUP2 JUMP INVALID LOG2 PUSH5 0x6970667358 0x22 SLT KECCAK256 LOG1 0xED 0xE3 SAR BASEFEE STATICCALL 0x4B PUSH32 0x778253F5812F2CBC0383A1873B196F99E3928254DA93B0EE64736F6C63430008 SHL STOP CALLER "},"methodIdentifiers":{"DYNAMIC_FEE_FLAG()":"f26ef49d","MAX_LP_FEE()":"3fc48eba","OVERRIDE_FEE_FLAG()":"3b01d64d","REMOVE_OVERRIDE_MASK()":"6f95ebcf"}}}}}