{"contracts/TTTHook.sol":{"TTTHook":{"abi":[{"inputs":[{"internalType":"contract IPoolManager","name":"_manager","type":"address"},{"internalType":"address","name":"_ttt","type":"address"},{"internalType":"uint256","name":"_minBalance","type":"uint256"},{"internalType":"uint24","name":"_turboFee","type":"uint24"},{"internalType":"uint24","name":"_fullFee","type":"uint24"}],"stateMutability":"nonpayable","type":"constructor"},{"inputs":[],"name":"AccessControlBadConfirmation","type":"error"},{"inputs":[{"internalType":"address","name":"account","type":"address"},{"internalType":"bytes32","name":"neededRole","type":"bytes32"}],"name":"AccessControlUnauthorizedAccount","type":"error"},{"inputs":[{"internalType":"uint24","name":"fee","type":"uint24"}],"name":"FeeTooLarge","type":"error"},{"inputs":[],"name":"HookNotImplemented","type":"error"},{"inputs":[],"name":"NotPoolManager","type":"error"},{"inputs":[],"name":"ZeroAddress","type":"error"},{"anonymous":false,"inputs":[{"indexed":false,"internalType":"uint256","name":"minTTTBalance","type":"uint256"},{"indexed":false,"internalType":"uint24","name":"turboFee","type":"uint24"},{"indexed":false,"internalType":"uint24","name":"fullFee","type":"uint24"},{"indexed":false,"internalType":"uint256","name":"tttTokenId","type":"uint256"}],"name":"FeeConfigUpdated","type":"event"},{"anonymous":false,"inputs":[{"indexed":true,"internalType":"bytes32","name":"role","type":"bytes32"},{"indexed":true,"internalType":"bytes32","name":"previousAdminRole","type":"bytes32"},{"indexed":true,"internalType":"bytes32","name":"newAdminRole","type":"bytes32"}],"name":"RoleAdminChanged","type":"event"},{"anonymous":false,"inputs":[{"indexed":true,"internalType":"bytes32","name":"role","type":"bytes32"},{"indexed":true,"internalType":"address","name":"account","type":"address"},{"indexed":true,"internalType":"address","name":"sender","type":"address"}],"name":"RoleGranted","type":"event"},{"anonymous":false,"inputs":[{"indexed":true,"internalType":"bytes32","name":"role","type":"bytes32"},{"indexed":true,"internalType":"address","name":"account","type":"address"},{"indexed":true,"internalType":"address","name":"sender","type":"address"}],"name":"RoleRevoked","type":"event"},{"anonymous":false,"inputs":[{"indexed":true,"internalType":"address","name":"sender","type":"address"},{"indexed":false,"internalType":"bool","name":"isTurbo","type":"bool"},{"indexed":false,"internalType":"uint256","name":"fee","type":"uint256"},{"indexed":false,"internalType":"bytes32","name":"potHash","type":"bytes32"}],"name":"SwapVerified","type":"event"},{"inputs":[],"name":"DEFAULT_ADMIN_ROLE","outputs":[{"internalType":"bytes32","name":"","type":"bytes32"}],"stateMutability":"view","type":"function"},{"inputs":[],"name":"HOOK_OPERATOR_ROLE","outputs":[{"internalType":"bytes32","name":"","type":"bytes32"}],"stateMutability":"view","type":"function"},{"inputs":[{"internalType":"address","name":"sender","type":"address"},{"components":[{"internalType":"Currency","name":"currency0","type":"address"},{"internalType":"Currency","name":"currency1","type":"address"},{"internalType":"uint24","name":"fee","type":"uint24"},{"internalType":"int24","name":"tickSpacing","type":"int24"},{"internalType":"contract IHooks","name":"hooks","type":"address"}],"internalType":"struct PoolKey","name":"key","type":"tuple"},{"components":[{"internalType":"int24","name":"tickLower","type":"int24"},{"internalType":"int24","name":"tickUpper","type":"int24"},{"internalType":"int256","name":"liquidityDelta","type":"int256"},{"internalType":"bytes32","name":"salt","type":"bytes32"}],"internalType":"struct ModifyLiquidityParams","name":"params","type":"tuple"},{"internalType":"BalanceDelta","name":"delta","type":"int256"},{"internalType":"BalanceDelta","name":"feesAccrued","type":"int256"},{"internalType":"bytes","name":"hookData","type":"bytes"}],"name":"afterAddLiquidity","outputs":[{"internalType":"bytes4","name":"","type":"bytes4"},{"internalType":"BalanceDelta","name":"","type":"int256"}],"stateMutability":"nonpayable","type":"function"},{"inputs":[{"internalType":"address","name":"sender","type":"address"},{"components":[{"internalType":"Currency","name":"currency0","type":"address"},{"internalType":"Currency","name":"currency1","type":"address"},{"internalType":"uint24","name":"fee","type":"uint24"},{"internalType":"int24","name":"tickSpacing","type":"int24"},{"internalType":"contract IHooks","name":"hooks","type":"address"}],"internalType":"struct PoolKey","name":"key","type":"tuple"},{"internalType":"uint256","name":"amount0","type":"uint256"},{"internalType":"uint256","name":"amount1","type":"uint256"},{"internalType":"bytes","name":"hookData","type":"bytes"}],"name":"afterDonate","outputs":[{"internalType":"bytes4","name":"","type":"bytes4"}],"stateMutability":"nonpayable","type":"function"},{"inputs":[{"internalType":"address","name":"sender","type":"address"},{"components":[{"internalType":"Currency","name":"currency0","type":"address"},{"internalType":"Currency","name":"currency1","type":"address"},{"internalType":"uint24","name":"fee","type":"uint24"},{"internalType":"int24","name":"tickSpacing","type":"int24"},{"internalType":"contract IHooks","name":"hooks","type":"address"}],"internalType":"struct PoolKey","name":"key","type":"tuple"},{"internalType":"uint160","name":"sqrtPriceX96","type":"uint160"},{"internalType":"int24","name":"tick","type":"int24"}],"name":"afterInitialize","outputs":[{"internalType":"bytes4","name":"","type":"bytes4"}],"stateMutability":"nonpayable","type":"function"},{"inputs":[{"internalType":"address","name":"sender","type":"address"},{"components":[{"internalType":"Currency","name":"currency0","type":"address"},{"internalType":"Currency","name":"currency1","type":"address"},{"internalType":"uint24","name":"fee","type":"uint24"},{"internalType":"int24","name":"tickSpacing","type":"int24"},{"internalType":"contract IHooks","name":"hooks","type":"address"}],"internalType":"struct PoolKey","name":"key","type":"tuple"},{"components":[{"internalType":"int24","name":"tickLower","type":"int24"},{"internalType":"int24","name":"tickUpper","type":"int24"},{"internalType":"int256","name":"liquidityDelta","type":"int256"},{"internalType":"bytes32","name":"salt","type":"bytes32"}],"internalType":"struct ModifyLiquidityParams","name":"params","type":"tuple"},{"internalType":"BalanceDelta","name":"delta","type":"int256"},{"internalType":"BalanceDelta","name":"feesAccrued","type":"int256"},{"internalType":"bytes","name":"hookData","type":"bytes"}],"name":"afterRemoveLiquidity","outputs":[{"internalType":"bytes4","name":"","type":"bytes4"},{"internalType":"BalanceDelta","name":"","type":"int256"}],"stateMutability":"nonpayable","type":"function"},{"inputs":[{"internalType":"address","name":"sender","type":"address"},{"components":[{"internalType":"Currency","name":"currency0","type":"address"},{"internalType":"Currency","name":"currency1","type":"address"},{"internalType":"uint24","name":"fee","type":"uint24"},{"internalType":"int24","name":"tickSpacing","type":"int24"},{"internalType":"contract IHooks","name":"hooks","type":"address"}],"internalType":"struct PoolKey","name":"key","type":"tuple"},{"components":[{"internalType":"bool","name":"zeroForOne","type":"bool"},{"internalType":"int256","name":"amountSpecified","type":"int256"},{"internalType":"uint160","name":"sqrtPriceLimitX96","type":"uint160"}],"internalType":"struct SwapParams","name":"params","type":"tuple"},{"internalType":"BalanceDelta","name":"delta","type":"int256"},{"internalType":"bytes","name":"hookData","type":"bytes"}],"name":"afterSwap","outputs":[{"internalType":"bytes4","name":"","type":"bytes4"},{"internalType":"int128","name":"","type":"int128"}],"stateMutability":"nonpayable","type":"function"},{"inputs":[{"internalType":"address","name":"sender","type":"address"},{"components":[{"internalType":"Currency","name":"currency0","type":"address"},{"internalType":"Currency","name":"currency1","type":"address"},{"internalType":"uint24","name":"fee","type":"uint24"},{"internalType":"int24","name":"tickSpacing","type":"int24"},{"internalType":"contract IHooks","name":"hooks","type":"address"}],"internalType":"struct PoolKey","name":"key","type":"tuple"},{"components":[{"internalType":"int24","name":"tickLower","type":"int24"},{"internalType":"int24","name":"tickUpper","type":"int24"},{"internalType":"int256","name":"liquidityDelta","type":"int256"},{"internalType":"bytes32","name":"salt","type":"bytes32"}],"internalType":"struct ModifyLiquidityParams","name":"params","type":"tuple"},{"internalType":"bytes","name":"hookData","type":"bytes"}],"name":"beforeAddLiquidity","outputs":[{"internalType":"bytes4","name":"","type":"bytes4"}],"stateMutability":"nonpayable","type":"function"},{"inputs":[{"internalType":"address","name":"sender","type":"address"},{"components":[{"internalType":"Currency","name":"currency0","type":"address"},{"internalType":"Currency","name":"currency1","type":"address"},{"internalType":"uint24","name":"fee","type":"uint24"},{"internalType":"int24","name":"tickSpacing","type":"int24"},{"internalType":"contract IHooks","name":"hooks","type":"address"}],"internalType":"struct PoolKey","name":"key","type":"tuple"},{"internalType":"uint256","name":"amount0","type":"uint256"},{"internalType":"uint256","name":"amount1","type":"uint256"},{"internalType":"bytes","name":"hookData","type":"bytes"}],"name":"beforeDonate","outputs":[{"internalType":"bytes4","name":"","type":"bytes4"}],"stateMutability":"nonpayable","type":"function"},{"inputs":[{"internalType":"address","name":"sender","type":"address"},{"components":[{"internalType":"Currency","name":"currency0","type":"address"},{"internalType":"Currency","name":"currency1","type":"address"},{"internalType":"uint24","name":"fee","type":"uint24"},{"internalType":"int24","name":"tickSpacing","type":"int24"},{"internalType":"contract IHooks","name":"hooks","type":"address"}],"internalType":"struct PoolKey","name":"key","type":"tuple"},{"internalType":"uint160","name":"sqrtPriceX96","type":"uint160"}],"name":"beforeInitialize","outputs":[{"internalType":"bytes4","name":"","type":"bytes4"}],"stateMutability":"nonpayable","type":"function"},{"inputs":[{"internalType":"address","name":"sender","type":"address"},{"components":[{"internalType":"Currency","name":"currency0","type":"address"},{"internalType":"Currency","name":"currency1","type":"address"},{"internalType":"uint24","name":"fee","type":"uint24"},{"internalType":"int24","name":"tickSpacing","type":"int24"},{"internalType":"contract IHooks","name":"hooks","type":"address"}],"internalType":"struct PoolKey","name":"key","type":"tuple"},{"components":[{"internalType":"int24","name":"tickLower","type":"int24"},{"internalType":"int24","name":"tickUpper","type":"int24"},{"internalType":"int256","name":"liquidityDelta","type":"int256"},{"internalType":"bytes32","name":"salt","type":"bytes32"}],"internalType":"struct ModifyLiquidityParams","name":"params","type":"tuple"},{"internalType":"bytes","name":"hookData","type":"bytes"}],"name":"beforeRemoveLiquidity","outputs":[{"internalType":"bytes4","name":"","type":"bytes4"}],"stateMutability":"nonpayable","type":"function"},{"inputs":[{"internalType":"address","name":"sender","type":"address"},{"components":[{"internalType":"Currency","name":"currency0","type":"address"},{"internalType":"Currency","name":"currency1","type":"address"},{"internalType":"uint24","name":"fee","type":"uint24"},{"internalType":"int24","name":"tickSpacing","type":"int24"},{"internalType":"contract IHooks","name":"hooks","type":"address"}],"internalType":"struct PoolKey","name":"key","type":"tuple"},{"components":[{"internalType":"bool","name":"zeroForOne","type":"bool"},{"internalType":"int256","name":"amountSpecified","type":"int256"},{"internalType":"uint160","name":"sqrtPriceLimitX96","type":"uint160"}],"internalType":"struct SwapParams","name":"params","type":"tuple"},{"internalType":"bytes","name":"hookData","type":"bytes"}],"name":"beforeSwap","outputs":[{"internalType":"bytes4","name":"","type":"bytes4"},{"internalType":"BeforeSwapDelta","name":"","type":"int256"},{"internalType":"uint24","name":"","type":"uint24"}],"stateMutability":"nonpayable","type":"function"},{"inputs":[],"name":"fullFee","outputs":[{"internalType":"uint24","name":"","type":"uint24"}],"stateMutability":"view","type":"function"},{"inputs":[],"name":"getHookPermissions","outputs":[{"components":[{"internalType":"bool","name":"beforeInitialize","type":"bool"},{"internalType":"bool","name":"afterInitialize","type":"bool"},{"internalType":"bool","name":"beforeAddLiquidity","type":"bool"},{"internalType":"bool","name":"afterAddLiquidity","type":"bool"},{"internalType":"bool","name":"beforeRemoveLiquidity","type":"bool"},{"internalType":"bool","name":"afterRemoveLiquidity","type":"bool"},{"internalType":"bool","name":"beforeSwap","type":"bool"},{"internalType":"bool","name":"afterSwap","type":"bool"},{"internalType":"bool","name":"beforeDonate","type":"bool"},{"internalType":"bool","name":"afterDonate","type":"bool"},{"internalType":"bool","name":"beforeSwapReturnDelta","type":"bool"},{"internalType":"bool","name":"afterSwapReturnDelta","type":"bool"},{"internalType":"bool","name":"afterAddLiquidityReturnDelta","type":"bool"},{"internalType":"bool","name":"afterRemoveLiquidityReturnDelta","type":"bool"}],"internalType":"struct Hooks.Permissions","name":"","type":"tuple"}],"stateMutability":"pure","type":"function"},{"inputs":[{"internalType":"bytes32","name":"role","type":"bytes32"}],"name":"getRoleAdmin","outputs":[{"internalType":"bytes32","name":"","type":"bytes32"}],"stateMutability":"view","type":"function"},{"inputs":[{"internalType":"bytes32","name":"role","type":"bytes32"},{"internalType":"address","name":"account","type":"address"}],"name":"grantRole","outputs":[],"stateMutability":"nonpayable","type":"function"},{"inputs":[{"internalType":"bytes32","name":"role","type":"bytes32"},{"internalType":"address","name":"account","type":"address"}],"name":"hasRole","outputs":[{"internalType":"bool","name":"","type":"bool"}],"stateMutability":"view","type":"function"},{"inputs":[],"name":"minTTTBalance","outputs":[{"internalType":"uint256","name":"","type":"uint256"}],"stateMutability":"view","type":"function"},{"inputs":[],"name":"poolManager","outputs":[{"internalType":"contract IPoolManager","name":"","type":"address"}],"stateMutability":"view","type":"function"},{"inputs":[{"internalType":"bytes32","name":"role","type":"bytes32"},{"internalType":"address","name":"callerConfirmation","type":"address"}],"name":"renounceRole","outputs":[],"stateMutability":"nonpayable","type":"function"},{"inputs":[{"internalType":"bytes32","name":"role","type":"bytes32"},{"internalType":"address","name":"account","type":"address"}],"name":"revokeRole","outputs":[],"stateMutability":"nonpayable","type":"function"},{"inputs":[{"internalType":"uint256","name":"_minBalance","type":"uint256"},{"internalType":"uint24","name":"_turboFee","type":"uint24"},{"internalType":"uint24","name":"_fullFee","type":"uint24"},{"internalType":"uint256","name":"_tttTokenId","type":"uint256"}],"name":"setFeeConfig","outputs":[],"stateMutability":"nonpayable","type":"function"},{"inputs":[{"internalType":"bytes4","name":"interfaceId","type":"bytes4"}],"name":"supportsInterface","outputs":[{"internalType":"bool","name":"","type":"bool"}],"stateMutability":"view","type":"function"},{"inputs":[],"name":"ttt","outputs":[{"internalType":"contract IERC1155","name":"","type":"address"}],"stateMutability":"view","type":"function"},{"inputs":[],"name":"tttTokenId","outputs":[{"internalType":"uint256","name":"","type":"uint256"}],"stateMutability":"view","type":"function"},{"inputs":[],"name":"turboFee","outputs":[{"internalType":"uint24","name":"","type":"uint24"}],"stateMutability":"view","type":"function"}],"evm":{"bytecode":{"linkReferences":{},"object":"60c060405234801561000f575f5ffd5b5060405161196438038061196483398101604081905261002e91610479565b6001600160a01b038516608052846100453061014d565b506001600160a01b03841661006d5760405163d92e233d60e01b815260040160405180910390fd5b620f424062ffffff831611156100a257604051635630c0f760e11b815262ffffff831660048201526024015b60405180910390fd5b620f424062ffffff821611156100d257604051635630c0f760e11b815262ffffff82166004820152602401610099565b6001600160a01b03841660a0525f600181905560028490556003805462ffffff84811663010000000265ffffffffffff19909216908616171790556101179033610240565b506101427f31178abb9fd04b197098d2d73fd8b7e906460b75713e526ab738912b1968eede33610240565b5050505050506104d9565b61023d81610238604080516101c0810182525f80825260208201819052918101829052606081018290526080810182905260a0810182905260c0810182905260e08101829052610100810182905261012081018290526101408101829052610160810182905261018081018290526101a081019190915250604080516101c0810182525f80825260208201819052918101829052606081018290526080810182905260a08101829052600160c0820181905260e0820152610100810182905261012081018290526101408101829052610160810182905261018081018290526101a081019190915290565b6102e9565b50565b5f828152602081815260408083206001600160a01b038516845290915281205460ff166102e0575f838152602081815260408083206001600160a01b03861684529091529020805460ff191660011790556102983390565b6001600160a01b0316826001600160a01b0316847f2f8788117e7eff1d82e926ec794901d17c78024a50270940304540a733656f0d60405160405180910390a45060016102e3565b505f5b92915050565b805115156120008316151514158061030d5750602081015115156110008316151514155b806103245750604081015115156108008316151514155b8061033b5750606081015115156104008316151514155b806103525750608081015115156102008316151514155b80610369575060a081015115156101008316151514155b8061037f575060c0810151151560808316151514155b80610395575060e0810151151560408316151514155b806103ac5750610100810151151560208316151514155b806103c35750610120810151151560108316151514155b806103da5750610140810151151560088316151514155b806103f15750610160810151151560048316151514155b806104085750610180810151151560028316151514155b8061041f57506101a0810151151560018316151514155b1561043557610435630732d7b560e51b83610439565b5050565b815f526001600160a01b03811660045260245ffd5b6001600160a01b038116811461023d575f5ffd5b805162ffffff81168114610474575f5ffd5b919050565b5f5f5f5f5f60a0868803121561048d575f5ffd5b85516104988161044e565b60208701519095506104a98161044e565b604087015190945092506104bf60608701610462565b91506104cd60808701610462565b90509295509295909350565b60805160a0516114246105405f395f81816104a601528181610b0601528181610c3b0152610dcc01525f81816104e50152818161053f015281816106040152818161077d015281816107e60152818161086e015281816108d5015261095c01526114245ff3fe608060405234801561000f575f5ffd5b5060043610610187575f3560e01c806391d14854116100d9578063c6e75bee11610093578063dc4c90d31161006e578063dc4c90d3146104e0578063dc98354e14610507578063e1b4af691461037e578063f2cba57f1461051a575f5ffd5b8063c6e75bee14610485578063d547741f1461048e578063d59809c5146104a1575f5ffd5b806391d148541461032e5780639f063efc146102e8578063a217fddf14610341578063b47b2fb114610348578063b6a8b0fa1461037e578063c4e833ce14610391575f5ffd5b80632f2ff15d11610144578063575e24b41161011f578063575e24b4146102975780635d667ae2146102d55780636c2bbe7e146102e85780636fe7e6eb1461031b575f5ffd5b80632f2ff15d1461026057806336568abe14610275578063513a0b4114610288575f5ffd5b806301ffc9a71461018b578063034003fc146101b35780630d116d6a146101e857806321d0ee7014610212578063248a9ca31461023e578063259982e514610212575b5f5ffd5b61019e610199366004610e7f565b610523565b60405190151581526020015b60405180910390f35b6101da7f31178abb9fd04b197098d2d73fd8b7e906460b75713e526ab738912b1968eede81565b6040519081526020016101aa565b6003546101fe906301000000900462ffffff1681565b60405162ffffff90911681526020016101aa565b610225610220366004610f2c565b610533565b6040516001600160e01b031990911681526020016101aa565b6101da61024c366004610fa3565b5f9081526020819052604090206001015490565b61027361026e366004610fba565b610594565b005b610273610283366004610fba565b6105be565b6003546101fe9062ffffff1681565b6102aa6102a5366004610ff8565b6105f6565b604080516001600160e01b03199094168452602084019290925262ffffff16908201526060016101aa565b6102736102e3366004611069565b610660565b6102fb6102f63660046110aa565b610770565b604080516001600160e01b031990931683526020830191909152016101aa565b610225610329366004611135565b6107da565b61019e61033c366004610fba565b610839565b6101da5f81565b61035b610356366004611194565b610861565b604080516001600160e01b03199093168352600f9190910b6020830152016101aa565b61022561038c366004611215565b6108c9565b610478604080516101c0810182525f80825260208201819052918101829052606081018290526080810182905260a0810182905260c0810182905260e08101829052610100810182905261012081018290526101408101829052610160810182905261018081018290526101a081019190915250604080516101c0810182525f80825260208201819052918101829052606081018290526080810182905260a08101829052600160c0820181905260e0820152610100810182905261012081018290526101408101829052610160810182905261018081018290526101a081019190915290565b6040516101aa919061126f565b6101da60025481565b61027361049c366004610fba565b61092c565b6104c87f000000000000000000000000000000000000000000000000000000000000000081565b6040516001600160a01b0390911681526020016101aa565b6104c87f000000000000000000000000000000000000000000000000000000000000000081565b610225610515366004611390565b610950565b6101da60015481565b5f61052d826109ad565b92915050565b5f336001600160a01b037f0000000000000000000000000000000000000000000000000000000000000000161461057d5760405163570c108560e11b815260040160405180910390fd5b61058a86868686866109e1565b9695505050505050565b5f828152602081905260409020600101546105ae816109fb565b6105b88383610a08565b50505050565b6001600160a01b03811633146105e75760405163334bd91960e11b815260040160405180910390fd5b6105f18282610a97565b505050565b5f8080336001600160a01b037f000000000000000000000000000000000000000000000000000000000000000016146106425760405163570c108560e11b815260040160405180910390fd5b61064f8888888888610b00565b925092509250955095509592505050565b7f31178abb9fd04b197098d2d73fd8b7e906460b75713e526ab738912b1968eede61068a816109fb565b620f424062ffffff851611156106bf57604051635630c0f760e11b815262ffffff851660048201526024015b60405180910390fd5b620f424062ffffff841611156106ef57604051635630c0f760e11b815262ffffff841660048201526024016106b6565b60028590556003805462ffffff86811665ffffffffffff1990921682176301000000918716918202179092556001849055604080518881526020810192909252810191909152606081018390527f823850ab0250469b6ff3e1d54b101a96583b0958a1caa5feb4bebe2fa3edc0c79060800160405180910390a15050505050565b5f80336001600160a01b037f000000000000000000000000000000000000000000000000000000000000000016146107bb5760405163570c108560e11b815260040160405180910390fd5b6107ca89898989898989610bf1565b9150915097509795505050505050565b5f336001600160a01b037f000000000000000000000000000000000000000000000000000000000000000016146108245760405163570c108560e11b815260040160405180910390fd5b610830858585856109e1565b95945050505050565b5f918252602082815260408084206001600160a01b0393909316845291905290205460ff1690565b5f80336001600160a01b037f000000000000000000000000000000000000000000000000000000000000000016146108ac5760405163570c108560e11b815260040160405180910390fd5b6108ba888888888888610c0c565b91509150965096945050505050565b5f336001600160a01b037f000000000000000000000000000000000000000000000000000000000000000016146109135760405163570c108560e11b815260040160405180910390fd5b6109218787878787876109e1565b979650505050505050565b5f82815260208190526040902060010154610946816109fb565b6105b88383610a97565b5f336001600160a01b037f0000000000000000000000000000000000000000000000000000000000000000161461099a5760405163570c108560e11b815260040160405180910390fd5b6109a58484846109e1565b949350505050565b5f6001600160e01b03198216637965db0b60e01b148061052d57506301ffc9a760e01b6001600160e01b031983161461052d565b5f604051630a85dc2960e01b815260040160405180910390fd5b610a058133610e42565b50565b5f610a138383610839565b610a90575f838152602081815260408083206001600160a01b03861684529091529020805460ff19166001179055610a483390565b6001600160a01b0316826001600160a01b0316847f2f8788117e7eff1d82e926ec794901d17c78024a50270940304540a733656f0d60405160405180910390a450600161052d565b505f61052d565b5f610aa28383610839565b15610a90575f838152602081815260408083206001600160a01b0386168085529252808320805460ff1916905551339286917ff6391f5c32d9c69d2a47ea670b442974b53935d1edc7fd64eb21e047a839171b9190a450600161052d565b5f5f5f5f7f00000000000000000000000000000000000000000000000000000000000000006001600160a01b031662fdd58e8a6001546040518363ffffffff1660e01b8152600401610b679291906001600160a01b03929092168252602082015260400190565b602060405180830381865afa158015610b82573d5f5f3e3d5ffd5b505050506040513d601f19601f82011682018060405250810190610ba691906113d7565b90505f600254821015610bc7576003546301000000900462ffffff16610bd0565b60035462ffffff165b6315d7892d60e21b95505f9450624000001792505050955095509592505050565b5f5f604051630a85dc2960e01b815260040160405180910390fd5b600154604051627eeac760e11b81526001600160a01b03888116600483015260248201929092525f91829182917f0000000000000000000000000000000000000000000000000000000000000000169062fdd58e90604401602060405180830381865afa158015610c7f573d5f5f3e3d5ffd5b505050506040513d601f19601f82011682018060405250810190610ca391906113d7565b6002549091508110155f81610cc6576003546301000000900462ffffff16610ccf565b60035462ffffff165b6040516bffffffffffffffffffffffff1960608e901b166020820152426034820152605481018a90529091505f9060740160408051601f198184030181528282528051602091820120861515845262ffffff86169184019190915290820181905291506001600160a01b038d16907f80d1d5eba83cd466202d16a683fe0a031a9a93d7f9a3cc529e2a2ff1bef93ed19060600160405180910390a26040516bffffffffffffffffffffffff1960608e901b1660208201524360348201525f9060540160408051808303601f1901815290829052805160209091012063743090b360e11b8252436004830152602482018190526044820184905291507f00000000000000000000000000000000000000000000000000000000000000006001600160a01b03169063e8612166906064015f604051808303815f87803b158015610e15575f5ffd5b505af1925050508015610e26575060015b505063b47b2fb160e01b9c5f9c509a5050505050505050505050565b610e4c8282610839565b610e7b5760405163e2517d3f60e01b81526001600160a01b0382166004820152602481018390526044016106b6565b5050565b5f60208284031215610e8f575f5ffd5b81356001600160e01b031981168114610ea6575f5ffd5b9392505050565b6001600160a01b0381168114610a05575f5ffd5b5f60a08284031215610ed1575f5ffd5b50919050565b5f60808284031215610ed1575f5ffd5b5f5f83601f840112610ef7575f5ffd5b50813567ffffffffffffffff811115610f0e575f5ffd5b602083019150836020828501011115610f25575f5ffd5b9250929050565b5f5f5f5f5f6101608688031215610f41575f5ffd5b8535610f4c81610ead565b9450610f5b8760208801610ec1565b9350610f6a8760c08801610ed7565b925061014086013567ffffffffffffffff811115610f86575f5ffd5b610f9288828901610ee7565b969995985093965092949392505050565b5f60208284031215610fb3575f5ffd5b5035919050565b5f5f60408385031215610fcb575f5ffd5b823591506020830135610fdd81610ead565b809150509250929050565b5f60608284031215610ed1575f5ffd5b5f5f5f5f5f610140868803121561100d575f5ffd5b853561101881610ead565b94506110278760208801610ec1565b93506110368760c08801610fe8565b925061012086013567ffffffffffffffff811115610f86575f5ffd5b803562ffffff81168114611064575f5ffd5b919050565b5f5f5f5f6080858703121561107c575f5ffd5b8435935061108c60208601611052565b925061109a60408601611052565b9396929550929360600135925050565b5f5f5f5f5f5f5f6101a0888a0312156110c1575f5ffd5b87356110cc81610ead565b96506110db8960208a01610ec1565b95506110ea8960c08a01610ed7565b94506101408801359350610160880135925061018088013567ffffffffffffffff811115611116575f5ffd5b6111228a828b01610ee7565b989b979a50959850939692959293505050565b5f5f5f5f6101008587031215611149575f5ffd5b843561115481610ead565b93506111638660208701610ec1565b925060c085013561117381610ead565b915060e0850135600281900b8114611189575f5ffd5b939692955090935050565b5f5f5f5f5f5f61016087890312156111aa575f5ffd5b86356111b581610ead565b95506111c48860208901610ec1565b94506111d38860c08901610fe8565b9350610120870135925061014087013567ffffffffffffffff8111156111f7575f5ffd5b61120389828a01610ee7565b979a9699509497509295939492505050565b5f5f5f5f5f5f610120878903121561122b575f5ffd5b863561123681610ead565b95506112458860208901610ec1565b945060c0870135935060e0870135925061010087013567ffffffffffffffff8111156111f7575f5ffd5b8151151581526101c08101602083015161128d602084018215159052565b5060408301516112a1604084018215159052565b5060608301516112b5606084018215159052565b5060808301516112c9608084018215159052565b5060a08301516112dd60a084018215159052565b5060c08301516112f160c084018215159052565b5060e083015161130560e084018215159052565b5061010083015161131b61010084018215159052565b5061012083015161133161012084018215159052565b5061014083015161134761014084018215159052565b5061016083015161135d61016084018215159052565b5061018083015161137361018084018215159052565b506101a08301516113896101a084018215159052565b5092915050565b5f5f5f60e084860312156113a2575f5ffd5b83356113ad81610ead565b92506113bc8560208601610ec1565b915060c08401356113cc81610ead565b809150509250925092565b5f602082840312156113e7575f5ffd5b505191905056fea2646970667358221220feb0f57821aae1c8d626dcb21670bc01e8b1a6f8b0d98ece0b2cc8b862b4c66264736f6c634300081b0033","opcodes":"PUSH1 0xC0 PUSH1 0x40 MSTORE CALLVALUE DUP1 ISZERO PUSH2 0xF JUMPI PUSH0 PUSH0 REVERT JUMPDEST POP PUSH1 0x40 MLOAD PUSH2 0x1964 CODESIZE SUB DUP1 PUSH2 0x1964 DUP4 CODECOPY DUP2 ADD PUSH1 0x40 DUP2 SWAP1 MSTORE PUSH2 0x2E SWAP2 PUSH2 0x479 JUMP JUMPDEST PUSH1 0x1 PUSH1 0x1 PUSH1 0xA0 SHL SUB DUP6 AND PUSH1 0x80 MSTORE DUP5 PUSH2 0x45 ADDRESS PUSH2 0x14D JUMP JUMPDEST POP PUSH1 0x1 PUSH1 0x1 PUSH1 0xA0 SHL SUB DUP5 AND PUSH2 0x6D JUMPI PUSH1 0x40 MLOAD PUSH4 0xD92E233D PUSH1 0xE0 SHL DUP2 MSTORE PUSH1 0x4 ADD PUSH1 0x40 MLOAD DUP1 SWAP2 SUB SWAP1 REVERT JUMPDEST PUSH3 0xF4240 PUSH3 0xFFFFFF DUP4 AND GT ISZERO PUSH2 0xA2 JUMPI PUSH1 0x40 MLOAD PUSH4 0x5630C0F7 PUSH1 0xE1 SHL DUP2 MSTORE PUSH3 0xFFFFFF DUP4 AND PUSH1 0x4 DUP3 ADD MSTORE PUSH1 0x24 ADD JUMPDEST PUSH1 0x40 MLOAD DUP1 SWAP2 SUB SWAP1 REVERT JUMPDEST PUSH3 0xF4240 PUSH3 0xFFFFFF DUP3 AND GT ISZERO PUSH2 0xD2 JUMPI PUSH1 0x40 MLOAD PUSH4 0x5630C0F7 PUSH1 0xE1 SHL DUP2 MSTORE PUSH3 0xFFFFFF DUP3 AND PUSH1 0x4 DUP3 ADD MSTORE PUSH1 0x24 ADD PUSH2 0x99 JUMP JUMPDEST PUSH1 0x1 PUSH1 0x1 PUSH1 0xA0 SHL SUB DUP5 AND PUSH1 0xA0 MSTORE PUSH0 PUSH1 0x1 DUP2 SWAP1 SSTORE PUSH1 0x2 DUP5 SWAP1 SSTORE PUSH1 0x3 DUP1 SLOAD PUSH3 0xFFFFFF DUP5 DUP2 AND PUSH4 0x1000000 MUL PUSH6 0xFFFFFFFFFFFF NOT SWAP1 SWAP3 AND SWAP1 DUP7 AND OR OR SWAP1 SSTORE PUSH2 0x117 SWAP1 CALLER PUSH2 0x240 JUMP JUMPDEST POP PUSH2 0x142 PUSH32 0x31178ABB9FD04B197098D2D73FD8B7E906460B75713E526AB738912B1968EEDE CALLER PUSH2 0x240 JUMP JUMPDEST POP POP POP POP POP POP PUSH2 0x4D9 JUMP JUMPDEST PUSH2 0x23D DUP2 PUSH2 0x238 PUSH1 0x40 DUP1 MLOAD PUSH2 0x1C0 DUP2 ADD DUP3 MSTORE PUSH0 DUP1 DUP3 MSTORE PUSH1 0x20 DUP3 ADD DUP2 SWAP1 MSTORE SWAP2 DUP2 ADD DUP3 SWAP1 MSTORE PUSH1 0x60 DUP2 ADD DUP3 SWAP1 MSTORE PUSH1 0x80 DUP2 ADD DUP3 SWAP1 MSTORE PUSH1 0xA0 DUP2 ADD DUP3 SWAP1 MSTORE PUSH1 0xC0 DUP2 ADD DUP3 SWAP1 MSTORE PUSH1 0xE0 DUP2 ADD DUP3 SWAP1 MSTORE PUSH2 0x100 DUP2 ADD DUP3 SWAP1 MSTORE PUSH2 0x120 DUP2 ADD DUP3 SWAP1 MSTORE PUSH2 0x140 DUP2 ADD DUP3 SWAP1 MSTORE PUSH2 0x160 DUP2 ADD DUP3 SWAP1 MSTORE PUSH2 0x180 DUP2 ADD DUP3 SWAP1 MSTORE PUSH2 0x1A0 DUP2 ADD SWAP2 SWAP1 SWAP2 MSTORE POP PUSH1 0x40 DUP1 MLOAD PUSH2 0x1C0 DUP2 ADD DUP3 MSTORE PUSH0 DUP1 DUP3 MSTORE PUSH1 0x20 DUP3 ADD DUP2 SWAP1 MSTORE SWAP2 DUP2 ADD DUP3 SWAP1 MSTORE PUSH1 0x60 DUP2 ADD DUP3 SWAP1 MSTORE PUSH1 0x80 DUP2 ADD DUP3 SWAP1 MSTORE PUSH1 0xA0 DUP2 ADD DUP3 SWAP1 MSTORE PUSH1 0x1 PUSH1 0xC0 DUP3 ADD DUP2 SWAP1 MSTORE PUSH1 0xE0 DUP3 ADD MSTORE PUSH2 0x100 DUP2 ADD DUP3 SWAP1 MSTORE PUSH2 0x120 DUP2 ADD DUP3 SWAP1 MSTORE PUSH2 0x140 DUP2 ADD DUP3 SWAP1 MSTORE PUSH2 0x160 DUP2 ADD DUP3 SWAP1 MSTORE PUSH2 0x180 DUP2 ADD DUP3 SWAP1 MSTORE PUSH2 0x1A0 DUP2 ADD SWAP2 SWAP1 SWAP2 MSTORE SWAP1 JUMP JUMPDEST PUSH2 0x2E9 JUMP JUMPDEST POP JUMP JUMPDEST PUSH0 DUP3 DUP2 MSTORE PUSH1 0x20 DUP2 DUP2 MSTORE PUSH1 0x40 DUP1 DUP4 KECCAK256 PUSH1 0x1 PUSH1 0x1 PUSH1 0xA0 SHL SUB DUP6 AND DUP5 MSTORE SWAP1 SWAP2 MSTORE DUP2 KECCAK256 SLOAD PUSH1 0xFF AND PUSH2 0x2E0 JUMPI PUSH0 DUP4 DUP2 MSTORE PUSH1 0x20 DUP2 DUP2 MSTORE PUSH1 0x40 DUP1 DUP4 KECCAK256 PUSH1 0x1 PUSH1 0x1 PUSH1 0xA0 SHL SUB DUP7 AND DUP5 MSTORE SWAP1 SWAP2 MSTORE SWAP1 KECCAK256 DUP1 SLOAD PUSH1 0xFF NOT AND PUSH1 0x1 OR SWAP1 SSTORE PUSH2 0x298 CALLER SWAP1 JUMP JUMPDEST PUSH1 0x1 PUSH1 0x1 PUSH1 0xA0 SHL SUB AND DUP3 PUSH1 0x1 PUSH1 0x1 PUSH1 0xA0 SHL SUB AND DUP5 PUSH32 0x2F8788117E7EFF1D82E926EC794901D17C78024A50270940304540A733656F0D PUSH1 0x40 MLOAD PUSH1 0x40 MLOAD DUP1 SWAP2 SUB SWAP1 LOG4 POP PUSH1 0x1 PUSH2 0x2E3 JUMP JUMPDEST POP PUSH0 JUMPDEST SWAP3 SWAP2 POP POP JUMP JUMPDEST DUP1 MLOAD ISZERO ISZERO PUSH2 0x2000 DUP4 AND ISZERO ISZERO EQ ISZERO DUP1 PUSH2 0x30D JUMPI POP PUSH1 0x20 DUP2 ADD MLOAD ISZERO ISZERO PUSH2 0x1000 DUP4 AND ISZERO ISZERO EQ ISZERO JUMPDEST DUP1 PUSH2 0x324 JUMPI POP PUSH1 0x40 DUP2 ADD MLOAD ISZERO ISZERO PUSH2 0x800 DUP4 AND ISZERO ISZERO EQ ISZERO JUMPDEST DUP1 PUSH2 0x33B JUMPI POP PUSH1 0x60 DUP2 ADD MLOAD ISZERO ISZERO PUSH2 0x400 DUP4 AND ISZERO ISZERO EQ ISZERO JUMPDEST DUP1 PUSH2 0x352 JUMPI POP PUSH1 0x80 DUP2 ADD MLOAD ISZERO ISZERO PUSH2 0x200 DUP4 AND ISZERO ISZERO EQ ISZERO JUMPDEST DUP1 PUSH2 0x369 JUMPI POP PUSH1 0xA0 DUP2 ADD MLOAD ISZERO ISZERO PUSH2 0x100 DUP4 AND ISZERO ISZERO EQ ISZERO JUMPDEST DUP1 PUSH2 0x37F JUMPI POP PUSH1 0xC0 DUP2 ADD MLOAD ISZERO ISZERO PUSH1 0x80 DUP4 AND ISZERO ISZERO EQ ISZERO JUMPDEST DUP1 PUSH2 0x395 JUMPI POP PUSH1 0xE0 DUP2 ADD MLOAD ISZERO ISZERO PUSH1 0x40 DUP4 AND ISZERO ISZERO EQ ISZERO JUMPDEST DUP1 PUSH2 0x3AC JUMPI POP PUSH2 0x100 DUP2 ADD MLOAD ISZERO ISZERO PUSH1 0x20 DUP4 AND ISZERO ISZERO EQ ISZERO JUMPDEST DUP1 PUSH2 0x3C3 JUMPI POP PUSH2 0x120 DUP2 ADD MLOAD ISZERO ISZERO PUSH1 0x10 DUP4 AND ISZERO ISZERO EQ ISZERO JUMPDEST DUP1 PUSH2 0x3DA JUMPI POP PUSH2 0x140 DUP2 ADD MLOAD ISZERO ISZERO PUSH1 0x8 DUP4 AND ISZERO ISZERO EQ ISZERO JUMPDEST DUP1 PUSH2 0x3F1 JUMPI POP PUSH2 0x160 DUP2 ADD MLOAD ISZERO ISZERO PUSH1 0x4 DUP4 AND ISZERO ISZERO EQ ISZERO JUMPDEST DUP1 PUSH2 0x408 JUMPI POP PUSH2 0x180 DUP2 ADD MLOAD ISZERO ISZERO PUSH1 0x2 DUP4 AND ISZERO ISZERO EQ ISZERO JUMPDEST DUP1 PUSH2 0x41F JUMPI POP PUSH2 0x1A0 DUP2 ADD MLOAD ISZERO ISZERO PUSH1 0x1 DUP4 AND ISZERO ISZERO EQ ISZERO JUMPDEST ISZERO PUSH2 0x435 JUMPI PUSH2 0x435 PUSH4 0x732D7B5 PUSH1 0xE5 SHL DUP4 PUSH2 0x439 JUMP JUMPDEST POP POP JUMP JUMPDEST DUP2 PUSH0 MSTORE PUSH1 0x1 PUSH1 0x1 PUSH1 0xA0 SHL SUB DUP2 AND PUSH1 0x4 MSTORE PUSH1 0x24 PUSH0 REVERT JUMPDEST PUSH1 0x1 PUSH1 0x1 PUSH1 0xA0 SHL SUB DUP2 AND DUP2 EQ PUSH2 0x23D JUMPI PUSH0 PUSH0 REVERT JUMPDEST DUP1 MLOAD PUSH3 0xFFFFFF DUP2 AND DUP2 EQ PUSH2 0x474 JUMPI PUSH0 PUSH0 REVERT JUMPDEST SWAP2 SWAP1 POP JUMP JUMPDEST PUSH0 PUSH0 PUSH0 PUSH0 PUSH0 PUSH1 0xA0 DUP7 DUP9 SUB SLT ISZERO PUSH2 0x48D JUMPI PUSH0 PUSH0 REVERT JUMPDEST DUP6 MLOAD PUSH2 0x498 DUP2 PUSH2 0x44E JUMP JUMPDEST PUSH1 0x20 DUP8 ADD MLOAD SWAP1 SWAP6 POP PUSH2 0x4A9 DUP2 PUSH2 0x44E JUMP JUMPDEST PUSH1 0x40 DUP8 ADD MLOAD SWAP1 SWAP5 POP SWAP3 POP PUSH2 0x4BF PUSH1 0x60 DUP8 ADD PUSH2 0x462 JUMP JUMPDEST SWAP2 POP PUSH2 0x4CD PUSH1 0x80 DUP8 ADD PUSH2 0x462 JUMP JUMPDEST SWAP1 POP SWAP3 SWAP6 POP SWAP3 SWAP6 SWAP1 SWAP4 POP JUMP JUMPDEST PUSH1 0x80 MLOAD PUSH1 0xA0 MLOAD PUSH2 0x1424 PUSH2 0x540 PUSH0 CODECOPY PUSH0 DUP2 DUP2 PUSH2 0x4A6 ADD MSTORE DUP2 DUP2 PUSH2 0xB06 ADD MSTORE DUP2 DUP2 PUSH2 0xC3B ADD MSTORE PUSH2 0xDCC ADD MSTORE PUSH0 DUP2 DUP2 PUSH2 0x4E5 ADD MSTORE DUP2 DUP2 PUSH2 0x53F ADD MSTORE DUP2 DUP2 PUSH2 0x604 ADD MSTORE DUP2 DUP2 PUSH2 0x77D ADD MSTORE DUP2 DUP2 PUSH2 0x7E6 ADD MSTORE DUP2 DUP2 PUSH2 0x86E ADD MSTORE DUP2 DUP2 PUSH2 0x8D5 ADD MSTORE PUSH2 0x95C ADD MSTORE PUSH2 0x1424 PUSH0 RETURN INVALID PUSH1 0x80 PUSH1 0x40 MSTORE CALLVALUE DUP1 ISZERO PUSH2 0xF JUMPI PUSH0 PUSH0 REVERT JUMPDEST POP PUSH1 0x4 CALLDATASIZE LT PUSH2 0x187 JUMPI PUSH0 CALLDATALOAD PUSH1 0xE0 SHR DUP1 PUSH4 0x91D14854 GT PUSH2 0xD9 JUMPI DUP1 PUSH4 0xC6E75BEE GT PUSH2 0x93 JUMPI DUP1 PUSH4 0xDC4C90D3 GT PUSH2 0x6E JUMPI DUP1 PUSH4 0xDC4C90D3 EQ PUSH2 0x4E0 JUMPI DUP1 PUSH4 0xDC98354E EQ PUSH2 0x507 JUMPI DUP1 PUSH4 0xE1B4AF69 EQ PUSH2 0x37E JUMPI DUP1 PUSH4 0xF2CBA57F EQ PUSH2 0x51A JUMPI PUSH0 PUSH0 REVERT JUMPDEST DUP1 PUSH4 0xC6E75BEE EQ PUSH2 0x485 JUMPI DUP1 PUSH4 0xD547741F EQ PUSH2 0x48E JUMPI DUP1 PUSH4 0xD59809C5 EQ PUSH2 0x4A1 JUMPI PUSH0 PUSH0 REVERT JUMPDEST DUP1 PUSH4 0x91D14854 EQ PUSH2 0x32E JUMPI DUP1 PUSH4 0x9F063EFC EQ PUSH2 0x2E8 JUMPI DUP1 PUSH4 0xA217FDDF EQ PUSH2 0x341 JUMPI DUP1 PUSH4 0xB47B2FB1 EQ PUSH2 0x348 JUMPI DUP1 PUSH4 0xB6A8B0FA EQ PUSH2 0x37E JUMPI DUP1 PUSH4 0xC4E833CE EQ PUSH2 0x391 JUMPI PUSH0 PUSH0 REVERT JUMPDEST DUP1 PUSH4 0x2F2FF15D GT PUSH2 0x144 JUMPI DUP1 PUSH4 0x575E24B4 GT PUSH2 0x11F JUMPI DUP1 PUSH4 0x575E24B4 EQ PUSH2 0x297 JUMPI DUP1 PUSH4 0x5D667AE2 EQ PUSH2 0x2D5 JUMPI DUP1 PUSH4 0x6C2BBE7E EQ PUSH2 0x2E8 JUMPI DUP1 PUSH4 0x6FE7E6EB EQ PUSH2 0x31B JUMPI PUSH0 PUSH0 REVERT JUMPDEST DUP1 PUSH4 0x2F2FF15D EQ PUSH2 0x260 JUMPI DUP1 PUSH4 0x36568ABE EQ PUSH2 0x275 JUMPI DUP1 PUSH4 0x513A0B41 EQ PUSH2 0x288 JUMPI PUSH0 PUSH0 REVERT JUMPDEST DUP1 PUSH4 0x1FFC9A7 EQ PUSH2 0x18B JUMPI DUP1 PUSH4 0x34003FC EQ PUSH2 0x1B3 JUMPI DUP1 PUSH4 0xD116D6A EQ PUSH2 0x1E8 JUMPI DUP1 PUSH4 0x21D0EE70 EQ PUSH2 0x212 JUMPI DUP1 PUSH4 0x248A9CA3 EQ PUSH2 0x23E JUMPI DUP1 PUSH4 0x259982E5 EQ PUSH2 0x212 JUMPI JUMPDEST PUSH0 PUSH0 REVERT JUMPDEST PUSH2 0x19E PUSH2 0x199 CALLDATASIZE PUSH1 0x4 PUSH2 0xE7F JUMP JUMPDEST PUSH2 0x523 JUMP JUMPDEST PUSH1 0x40 MLOAD SWAP1 ISZERO ISZERO DUP2 MSTORE PUSH1 0x20 ADD JUMPDEST PUSH1 0x40 MLOAD DUP1 SWAP2 SUB SWAP1 RETURN JUMPDEST PUSH2 0x1DA PUSH32 0x31178ABB9FD04B197098D2D73FD8B7E906460B75713E526AB738912B1968EEDE DUP2 JUMP JUMPDEST PUSH1 0x40 MLOAD SWAP1 DUP2 MSTORE PUSH1 0x20 ADD PUSH2 0x1AA JUMP JUMPDEST PUSH1 0x3 SLOAD PUSH2 0x1FE SWAP1 PUSH4 0x1000000 SWAP1 DIV PUSH3 0xFFFFFF AND DUP2 JUMP JUMPDEST PUSH1 0x40 MLOAD PUSH3 0xFFFFFF SWAP1 SWAP2 AND DUP2 MSTORE PUSH1 0x20 ADD PUSH2 0x1AA JUMP JUMPDEST PUSH2 0x225 PUSH2 0x220 CALLDATASIZE PUSH1 0x4 PUSH2 0xF2C JUMP JUMPDEST PUSH2 0x533 JUMP JUMPDEST PUSH1 0x40 MLOAD PUSH1 0x1 PUSH1 0x1 PUSH1 0xE0 SHL SUB NOT SWAP1 SWAP2 AND DUP2 MSTORE PUSH1 0x20 ADD PUSH2 0x1AA JUMP JUMPDEST PUSH2 0x1DA PUSH2 0x24C CALLDATASIZE PUSH1 0x4 PUSH2 0xFA3 JUMP JUMPDEST PUSH0 SWAP1 DUP2 MSTORE PUSH1 0x20 DUP2 SWAP1 MSTORE PUSH1 0x40 SWAP1 KECCAK256 PUSH1 0x1 ADD SLOAD SWAP1 JUMP JUMPDEST PUSH2 0x273 PUSH2 0x26E CALLDATASIZE PUSH1 0x4 PUSH2 0xFBA JUMP JUMPDEST PUSH2 0x594 JUMP JUMPDEST STOP JUMPDEST PUSH2 0x273 PUSH2 0x283 CALLDATASIZE PUSH1 0x4 PUSH2 0xFBA JUMP JUMPDEST PUSH2 0x5BE JUMP JUMPDEST PUSH1 0x3 SLOAD PUSH2 0x1FE SWAP1 PUSH3 0xFFFFFF AND DUP2 JUMP JUMPDEST PUSH2 0x2AA PUSH2 0x2A5 CALLDATASIZE PUSH1 0x4 PUSH2 0xFF8 JUMP JUMPDEST PUSH2 0x5F6 JUMP JUMPDEST PUSH1 0x40 DUP1 MLOAD PUSH1 0x1 PUSH1 0x1 PUSH1 0xE0 SHL SUB NOT SWAP1 SWAP5 AND DUP5 MSTORE PUSH1 0x20 DUP5 ADD SWAP3 SWAP1 SWAP3 MSTORE PUSH3 0xFFFFFF AND SWAP1 DUP3 ADD MSTORE PUSH1 0x60 ADD PUSH2 0x1AA JUMP JUMPDEST PUSH2 0x273 PUSH2 0x2E3 CALLDATASIZE PUSH1 0x4 PUSH2 0x1069 JUMP JUMPDEST PUSH2 0x660 JUMP JUMPDEST PUSH2 0x2FB PUSH2 0x2F6 CALLDATASIZE PUSH1 0x4 PUSH2 0x10AA JUMP JUMPDEST PUSH2 0x770 JUMP JUMPDEST PUSH1 0x40 DUP1 MLOAD PUSH1 0x1 PUSH1 0x1 PUSH1 0xE0 SHL SUB NOT SWAP1 SWAP4 AND DUP4 MSTORE PUSH1 0x20 DUP4 ADD SWAP2 SWAP1 SWAP2 MSTORE ADD PUSH2 0x1AA JUMP JUMPDEST PUSH2 0x225 PUSH2 0x329 CALLDATASIZE PUSH1 0x4 PUSH2 0x1135 JUMP JUMPDEST PUSH2 0x7DA JUMP JUMPDEST PUSH2 0x19E PUSH2 0x33C CALLDATASIZE PUSH1 0x4 PUSH2 0xFBA JUMP JUMPDEST PUSH2 0x839 JUMP JUMPDEST PUSH2 0x1DA PUSH0 DUP2 JUMP JUMPDEST PUSH2 0x35B PUSH2 0x356 CALLDATASIZE PUSH1 0x4 PUSH2 0x1194 JUMP JUMPDEST PUSH2 0x861 JUMP JUMPDEST PUSH1 0x40 DUP1 MLOAD PUSH1 0x1 PUSH1 0x1 PUSH1 0xE0 SHL SUB NOT SWAP1 SWAP4 AND DUP4 MSTORE PUSH1 0xF SWAP2 SWAP1 SWAP2 SIGNEXTEND PUSH1 0x20 DUP4 ADD MSTORE ADD PUSH2 0x1AA JUMP JUMPDEST PUSH2 0x225 PUSH2 0x38C CALLDATASIZE PUSH1 0x4 PUSH2 0x1215 JUMP JUMPDEST PUSH2 0x8C9 JUMP JUMPDEST PUSH2 0x478 PUSH1 0x40 DUP1 MLOAD PUSH2 0x1C0 DUP2 ADD DUP3 MSTORE PUSH0 DUP1 DUP3 MSTORE PUSH1 0x20 DUP3 ADD DUP2 SWAP1 MSTORE SWAP2 DUP2 ADD DUP3 SWAP1 MSTORE PUSH1 0x60 DUP2 ADD DUP3 SWAP1 MSTORE PUSH1 0x80 DUP2 ADD DUP3 SWAP1 MSTORE PUSH1 0xA0 DUP2 ADD DUP3 SWAP1 MSTORE PUSH1 0xC0 DUP2 ADD DUP3 SWAP1 MSTORE PUSH1 0xE0 DUP2 ADD DUP3 SWAP1 MSTORE PUSH2 0x100 DUP2 ADD DUP3 SWAP1 MSTORE PUSH2 0x120 DUP2 ADD DUP3 SWAP1 MSTORE PUSH2 0x140 DUP2 ADD DUP3 SWAP1 MSTORE PUSH2 0x160 DUP2 ADD DUP3 SWAP1 MSTORE PUSH2 0x180 DUP2 ADD DUP3 SWAP1 MSTORE PUSH2 0x1A0 DUP2 ADD SWAP2 SWAP1 SWAP2 MSTORE POP PUSH1 0x40 DUP1 MLOAD PUSH2 0x1C0 DUP2 ADD DUP3 MSTORE PUSH0 DUP1 DUP3 MSTORE PUSH1 0x20 DUP3 ADD DUP2 SWAP1 MSTORE SWAP2 DUP2 ADD DUP3 SWAP1 MSTORE PUSH1 0x60 DUP2 ADD DUP3 SWAP1 MSTORE PUSH1 0x80 DUP2 ADD DUP3 SWAP1 MSTORE PUSH1 0xA0 DUP2 ADD DUP3 SWAP1 MSTORE PUSH1 0x1 PUSH1 0xC0 DUP3 ADD DUP2 SWAP1 MSTORE PUSH1 0xE0 DUP3 ADD MSTORE PUSH2 0x100 DUP2 ADD DUP3 SWAP1 MSTORE PUSH2 0x120 DUP2 ADD DUP3 SWAP1 MSTORE PUSH2 0x140 DUP2 ADD DUP3 SWAP1 MSTORE PUSH2 0x160 DUP2 ADD DUP3 SWAP1 MSTORE PUSH2 0x180 DUP2 ADD DUP3 SWAP1 MSTORE PUSH2 0x1A0 DUP2 ADD SWAP2 SWAP1 SWAP2 MSTORE SWAP1 JUMP JUMPDEST PUSH1 0x40 MLOAD PUSH2 0x1AA SWAP2 SWAP1 PUSH2 0x126F JUMP JUMPDEST PUSH2 0x1DA PUSH1 0x2 SLOAD DUP2 JUMP JUMPDEST PUSH2 0x273 PUSH2 0x49C CALLDATASIZE PUSH1 0x4 PUSH2 0xFBA JUMP JUMPDEST PUSH2 0x92C JUMP JUMPDEST PUSH2 0x4C8 PUSH32 0x0 DUP2 JUMP JUMPDEST PUSH1 0x40 MLOAD PUSH1 0x1 PUSH1 0x1 PUSH1 0xA0 SHL SUB SWAP1 SWAP2 AND DUP2 MSTORE PUSH1 0x20 ADD PUSH2 0x1AA JUMP JUMPDEST PUSH2 0x4C8 PUSH32 0x0 DUP2 JUMP JUMPDEST PUSH2 0x225 PUSH2 0x515 CALLDATASIZE PUSH1 0x4 PUSH2 0x1390 JUMP JUMPDEST PUSH2 0x950 JUMP JUMPDEST PUSH2 0x1DA PUSH1 0x1 SLOAD DUP2 JUMP JUMPDEST PUSH0 PUSH2 0x52D DUP3 PUSH2 0x9AD JUMP JUMPDEST SWAP3 SWAP2 POP POP JUMP JUMPDEST PUSH0 CALLER PUSH1 0x1 PUSH1 0x1 PUSH1 0xA0 SHL SUB PUSH32 0x0 AND EQ PUSH2 0x57D JUMPI PUSH1 0x40 MLOAD PUSH4 0x570C1085 PUSH1 0xE1 SHL DUP2 MSTORE PUSH1 0x4 ADD PUSH1 0x40 MLOAD DUP1 SWAP2 SUB SWAP1 REVERT JUMPDEST PUSH2 0x58A DUP7 DUP7 DUP7 DUP7 DUP7 PUSH2 0x9E1 JUMP JUMPDEST SWAP7 SWAP6 POP POP POP POP POP POP JUMP JUMPDEST PUSH0 DUP3 DUP2 MSTORE PUSH1 0x20 DUP2 SWAP1 MSTORE PUSH1 0x40 SWAP1 KECCAK256 PUSH1 0x1 ADD SLOAD PUSH2 0x5AE DUP2 PUSH2 0x9FB JUMP JUMPDEST PUSH2 0x5B8 DUP4 DUP4 PUSH2 0xA08 JUMP JUMPDEST POP POP POP POP JUMP JUMPDEST PUSH1 0x1 PUSH1 0x1 PUSH1 0xA0 SHL SUB DUP2 AND CALLER EQ PUSH2 0x5E7 JUMPI PUSH1 0x40 MLOAD PUSH4 0x334BD919 PUSH1 0xE1 SHL DUP2 MSTORE PUSH1 0x4 ADD PUSH1 0x40 MLOAD DUP1 SWAP2 SUB SWAP1 REVERT JUMPDEST PUSH2 0x5F1 DUP3 DUP3 PUSH2 0xA97 JUMP JUMPDEST POP POP POP JUMP JUMPDEST PUSH0 DUP1 DUP1 CALLER PUSH1 0x1 PUSH1 0x1 PUSH1 0xA0 SHL SUB PUSH32 0x0 AND EQ PUSH2 0x642 JUMPI PUSH1 0x40 MLOAD PUSH4 0x570C1085 PUSH1 0xE1 SHL DUP2 MSTORE PUSH1 0x4 ADD PUSH1 0x40 MLOAD DUP1 SWAP2 SUB SWAP1 REVERT JUMPDEST PUSH2 0x64F DUP9 DUP9 DUP9 DUP9 DUP9 PUSH2 0xB00 JUMP JUMPDEST SWAP3 POP SWAP3 POP SWAP3 POP SWAP6 POP SWAP6 POP SWAP6 SWAP3 POP POP POP JUMP JUMPDEST PUSH32 0x31178ABB9FD04B197098D2D73FD8B7E906460B75713E526AB738912B1968EEDE PUSH2 0x68A DUP2 PUSH2 0x9FB JUMP JUMPDEST PUSH3 0xF4240 PUSH3 0xFFFFFF DUP6 AND GT ISZERO PUSH2 0x6BF JUMPI PUSH1 0x40 MLOAD PUSH4 0x5630C0F7 PUSH1 0xE1 SHL DUP2 MSTORE PUSH3 0xFFFFFF DUP6 AND PUSH1 0x4 DUP3 ADD MSTORE PUSH1 0x24 ADD JUMPDEST PUSH1 0x40 MLOAD DUP1 SWAP2 SUB SWAP1 REVERT JUMPDEST PUSH3 0xF4240 PUSH3 0xFFFFFF DUP5 AND GT ISZERO PUSH2 0x6EF JUMPI PUSH1 0x40 MLOAD PUSH4 0x5630C0F7 PUSH1 0xE1 SHL DUP2 MSTORE PUSH3 0xFFFFFF DUP5 AND PUSH1 0x4 DUP3 ADD MSTORE PUSH1 0x24 ADD PUSH2 0x6B6 JUMP JUMPDEST PUSH1 0x2 DUP6 SWAP1 SSTORE PUSH1 0x3 DUP1 SLOAD PUSH3 0xFFFFFF DUP7 DUP2 AND PUSH6 0xFFFFFFFFFFFF NOT SWAP1 SWAP3 AND DUP3 OR PUSH4 0x1000000 SWAP2 DUP8 AND SWAP2 DUP3 MUL OR SWAP1 SWAP3 SSTORE PUSH1 0x1 DUP5 SWAP1 SSTORE PUSH1 0x40 DUP1 MLOAD DUP9 DUP2 MSTORE PUSH1 0x20 DUP2 ADD SWAP3 SWAP1 SWAP3 MSTORE DUP2 ADD SWAP2 SWAP1 SWAP2 MSTORE PUSH1 0x60 DUP2 ADD DUP4 SWAP1 MSTORE PUSH32 0x823850AB0250469B6FF3E1D54B101A96583B0958A1CAA5FEB4BEBE2FA3EDC0C7 SWAP1 PUSH1 0x80 ADD PUSH1 0x40 MLOAD DUP1 SWAP2 SUB SWAP1 LOG1 POP POP POP POP POP JUMP JUMPDEST PUSH0 DUP1 CALLER PUSH1 0x1 PUSH1 0x1 PUSH1 0xA0 SHL SUB PUSH32 0x0 AND EQ PUSH2 0x7BB JUMPI PUSH1 0x40 MLOAD PUSH4 0x570C1085 PUSH1 0xE1 SHL DUP2 MSTORE PUSH1 0x4 ADD PUSH1 0x40 MLOAD DUP1 SWAP2 SUB SWAP1 REVERT JUMPDEST PUSH2 0x7CA DUP10 DUP10 DUP10 DUP10 DUP10 DUP10 DUP10 PUSH2 0xBF1 JUMP JUMPDEST SWAP2 POP SWAP2 POP SWAP8 POP SWAP8 SWAP6 POP POP POP POP POP POP JUMP JUMPDEST PUSH0 CALLER PUSH1 0x1 PUSH1 0x1 PUSH1 0xA0 SHL SUB PUSH32 0x0 AND EQ PUSH2 0x824 JUMPI PUSH1 0x40 MLOAD PUSH4 0x570C1085 PUSH1 0xE1 SHL DUP2 MSTORE PUSH1 0x4 ADD PUSH1 0x40 MLOAD DUP1 SWAP2 SUB SWAP1 REVERT JUMPDEST PUSH2 0x830 DUP6 DUP6 DUP6 DUP6 PUSH2 0x9E1 JUMP JUMPDEST SWAP6 SWAP5 POP POP POP POP POP JUMP JUMPDEST PUSH0 SWAP2 DUP3 MSTORE PUSH1 0x20 DUP3 DUP2 MSTORE PUSH1 0x40 DUP1 DUP5 KECCAK256 PUSH1 0x1 PUSH1 0x1 PUSH1 0xA0 SHL SUB SWAP4 SWAP1 SWAP4 AND DUP5 MSTORE SWAP2 SWAP1 MSTORE SWAP1 KECCAK256 SLOAD PUSH1 0xFF AND SWAP1 JUMP JUMPDEST PUSH0 DUP1 CALLER PUSH1 0x1 PUSH1 0x1 PUSH1 0xA0 SHL SUB PUSH32 0x0 AND EQ PUSH2 0x8AC JUMPI PUSH1 0x40 MLOAD PUSH4 0x570C1085 PUSH1 0xE1 SHL DUP2 MSTORE PUSH1 0x4 ADD PUSH1 0x40 MLOAD DUP1 SWAP2 SUB SWAP1 REVERT JUMPDEST PUSH2 0x8BA DUP9 DUP9 DUP9 DUP9 DUP9 DUP9 PUSH2 0xC0C JUMP JUMPDEST SWAP2 POP SWAP2 POP SWAP7 POP SWAP7 SWAP5 POP POP POP POP POP JUMP JUMPDEST PUSH0 CALLER PUSH1 0x1 PUSH1 0x1 PUSH1 0xA0 SHL SUB PUSH32 0x0 AND EQ PUSH2 0x913 JUMPI PUSH1 0x40 MLOAD PUSH4 0x570C1085 PUSH1 0xE1 SHL DUP2 MSTORE PUSH1 0x4 ADD PUSH1 0x40 MLOAD DUP1 SWAP2 SUB SWAP1 REVERT JUMPDEST PUSH2 0x921 DUP8 DUP8 DUP8 DUP8 DUP8 DUP8 PUSH2 0x9E1 JUMP JUMPDEST SWAP8 SWAP7 POP POP POP POP POP POP POP JUMP JUMPDEST PUSH0 DUP3 DUP2 MSTORE PUSH1 0x20 DUP2 SWAP1 MSTORE PUSH1 0x40 SWAP1 KECCAK256 PUSH1 0x1 ADD SLOAD PUSH2 0x946 DUP2 PUSH2 0x9FB JUMP JUMPDEST PUSH2 0x5B8 DUP4 DUP4 PUSH2 0xA97 JUMP JUMPDEST PUSH0 CALLER PUSH1 0x1 PUSH1 0x1 PUSH1 0xA0 SHL SUB PUSH32 0x0 AND EQ PUSH2 0x99A JUMPI PUSH1 0x40 MLOAD PUSH4 0x570C1085 PUSH1 0xE1 SHL DUP2 MSTORE PUSH1 0x4 ADD PUSH1 0x40 MLOAD DUP1 SWAP2 SUB SWAP1 REVERT JUMPDEST PUSH2 0x9A5 DUP5 DUP5 DUP5 PUSH2 0x9E1 JUMP JUMPDEST SWAP5 SWAP4 POP POP POP POP JUMP JUMPDEST PUSH0 PUSH1 0x1 PUSH1 0x1 PUSH1 0xE0 SHL SUB NOT DUP3 AND PUSH4 0x7965DB0B PUSH1 0xE0 SHL EQ DUP1 PUSH2 0x52D JUMPI POP PUSH4 0x1FFC9A7 PUSH1 0xE0 SHL PUSH1 0x1 PUSH1 0x1 PUSH1 0xE0 SHL SUB NOT DUP4 AND EQ PUSH2 0x52D JUMP JUMPDEST PUSH0 PUSH1 0x40 MLOAD PUSH4 0xA85DC29 PUSH1 0xE0 SHL DUP2 MSTORE PUSH1 0x4 ADD PUSH1 0x40 MLOAD DUP1 SWAP2 SUB SWAP1 REVERT JUMPDEST PUSH2 0xA05 DUP2 CALLER PUSH2 0xE42 JUMP JUMPDEST POP JUMP JUMPDEST PUSH0 PUSH2 0xA13 DUP4 DUP4 PUSH2 0x839 JUMP JUMPDEST PUSH2 0xA90 JUMPI PUSH0 DUP4 DUP2 MSTORE PUSH1 0x20 DUP2 DUP2 MSTORE PUSH1 0x40 DUP1 DUP4 KECCAK256 PUSH1 0x1 PUSH1 0x1 PUSH1 0xA0 SHL SUB DUP7 AND DUP5 MSTORE SWAP1 SWAP2 MSTORE SWAP1 KECCAK256 DUP1 SLOAD PUSH1 0xFF NOT AND PUSH1 0x1 OR SWAP1 SSTORE PUSH2 0xA48 CALLER SWAP1 JUMP JUMPDEST PUSH1 0x1 PUSH1 0x1 PUSH1 0xA0 SHL SUB AND DUP3 PUSH1 0x1 PUSH1 0x1 PUSH1 0xA0 SHL SUB AND DUP5 PUSH32 0x2F8788117E7EFF1D82E926EC794901D17C78024A50270940304540A733656F0D PUSH1 0x40 MLOAD PUSH1 0x40 MLOAD DUP1 SWAP2 SUB SWAP1 LOG4 POP PUSH1 0x1 PUSH2 0x52D JUMP JUMPDEST POP PUSH0 PUSH2 0x52D JUMP JUMPDEST PUSH0 PUSH2 0xAA2 DUP4 DUP4 PUSH2 0x839 JUMP JUMPDEST ISZERO PUSH2 0xA90 JUMPI PUSH0 DUP4 DUP2 MSTORE PUSH1 0x20 DUP2 DUP2 MSTORE PUSH1 0x40 DUP1 DUP4 KECCAK256 PUSH1 0x1 PUSH1 0x1 PUSH1 0xA0 SHL SUB DUP7 AND DUP1 DUP6 MSTORE SWAP3 MSTORE DUP1 DUP4 KECCAK256 DUP1 SLOAD PUSH1 0xFF NOT AND SWAP1 SSTORE MLOAD CALLER SWAP3 DUP7 SWAP2 PUSH32 0xF6391F5C32D9C69D2A47EA670B442974B53935D1EDC7FD64EB21E047A839171B SWAP2 SWAP1 LOG4 POP PUSH1 0x1 PUSH2 0x52D JUMP JUMPDEST PUSH0 PUSH0 PUSH0 PUSH0 PUSH32 0x0 PUSH1 0x1 PUSH1 0x1 PUSH1 0xA0 SHL SUB AND PUSH3 0xFDD58E DUP11 PUSH1 0x1 SLOAD PUSH1 0x40 MLOAD DUP4 PUSH4 0xFFFFFFFF AND PUSH1 0xE0 SHL DUP2 MSTORE PUSH1 0x4 ADD PUSH2 0xB67 SWAP3 SWAP2 SWAP1 PUSH1 0x1 PUSH1 0x1 PUSH1 0xA0 SHL SUB SWAP3 SWAP1 SWAP3 AND DUP3 MSTORE PUSH1 0x20 DUP3 ADD MSTORE PUSH1 0x40 ADD SWAP1 JUMP JUMPDEST PUSH1 0x20 PUSH1 0x40 MLOAD DUP1 DUP4 SUB DUP2 DUP7 GAS STATICCALL ISZERO DUP1 ISZERO PUSH2 0xB82 JUMPI RETURNDATASIZE PUSH0 PUSH0 RETURNDATACOPY RETURNDATASIZE PUSH0 REVERT JUMPDEST POP POP POP POP PUSH1 0x40 MLOAD RETURNDATASIZE PUSH1 0x1F NOT PUSH1 0x1F DUP3 ADD AND DUP3 ADD DUP1 PUSH1 0x40 MSTORE POP DUP2 ADD SWAP1 PUSH2 0xBA6 SWAP2 SWAP1 PUSH2 0x13D7 JUMP JUMPDEST SWAP1 POP PUSH0 PUSH1 0x2 SLOAD DUP3 LT ISZERO PUSH2 0xBC7 JUMPI PUSH1 0x3 SLOAD PUSH4 0x1000000 SWAP1 DIV PUSH3 0xFFFFFF AND PUSH2 0xBD0 JUMP JUMPDEST PUSH1 0x3 SLOAD PUSH3 0xFFFFFF AND JUMPDEST PUSH4 0x15D7892D PUSH1 0xE2 SHL SWAP6 POP PUSH0 SWAP5 POP PUSH3 0x400000 OR SWAP3 POP POP POP SWAP6 POP SWAP6 POP SWAP6 SWAP3 POP POP POP JUMP JUMPDEST PUSH0 PUSH0 PUSH1 0x40 MLOAD PUSH4 0xA85DC29 PUSH1 0xE0 SHL DUP2 MSTORE PUSH1 0x4 ADD PUSH1 0x40 MLOAD DUP1 SWAP2 SUB SWAP1 REVERT JUMPDEST PUSH1 0x1 SLOAD PUSH1 0x40 MLOAD PUSH3 0x7EEAC7 PUSH1 0xE1 SHL DUP2 MSTORE PUSH1 0x1 PUSH1 0x1 PUSH1 0xA0 SHL SUB DUP9 DUP2 AND PUSH1 0x4 DUP4 ADD MSTORE PUSH1 0x24 DUP3 ADD SWAP3 SWAP1 SWAP3 MSTORE PUSH0 SWAP2 DUP3 SWAP2 DUP3 SWAP2 PUSH32 0x0 AND SWAP1 PUSH3 0xFDD58E SWAP1 PUSH1 0x44 ADD PUSH1 0x20 PUSH1 0x40 MLOAD DUP1 DUP4 SUB DUP2 DUP7 GAS STATICCALL ISZERO DUP1 ISZERO PUSH2 0xC7F JUMPI RETURNDATASIZE PUSH0 PUSH0 RETURNDATACOPY RETURNDATASIZE PUSH0 REVERT JUMPDEST POP POP POP POP PUSH1 0x40 MLOAD RETURNDATASIZE PUSH1 0x1F NOT PUSH1 0x1F DUP3 ADD AND DUP3 ADD DUP1 PUSH1 0x40 MSTORE POP DUP2 ADD SWAP1 PUSH2 0xCA3 SWAP2 SWAP1 PUSH2 0x13D7 JUMP JUMPDEST PUSH1 0x2 SLOAD SWAP1 SWAP2 POP DUP2 LT ISZERO PUSH0 DUP2 PUSH2 0xCC6 JUMPI PUSH1 0x3 SLOAD PUSH4 0x1000000 SWAP1 DIV PUSH3 0xFFFFFF AND PUSH2 0xCCF JUMP JUMPDEST PUSH1 0x3 SLOAD PUSH3 0xFFFFFF AND JUMPDEST PUSH1 0x40 MLOAD PUSH12 0xFFFFFFFFFFFFFFFFFFFFFFFF NOT PUSH1 0x60 DUP15 SWAP1 SHL AND PUSH1 0x20 DUP3 ADD MSTORE TIMESTAMP PUSH1 0x34 DUP3 ADD MSTORE PUSH1 0x54 DUP2 ADD DUP11 SWAP1 MSTORE SWAP1 SWAP2 POP PUSH0 SWAP1 PUSH1 0x74 ADD PUSH1 0x40 DUP1 MLOAD PUSH1 0x1F NOT DUP2 DUP5 SUB ADD DUP2 MSTORE DUP3 DUP3 MSTORE DUP1 MLOAD PUSH1 0x20 SWAP2 DUP3 ADD KECCAK256 DUP7 ISZERO ISZERO DUP5 MSTORE PUSH3 0xFFFFFF DUP7 AND SWAP2 DUP5 ADD SWAP2 SWAP1 SWAP2 MSTORE SWAP1 DUP3 ADD DUP2 SWAP1 MSTORE SWAP2 POP PUSH1 0x1 PUSH1 0x1 PUSH1 0xA0 SHL SUB DUP14 AND SWAP1 PUSH32 0x80D1D5EBA83CD466202D16A683FE0A031A9A93D7F9A3CC529E2A2FF1BEF93ED1 SWAP1 PUSH1 0x60 ADD PUSH1 0x40 MLOAD DUP1 SWAP2 SUB SWAP1 LOG2 PUSH1 0x40 MLOAD PUSH12 0xFFFFFFFFFFFFFFFFFFFFFFFF NOT PUSH1 0x60 DUP15 SWAP1 SHL AND PUSH1 0x20 DUP3 ADD MSTORE NUMBER PUSH1 0x34 DUP3 ADD MSTORE PUSH0 SWAP1 PUSH1 0x54 ADD PUSH1 0x40 DUP1 MLOAD DUP1 DUP4 SUB PUSH1 0x1F NOT ADD DUP2 MSTORE SWAP1 DUP3 SWAP1 MSTORE DUP1 MLOAD PUSH1 0x20 SWAP1 SWAP2 ADD KECCAK256 PUSH4 0x743090B3 PUSH1 0xE1 SHL DUP3 MSTORE NUMBER PUSH1 0x4 DUP4 ADD MSTORE PUSH1 0x24 DUP3 ADD DUP2 SWAP1 MSTORE PUSH1 0x44 DUP3 ADD DUP5 SWAP1 MSTORE SWAP2 POP PUSH32 0x0 PUSH1 0x1 PUSH1 0x1 PUSH1 0xA0 SHL SUB AND SWAP1 PUSH4 0xE8612166 SWAP1 PUSH1 0x64 ADD PUSH0 PUSH1 0x40 MLOAD DUP1 DUP4 SUB DUP2 PUSH0 DUP8 DUP1 EXTCODESIZE ISZERO DUP1 ISZERO PUSH2 0xE15 JUMPI PUSH0 PUSH0 REVERT JUMPDEST POP GAS CALL SWAP3 POP POP POP DUP1 ISZERO PUSH2 0xE26 JUMPI POP PUSH1 0x1 JUMPDEST POP POP PUSH4 0xB47B2FB1 PUSH1 0xE0 SHL SWAP13 PUSH0 SWAP13 POP SWAP11 POP POP POP POP POP POP POP POP POP POP POP JUMP JUMPDEST PUSH2 0xE4C DUP3 DUP3 PUSH2 0x839 JUMP JUMPDEST PUSH2 0xE7B JUMPI PUSH1 0x40 MLOAD PUSH4 0xE2517D3F PUSH1 0xE0 SHL DUP2 MSTORE PUSH1 0x1 PUSH1 0x1 PUSH1 0xA0 SHL SUB DUP3 AND PUSH1 0x4 DUP3 ADD MSTORE PUSH1 0x24 DUP2 ADD DUP4 SWAP1 MSTORE PUSH1 0x44 ADD PUSH2 0x6B6 JUMP JUMPDEST POP POP JUMP JUMPDEST PUSH0 PUSH1 0x20 DUP3 DUP5 SUB SLT ISZERO PUSH2 0xE8F JUMPI PUSH0 PUSH0 REVERT JUMPDEST DUP2 CALLDATALOAD PUSH1 0x1 PUSH1 0x1 PUSH1 0xE0 SHL SUB NOT DUP2 AND DUP2 EQ PUSH2 0xEA6 JUMPI PUSH0 PUSH0 REVERT JUMPDEST SWAP4 SWAP3 POP POP POP JUMP JUMPDEST PUSH1 0x1 PUSH1 0x1 PUSH1 0xA0 SHL SUB DUP2 AND DUP2 EQ PUSH2 0xA05 JUMPI PUSH0 PUSH0 REVERT JUMPDEST PUSH0 PUSH1 0xA0 DUP3 DUP5 SUB SLT ISZERO PUSH2 0xED1 JUMPI PUSH0 PUSH0 REVERT JUMPDEST POP SWAP2 SWAP1 POP JUMP JUMPDEST PUSH0 PUSH1 0x80 DUP3 DUP5 SUB SLT ISZERO PUSH2 0xED1 JUMPI PUSH0 PUSH0 REVERT JUMPDEST PUSH0 PUSH0 DUP4 PUSH1 0x1F DUP5 ADD SLT PUSH2 0xEF7 JUMPI PUSH0 PUSH0 REVERT JUMPDEST POP DUP2 CALLDATALOAD PUSH8 0xFFFFFFFFFFFFFFFF DUP2 GT ISZERO PUSH2 0xF0E JUMPI PUSH0 PUSH0 REVERT JUMPDEST PUSH1 0x20 DUP4 ADD SWAP2 POP DUP4 PUSH1 0x20 DUP3 DUP6 ADD ADD GT ISZERO PUSH2 0xF25 JUMPI PUSH0 PUSH0 REVERT JUMPDEST SWAP3 POP SWAP3 SWAP1 POP JUMP JUMPDEST PUSH0 PUSH0 PUSH0 PUSH0 PUSH0 PUSH2 0x160 DUP7 DUP9 SUB SLT ISZERO PUSH2 0xF41 JUMPI PUSH0 PUSH0 REVERT JUMPDEST DUP6 CALLDATALOAD PUSH2 0xF4C DUP2 PUSH2 0xEAD JUMP JUMPDEST SWAP5 POP PUSH2 0xF5B DUP8 PUSH1 0x20 DUP9 ADD PUSH2 0xEC1 JUMP JUMPDEST SWAP4 POP PUSH2 0xF6A DUP8 PUSH1 0xC0 DUP9 ADD PUSH2 0xED7 JUMP JUMPDEST SWAP3 POP PUSH2 0x140 DUP7 ADD CALLDATALOAD PUSH8 0xFFFFFFFFFFFFFFFF DUP2 GT ISZERO PUSH2 0xF86 JUMPI PUSH0 PUSH0 REVERT JUMPDEST PUSH2 0xF92 DUP9 DUP3 DUP10 ADD PUSH2 0xEE7 JUMP JUMPDEST SWAP7 SWAP10 SWAP6 SWAP9 POP SWAP4 SWAP7 POP SWAP3 SWAP5 SWAP4 SWAP3 POP POP POP JUMP JUMPDEST PUSH0 PUSH1 0x20 DUP3 DUP5 SUB SLT ISZERO PUSH2 0xFB3 JUMPI PUSH0 PUSH0 REVERT JUMPDEST POP CALLDATALOAD SWAP2 SWAP1 POP JUMP JUMPDEST PUSH0 PUSH0 PUSH1 0x40 DUP4 DUP6 SUB SLT ISZERO PUSH2 0xFCB JUMPI PUSH0 PUSH0 REVERT JUMPDEST DUP3 CALLDATALOAD SWAP2 POP PUSH1 0x20 DUP4 ADD CALLDATALOAD PUSH2 0xFDD DUP2 PUSH2 0xEAD JUMP JUMPDEST DUP1 SWAP2 POP POP SWAP3 POP SWAP3 SWAP1 POP JUMP JUMPDEST PUSH0 PUSH1 0x60 DUP3 DUP5 SUB SLT ISZERO PUSH2 0xED1 JUMPI PUSH0 PUSH0 REVERT JUMPDEST PUSH0 PUSH0 PUSH0 PUSH0 PUSH0 PUSH2 0x140 DUP7 DUP9 SUB SLT ISZERO PUSH2 0x100D JUMPI PUSH0 PUSH0 REVERT JUMPDEST DUP6 CALLDATALOAD PUSH2 0x1018 DUP2 PUSH2 0xEAD JUMP JUMPDEST SWAP5 POP PUSH2 0x1027 DUP8 PUSH1 0x20 DUP9 ADD PUSH2 0xEC1 JUMP JUMPDEST SWAP4 POP PUSH2 0x1036 DUP8 PUSH1 0xC0 DUP9 ADD PUSH2 0xFE8 JUMP JUMPDEST SWAP3 POP PUSH2 0x120 DUP7 ADD CALLDATALOAD PUSH8 0xFFFFFFFFFFFFFFFF DUP2 GT ISZERO PUSH2 0xF86 JUMPI PUSH0 PUSH0 REVERT JUMPDEST DUP1 CALLDATALOAD PUSH3 0xFFFFFF DUP2 AND DUP2 EQ PUSH2 0x1064 JUMPI PUSH0 PUSH0 REVERT JUMPDEST SWAP2 SWAP1 POP JUMP JUMPDEST PUSH0 PUSH0 PUSH0 PUSH0 PUSH1 0x80 DUP6 DUP8 SUB SLT ISZERO PUSH2 0x107C JUMPI PUSH0 PUSH0 REVERT JUMPDEST DUP5 CALLDATALOAD SWAP4 POP PUSH2 0x108C PUSH1 0x20 DUP7 ADD PUSH2 0x1052 JUMP JUMPDEST SWAP3 POP PUSH2 0x109A PUSH1 0x40 DUP7 ADD PUSH2 0x1052 JUMP JUMPDEST SWAP4 SWAP7 SWAP3 SWAP6 POP SWAP3 SWAP4 PUSH1 0x60 ADD CALLDATALOAD SWAP3 POP POP JUMP JUMPDEST PUSH0 PUSH0 PUSH0 PUSH0 PUSH0 PUSH0 PUSH0 PUSH2 0x1A0 DUP9 DUP11 SUB SLT ISZERO PUSH2 0x10C1 JUMPI PUSH0 PUSH0 REVERT JUMPDEST DUP8 CALLDATALOAD PUSH2 0x10CC DUP2 PUSH2 0xEAD JUMP JUMPDEST SWAP7 POP PUSH2 0x10DB DUP10 PUSH1 0x20 DUP11 ADD PUSH2 0xEC1 JUMP JUMPDEST SWAP6 POP PUSH2 0x10EA DUP10 PUSH1 0xC0 DUP11 ADD PUSH2 0xED7 JUMP JUMPDEST SWAP5 POP PUSH2 0x140 DUP9 ADD CALLDATALOAD SWAP4 POP PUSH2 0x160 DUP9 ADD CALLDATALOAD SWAP3 POP PUSH2 0x180 DUP9 ADD CALLDATALOAD PUSH8 0xFFFFFFFFFFFFFFFF DUP2 GT ISZERO PUSH2 0x1116 JUMPI PUSH0 PUSH0 REVERT JUMPDEST PUSH2 0x1122 DUP11 DUP3 DUP12 ADD PUSH2 0xEE7 JUMP JUMPDEST SWAP9 SWAP12 SWAP8 SWAP11 POP SWAP6 SWAP9 POP SWAP4 SWAP7 SWAP3 SWAP6 SWAP3 SWAP4 POP POP POP JUMP JUMPDEST PUSH0 PUSH0 PUSH0 PUSH0 PUSH2 0x100 DUP6 DUP8 SUB SLT ISZERO PUSH2 0x1149 JUMPI PUSH0 PUSH0 REVERT JUMPDEST DUP5 CALLDATALOAD PUSH2 0x1154 DUP2 PUSH2 0xEAD JUMP JUMPDEST SWAP4 POP PUSH2 0x1163 DUP7 PUSH1 0x20 DUP8 ADD PUSH2 0xEC1 JUMP JUMPDEST SWAP3 POP PUSH1 0xC0 DUP6 ADD CALLDATALOAD PUSH2 0x1173 DUP2 PUSH2 0xEAD JUMP JUMPDEST SWAP2 POP PUSH1 0xE0 DUP6 ADD CALLDATALOAD PUSH1 0x2 DUP2 SWAP1 SIGNEXTEND DUP2 EQ PUSH2 0x1189 JUMPI PUSH0 PUSH0 REVERT JUMPDEST SWAP4 SWAP7 SWAP3 SWAP6 POP SWAP1 SWAP4 POP POP JUMP JUMPDEST PUSH0 PUSH0 PUSH0 PUSH0 PUSH0 PUSH0 PUSH2 0x160 DUP8 DUP10 SUB SLT ISZERO PUSH2 0x11AA JUMPI PUSH0 PUSH0 REVERT JUMPDEST DUP7 CALLDATALOAD PUSH2 0x11B5 DUP2 PUSH2 0xEAD JUMP JUMPDEST SWAP6 POP PUSH2 0x11C4 DUP9 PUSH1 0x20 DUP10 ADD PUSH2 0xEC1 JUMP JUMPDEST SWAP5 POP PUSH2 0x11D3 DUP9 PUSH1 0xC0 DUP10 ADD PUSH2 0xFE8 JUMP JUMPDEST SWAP4 POP PUSH2 0x120 DUP8 ADD CALLDATALOAD SWAP3 POP PUSH2 0x140 DUP8 ADD CALLDATALOAD PUSH8 0xFFFFFFFFFFFFFFFF DUP2 GT ISZERO PUSH2 0x11F7 JUMPI PUSH0 PUSH0 REVERT JUMPDEST PUSH2 0x1203 DUP10 DUP3 DUP11 ADD PUSH2 0xEE7 JUMP JUMPDEST SWAP8 SWAP11 SWAP7 SWAP10 POP SWAP5 SWAP8 POP SWAP3 SWAP6 SWAP4 SWAP5 SWAP3 POP POP POP JUMP JUMPDEST PUSH0 PUSH0 PUSH0 PUSH0 PUSH0 PUSH0 PUSH2 0x120 DUP8 DUP10 SUB SLT ISZERO PUSH2 0x122B JUMPI PUSH0 PUSH0 REVERT JUMPDEST DUP7 CALLDATALOAD PUSH2 0x1236 DUP2 PUSH2 0xEAD JUMP JUMPDEST SWAP6 POP PUSH2 0x1245 DUP9 PUSH1 0x20 DUP10 ADD PUSH2 0xEC1 JUMP JUMPDEST SWAP5 POP PUSH1 0xC0 DUP8 ADD CALLDATALOAD SWAP4 POP PUSH1 0xE0 DUP8 ADD CALLDATALOAD SWAP3 POP PUSH2 0x100 DUP8 ADD CALLDATALOAD PUSH8 0xFFFFFFFFFFFFFFFF DUP2 GT ISZERO PUSH2 0x11F7 JUMPI PUSH0 PUSH0 REVERT JUMPDEST DUP2 MLOAD ISZERO ISZERO DUP2 MSTORE PUSH2 0x1C0 DUP2 ADD PUSH1 0x20 DUP4 ADD MLOAD PUSH2 0x128D PUSH1 0x20 DUP5 ADD DUP3 ISZERO ISZERO SWAP1 MSTORE JUMP JUMPDEST POP PUSH1 0x40 DUP4 ADD MLOAD PUSH2 0x12A1 PUSH1 0x40 DUP5 ADD DUP3 ISZERO ISZERO SWAP1 MSTORE JUMP JUMPDEST POP PUSH1 0x60 DUP4 ADD MLOAD PUSH2 0x12B5 PUSH1 0x60 DUP5 ADD DUP3 ISZERO ISZERO SWAP1 MSTORE JUMP JUMPDEST POP PUSH1 0x80 DUP4 ADD MLOAD PUSH2 0x12C9 PUSH1 0x80 DUP5 ADD DUP3 ISZERO ISZERO SWAP1 MSTORE JUMP JUMPDEST POP PUSH1 0xA0 DUP4 ADD MLOAD PUSH2 0x12DD PUSH1 0xA0 DUP5 ADD DUP3 ISZERO ISZERO SWAP1 MSTORE JUMP JUMPDEST POP PUSH1 0xC0 DUP4 ADD MLOAD PUSH2 0x12F1 PUSH1 0xC0 DUP5 ADD DUP3 ISZERO ISZERO SWAP1 MSTORE JUMP JUMPDEST POP PUSH1 0xE0 DUP4 ADD MLOAD PUSH2 0x1305 PUSH1 0xE0 DUP5 ADD DUP3 ISZERO ISZERO SWAP1 MSTORE JUMP JUMPDEST POP PUSH2 0x100 DUP4 ADD MLOAD PUSH2 0x131B PUSH2 0x100 DUP5 ADD DUP3 ISZERO ISZERO SWAP1 MSTORE JUMP JUMPDEST POP PUSH2 0x120 DUP4 ADD MLOAD PUSH2 0x1331 PUSH2 0x120 DUP5 ADD DUP3 ISZERO ISZERO SWAP1 MSTORE JUMP JUMPDEST POP PUSH2 0x140 DUP4 ADD MLOAD PUSH2 0x1347 PUSH2 0x140 DUP5 ADD DUP3 ISZERO ISZERO SWAP1 MSTORE JUMP JUMPDEST POP PUSH2 0x160 DUP4 ADD MLOAD PUSH2 0x135D PUSH2 0x160 DUP5 ADD DUP3 ISZERO ISZERO SWAP1 MSTORE JUMP JUMPDEST POP PUSH2 0x180 DUP4 ADD MLOAD PUSH2 0x1373 PUSH2 0x180 DUP5 ADD DUP3 ISZERO ISZERO SWAP1 MSTORE JUMP JUMPDEST POP PUSH2 0x1A0 DUP4 ADD MLOAD PUSH2 0x1389 PUSH2 0x1A0 DUP5 ADD DUP3 ISZERO ISZERO SWAP1 MSTORE JUMP JUMPDEST POP SWAP3 SWAP2 POP POP JUMP JUMPDEST PUSH0 PUSH0 PUSH0 PUSH1 0xE0 DUP5 DUP7 SUB SLT ISZERO PUSH2 0x13A2 JUMPI PUSH0 PUSH0 REVERT JUMPDEST DUP4 CALLDATALOAD PUSH2 0x13AD DUP2 PUSH2 0xEAD JUMP JUMPDEST SWAP3 POP PUSH2 0x13BC DUP6 PUSH1 0x20 DUP7 ADD PUSH2 0xEC1 JUMP JUMPDEST SWAP2 POP PUSH1 0xC0 DUP5 ADD CALLDATALOAD PUSH2 0x13CC DUP2 PUSH2 0xEAD JUMP JUMPDEST DUP1 SWAP2 POP POP SWAP3 POP SWAP3 POP SWAP3 JUMP JUMPDEST PUSH0 PUSH1 0x20 DUP3 DUP5 SUB SLT ISZERO PUSH2 0x13E7 JUMPI PUSH0 PUSH0 REVERT JUMPDEST POP MLOAD SWAP2 SWAP1 POP JUMP INVALID LOG2 PUSH5 0x6970667358 0x22 SLT KECCAK256 INVALID 0xB0 CREATE2 PUSH25 0x21AAE1C8D626DCB21670BC01E8B1A6F8B0D98ECE0B2CC8B862 0xB4 0xC6 PUSH3 0x64736F PUSH13 0x634300081B0033000000000000 "},"methodIdentifiers":{"DEFAULT_ADMIN_ROLE()":"a217fddf","HOOK_OPERATOR_ROLE()":"034003fc","afterAddLiquidity(address,(address,address,uint24,int24,address),(int24,int24,int256,bytes32),int256,int256,bytes)":"9f063efc","afterDonate(address,(address,address,uint24,int24,address),uint256,uint256,bytes)":"e1b4af69","afterInitialize(address,(address,address,uint24,int24,address),uint160,int24)":"6fe7e6eb","afterRemoveLiquidity(address,(address,address,uint24,int24,address),(int24,int24,int256,bytes32),int256,int256,bytes)":"6c2bbe7e","afterSwap(address,(address,address,uint24,int24,address),(bool,int256,uint160),int256,bytes)":"b47b2fb1","beforeAddLiquidity(address,(address,address,uint24,int24,address),(int24,int24,int256,bytes32),bytes)":"259982e5","beforeDonate(address,(address,address,uint24,int24,address),uint256,uint256,bytes)":"b6a8b0fa","beforeInitialize(address,(address,address,uint24,int24,address),uint160)":"dc98354e","beforeRemoveLiquidity(address,(address,address,uint24,int24,address),(int24,int24,int256,bytes32),bytes)":"21d0ee70","beforeSwap(address,(address,address,uint24,int24,address),(bool,int256,uint160),bytes)":"575e24b4","fullFee()":"0d116d6a","getHookPermissions()":"c4e833ce","getRoleAdmin(bytes32)":"248a9ca3","grantRole(bytes32,address)":"2f2ff15d","hasRole(bytes32,address)":"91d14854","minTTTBalance()":"c6e75bee","poolManager()":"dc4c90d3","renounceRole(bytes32,address)":"36568abe","revokeRole(bytes32,address)":"d547741f","setFeeConfig(uint256,uint24,uint24,uint256)":"5d667ae2","supportsInterface(bytes4)":"01ffc9a7","ttt()":"d59809c5","tttTokenId()":"f2cba57f","turboFee()":"513a0b41"}}}}}