{
  "_format": "hh-sol-artifact-1",
  "contractName": "TTTToken",
  "sourceName": "contracts/TTTToken.sol",
  "abi": [
    {
      "inputs": [],
      "stateMutability": "nonpayable",
      "type": "constructor"
    },
    {
      "inputs": [
        {
          "internalType": "address",
          "name": "spender",
          "type": "address"
        },
        {
          "internalType": "uint256",
          "name": "allowance",
          "type": "uint256"
        },
        {
          "internalType": "uint256",
          "name": "needed",
          "type": "uint256"
        }
      ],
      "name": "ERC20InsufficientAllowance",
      "type": "error"
    },
    {
      "inputs": [
        {
          "internalType": "address",
          "name": "sender",
          "type": "address"
        },
        {
          "internalType": "uint256",
          "name": "balance",
          "type": "uint256"
        },
        {
          "internalType": "uint256",
          "name": "needed",
          "type": "uint256"
        }
      ],
      "name": "ERC20InsufficientBalance",
      "type": "error"
    },
    {
      "inputs": [
        {
          "internalType": "address",
          "name": "approver",
          "type": "address"
        }
      ],
      "name": "ERC20InvalidApprover",
      "type": "error"
    },
    {
      "inputs": [
        {
          "internalType": "address",
          "name": "receiver",
          "type": "address"
        }
      ],
      "name": "ERC20InvalidReceiver",
      "type": "error"
    },
    {
      "inputs": [
        {
          "internalType": "address",
          "name": "sender",
          "type": "address"
        }
      ],
      "name": "ERC20InvalidSender",
      "type": "error"
    },
    {
      "inputs": [
        {
          "internalType": "address",
          "name": "spender",
          "type": "address"
        }
      ],
      "name": "ERC20InvalidSpender",
      "type": "error"
    },
    {
      "inputs": [],
      "name": "EnforcedPause",
      "type": "error"
    },
    {
      "inputs": [],
      "name": "ExpectedPause",
      "type": "error"
    },
    {
      "inputs": [
        {
          "internalType": "address",
          "name": "owner",
          "type": "address"
        }
      ],
      "name": "OwnableInvalidOwner",
      "type": "error"
    },
    {
      "inputs": [
        {
          "internalType": "address",
          "name": "account",
          "type": "address"
        }
      ],
      "name": "OwnableUnauthorizedAccount",
      "type": "error"
    },
    {
      "anonymous": false,
      "inputs": [
        {
          "indexed": true,
          "internalType": "address",
          "name": "owner",
          "type": "address"
        },
        {
          "indexed": true,
          "internalType": "address",
          "name": "spender",
          "type": "address"
        },
        {
          "indexed": false,
          "internalType": "uint256",
          "name": "value",
          "type": "uint256"
        }
      ],
      "name": "Approval",
      "type": "event"
    },
    {
      "anonymous": false,
      "inputs": [
        {
          "indexed": true,
          "internalType": "address",
          "name": "previousOwner",
          "type": "address"
        },
        {
          "indexed": true,
          "internalType": "address",
          "name": "newOwner",
          "type": "address"
        }
      ],
      "name": "OwnershipTransferred",
      "type": "event"
    },
    {
      "anonymous": false,
      "inputs": [
        {
          "indexed": false,
          "internalType": "address",
          "name": "account",
          "type": "address"
        }
      ],
      "name": "Paused",
      "type": "event"
    },
    {
      "anonymous": false,
      "inputs": [
        {
          "indexed": true,
          "internalType": "uint64",
          "name": "timestamp",
          "type": "uint64"
        },
        {
          "indexed": false,
          "internalType": "bytes32",
          "name": "grgHash",
          "type": "bytes32"
        },
        {
          "indexed": false,
          "internalType": "uint8",
          "name": "stratum",
          "type": "uint8"
        },
        {
          "indexed": false,
          "internalType": "bytes32",
          "name": "potHash",
          "type": "bytes32"
        }
      ],
      "name": "PoTAnchored",
      "type": "event"
    },
    {
      "anonymous": false,
      "inputs": [
        {
          "indexed": true,
          "internalType": "address",
          "name": "from",
          "type": "address"
        },
        {
          "indexed": false,
          "internalType": "uint256",
          "name": "amount",
          "type": "uint256"
        },
        {
          "indexed": false,
          "internalType": "uint256",
          "name": "recordId",
          "type": "uint256"
        },
        {
          "indexed": false,
          "internalType": "enum TTTToken.ResolutionTier",
          "name": "tier",
          "type": "uint8"
        },
        {
          "indexed": false,
          "internalType": "uint256",
          "name": "timestamp",
          "type": "uint256"
        }
      ],
      "name": "TTTBurned",
      "type": "event"
    },
    {
      "anonymous": false,
      "inputs": [
        {
          "indexed": true,
          "internalType": "address",
          "name": "to",
          "type": "address"
        },
        {
          "indexed": false,
          "internalType": "uint256",
          "name": "amount",
          "type": "uint256"
        },
        {
          "indexed": false,
          "internalType": "bytes32",
          "name": "grgHash",
          "type": "bytes32"
        },
        {
          "indexed": false,
          "internalType": "bytes32",
          "name": "potHash",
          "type": "bytes32"
        },
        {
          "indexed": false,
          "internalType": "uint8",
          "name": "stratum",
          "type": "uint8"
        }
      ],
      "name": "TTTMinted",
      "type": "event"
    },
    {
      "anonymous": false,
      "inputs": [
        {
          "indexed": true,
          "internalType": "address",
          "name": "from",
          "type": "address"
        },
        {
          "indexed": true,
          "internalType": "address",
          "name": "to",
          "type": "address"
        },
        {
          "indexed": false,
          "internalType": "uint256",
          "name": "value",
          "type": "uint256"
        }
      ],
      "name": "Transfer",
      "type": "event"
    },
    {
      "anonymous": false,
      "inputs": [
        {
          "indexed": false,
          "internalType": "address",
          "name": "account",
          "type": "address"
        }
      ],
      "name": "Unpaused",
      "type": "event"
    },
    {
      "inputs": [
        {
          "internalType": "address",
          "name": "owner",
          "type": "address"
        },
        {
          "internalType": "address",
          "name": "spender",
          "type": "address"
        }
      ],
      "name": "allowance",
      "outputs": [
        {
          "internalType": "uint256",
          "name": "",
          "type": "uint256"
        }
      ],
      "stateMutability": "view",
      "type": "function"
    },
    {
      "inputs": [
        {
          "internalType": "address",
          "name": "spender",
          "type": "address"
        },
        {
          "internalType": "uint256",
          "name": "value",
          "type": "uint256"
        }
      ],
      "name": "approve",
      "outputs": [
        {
          "internalType": "bool",
          "name": "",
          "type": "bool"
        }
      ],
      "stateMutability": "nonpayable",
      "type": "function"
    },
    {
      "inputs": [
        {
          "internalType": "address",
          "name": "account",
          "type": "address"
        }
      ],
      "name": "balanceOf",
      "outputs": [
        {
          "internalType": "uint256",
          "name": "",
          "type": "uint256"
        }
      ],
      "stateMutability": "view",
      "type": "function"
    },
    {
      "inputs": [
        {
          "internalType": "uint256",
          "name": "amount",
          "type": "uint256"
        },
        {
          "internalType": "bytes32",
          "name": "grgHash",
          "type": "bytes32"
        },
        {
          "internalType": "enum TTTToken.ResolutionTier",
          "name": "tier",
          "type": "uint8"
        }
      ],
      "name": "burn",
      "outputs": [],
      "stateMutability": "nonpayable",
      "type": "function"
    },
    {
      "inputs": [],
      "name": "decimals",
      "outputs": [
        {
          "internalType": "uint8",
          "name": "",
          "type": "uint8"
        }
      ],
      "stateMutability": "view",
      "type": "function"
    },
    {
      "inputs": [
        {
          "internalType": "address",
          "name": "to",
          "type": "address"
        },
        {
          "internalType": "uint256",
          "name": "amount",
          "type": "uint256"
        },
        {
          "internalType": "bytes32",
          "name": "grgHash",
          "type": "bytes32"
        },
        {
          "internalType": "bytes32",
          "name": "potHash",
          "type": "bytes32"
        },
        {
          "internalType": "uint8",
          "name": "stratum",
          "type": "uint8"
        }
      ],
      "name": "mint",
      "outputs": [],
      "stateMutability": "nonpayable",
      "type": "function"
    },
    {
      "inputs": [],
      "name": "name",
      "outputs": [
        {
          "internalType": "string",
          "name": "",
          "type": "string"
        }
      ],
      "stateMutability": "view",
      "type": "function"
    },
    {
      "inputs": [],
      "name": "nextRecordId",
      "outputs": [
        {
          "internalType": "uint256",
          "name": "",
          "type": "uint256"
        }
      ],
      "stateMutability": "view",
      "type": "function"
    },
    {
      "inputs": [],
      "name": "owner",
      "outputs": [
        {
          "internalType": "address",
          "name": "",
          "type": "address"
        }
      ],
      "stateMutability": "view",
      "type": "function"
    },
    {
      "inputs": [],
      "name": "pause",
      "outputs": [],
      "stateMutability": "nonpayable",
      "type": "function"
    },
    {
      "inputs": [],
      "name": "paused",
      "outputs": [
        {
          "internalType": "bool",
          "name": "",
          "type": "bool"
        }
      ],
      "stateMutability": "view",
      "type": "function"
    },
    {
      "inputs": [
        {
          "internalType": "uint256",
          "name": "",
          "type": "uint256"
        }
      ],
      "name": "records",
      "outputs": [
        {
          "internalType": "uint256",
          "name": "timestamp",
          "type": "uint256"
        },
        {
          "internalType": "bytes32",
          "name": "grgHash",
          "type": "bytes32"
        },
        {
          "internalType": "enum TTTToken.ResolutionTier",
          "name": "tier",
          "type": "uint8"
        },
        {
          "internalType": "address",
          "name": "builder",
          "type": "address"
        }
      ],
      "stateMutability": "view",
      "type": "function"
    },
    {
      "inputs": [],
      "name": "renounceOwnership",
      "outputs": [],
      "stateMutability": "nonpayable",
      "type": "function"
    },
    {
      "inputs": [
        {
          "internalType": "enum TTTToken.ResolutionTier",
          "name": "tier",
          "type": "uint8"
        },
        {
          "internalType": "uint256",
          "name": "price",
          "type": "uint256"
        }
      ],
      "name": "setTierPrice",
      "outputs": [],
      "stateMutability": "nonpayable",
      "type": "function"
    },
    {
      "inputs": [],
      "name": "symbol",
      "outputs": [
        {
          "internalType": "string",
          "name": "",
          "type": "string"
        }
      ],
      "stateMutability": "view",
      "type": "function"
    },
    {
      "inputs": [
        {
          "internalType": "enum TTTToken.ResolutionTier",
          "name": "",
          "type": "uint8"
        }
      ],
      "name": "tierPrices",
      "outputs": [
        {
          "internalType": "uint256",
          "name": "",
          "type": "uint256"
        }
      ],
      "stateMutability": "view",
      "type": "function"
    },
    {
      "inputs": [],
      "name": "totalSupply",
      "outputs": [
        {
          "internalType": "uint256",
          "name": "",
          "type": "uint256"
        }
      ],
      "stateMutability": "view",
      "type": "function"
    },
    {
      "inputs": [
        {
          "internalType": "address",
          "name": "to",
          "type": "address"
        },
        {
          "internalType": "uint256",
          "name": "value",
          "type": "uint256"
        }
      ],
      "name": "transfer",
      "outputs": [
        {
          "internalType": "bool",
          "name": "",
          "type": "bool"
        }
      ],
      "stateMutability": "nonpayable",
      "type": "function"
    },
    {
      "inputs": [
        {
          "internalType": "address",
          "name": "from",
          "type": "address"
        },
        {
          "internalType": "address",
          "name": "to",
          "type": "address"
        },
        {
          "internalType": "uint256",
          "name": "value",
          "type": "uint256"
        }
      ],
      "name": "transferFrom",
      "outputs": [
        {
          "internalType": "bool",
          "name": "",
          "type": "bool"
        }
      ],
      "stateMutability": "nonpayable",
      "type": "function"
    },
    {
      "inputs": [
        {
          "internalType": "address",
          "name": "newOwner",
          "type": "address"
        }
      ],
      "name": "transferOwnership",
      "outputs": [],
      "stateMutability": "nonpayable",
      "type": "function"
    },
    {
      "inputs": [],
      "name": "unpause",
      "outputs": [],
      "stateMutability": "nonpayable",
      "type": "function"
    }
  ],
  "bytecode": "0x608060405234801561000f575f5ffd5b50336040518060400160405280600e81526020016d2a2629902a34b6b2902a37b5b2b760911b8152506040518060400160405280600381526020016215151560ea1b81525081600390816100639190610452565b5060046100708282610452565b5050506001600160a01b0381166100a157604051631e4fbdf760e01b81525f60048201526024015b60405180910390fd5b6100aa8161020b565b506100cd336100bb6012600a610605565b6100c8906298968061061a565b61025c565b6103e86100dc6012600a610605565b6100e790600161061a565b6100f19190610631565b5f805260066020527f54cdd369e4e8a8515e52ca72ec816c2101831ad1f18bf44102ed171459c9b4f85560646101296012600a610605565b61013490600161061a565b61013e9190610631565b60015f5260066020527f3e5fec24aa4dc4e5aee2e025e51e1392c72a2500577559fae9665c6d52bd6a315560646101776012600a610605565b61018290601861061a565b61018c9190610631565b60025f5260066020527f8819ef417987f8ae7a81f42cdfb18815282fe989326fbff903d13cf0e03ace29556127106101c66012600a610605565b6101d190600161061a565b6101db9190610631565b60035f5260066020527f75f96ab15d697e93042dc45b5c896c4b27e89bb6eaf39475c5c371cb2513f7d255610663565b600580546001600160a01b038381166001600160a01b0319831681179093556040519116919082907f8be0079c531659141344cd1fd0a4f28419497f9722a3daafe3b4186f6b6457e0905f90a35050565b6001600160a01b0382166102855760405163ec442f0560e01b81525f6004820152602401610098565b6102905f8383610294565b5050565b6001600160a01b0383166102be578060025f8282546102b39190610650565b9091555061032e9050565b6001600160a01b0383165f90815260208190526040902054818110156103105760405163391434e360e21b81526001600160a01b03851660048201526024810182905260448101839052606401610098565b6001600160a01b0384165f9081526020819052604090209082900390555b6001600160a01b03821661034a57600280548290039055610368565b6001600160a01b0382165f9081526020819052604090208054820190555b816001600160a01b0316836001600160a01b03167fddf252ad1be2c89b69c2b068fc378daa952ba7f163c4a11628f55a4df523b3ef836040516103ad91815260200190565b60405180910390a3505050565b634e487b7160e01b5f52604160045260245ffd5b600181811c908216806103e257607f821691505b60208210810361040057634e487b7160e01b5f52602260045260245ffd5b50919050565b601f82111561044d57805f5260205f20601f840160051c8101602085101561042b5750805b601f840160051c820191505b8181101561044a575f8155600101610437565b50505b505050565b81516001600160401b0381111561046b5761046b6103ba565b61047f8161047984546103ce565b84610406565b6020601f8211600181146104b1575f831561049a5750848201515b5f19600385901b1c1916600184901b17845561044a565b5f84815260208120601f198516915b828110156104e057878501518255602094850194600190920191016104c0565b50848210156104fd57868401515f19600387901b60f8161c191681555b50505050600190811b01905550565b634e487b7160e01b5f52601160045260245ffd5b6001815b600184111561055b5780850481111561053f5761053f61050c565b600184161561054d57908102905b60019390931c928002610524565b935093915050565b5f82610571575060016105ff565b8161057d57505f6105ff565b8160018114610593576002811461059d576105b9565b60019150506105ff565b60ff8411156105ae576105ae61050c565b50506001821b6105ff565b5060208310610133831016604e8410600b84101617156105dc575081810a6105ff565b6105e85f198484610520565b805f19048211156105fb576105fb61050c565b0290505b92915050565b5f61061360ff841683610563565b9392505050565b80820281158282048414176105ff576105ff61050c565b5f8261064b57634e487b7160e01b5f52601260045260245ffd5b500490565b808201808211156105ff576105ff61050c565b6110a9806106705f395ff3fe608060405234801561000f575f5ffd5b5060043610610132575f3560e01c806370a08231116100b4578063a9059cbb11610079578063a9059cbb14610299578063b4fad6f8146102ac578063dbde207d146102cb578063dd62ed3e146102d4578063f2fde38b1461030c578063fdcd69d61461031f575f5ffd5b806370a082311461023e578063715018a6146102665780638456cb591461026e5780638da5cb5b1461027657806395d89b4114610291575f5ffd5b806334461067116100fa57806334461067146101ab5780633f4ba83a146101fc5780634a5c6f8c146102065780634eae0fd2146102195780635c975abb1461022c575f5ffd5b806306fdde0314610136578063095ea7b31461015457806318160ddd1461017757806323b872dd14610189578063313ce5671461019c575b5f5ffd5b61013e610332565b60405161014b9190610d87565b60405180910390f35b610167610162366004610dd7565b6103c2565b604051901515815260200161014b565b6002545b60405190815260200161014b565b610167610197366004610dff565b6103db565b6040516012815260200161014b565b6101ec6101b9366004610e39565b60076020525f908152604090208054600182015460029092015490919060ff81169061010090046001600160a01b031684565b60405161014b9493929190610e84565b6102046103fe565b005b610204610214366004610ec7565b610410565b610204610227366004610ee1565b6104b7565b600554600160a01b900460ff16610167565b61017b61024c366004610f13565b6001600160a01b03165f9081526020819052604090205490565b6102046106fa565b61020461070b565b6005546040516001600160a01b03909116815260200161014b565b61013e61071b565b6101676102a7366004610dd7565b61072a565b61017b6102ba366004610f33565b60066020525f908152604090205481565b61017b60085481565b61017b6102e2366004610f4c565b6001600160a01b039182165f90815260016020908152604080832093909416825291909152205490565b61020461031a366004610f13565b610737565b61020461032d366004610f7d565b610774565b60606003805461034190610fd2565b80601f016020809104026020016040519081016040528092919081815260200182805461036d90610fd2565b80156103b85780601f1061038f576101008083540402835291602001916103b8565b820191905f5260205f20905b81548152906001019060200180831161039b57829003601f168201915b5050505050905090565b5f336103cf8185856108cd565b60019150505b92915050565b5f336103e88582856108df565b6103f385858561095b565b506001949350505050565b6104066109b8565b61040e6109e5565b565b6104186109b8565b600382600381111561042c5761042c610e50565b60ff16111561047c5760405162461bcd60e51b815260206004820152601760248201527624b73b30b634b2103932b9b7b63aba34b7b7103a34b2b960491b60448201526064015b60405180910390fd5b8060065f84600381111561049257610492610e50565b60038111156104a3576104a3610e50565b815260208101919091526040015f20555050565b6104bf610a3a565b60038160038111156104d3576104d3610e50565b60ff16111561051e5760405162461bcd60e51b815260206004820152601760248201527624b73b30b634b2103932b9b7b63aba34b7b7103a34b2b960491b6044820152606401610473565b816105655760405162461bcd60e51b815260206004820152601760248201527647524720686173682063616e6e6f74206265207a65726f60481b6044820152606401610473565b60065f82600381111561057a5761057a610e50565b600381111561058b5761058b610e50565b81526020019081526020015f20548310156105e85760405162461bcd60e51b815260206004820152601760248201527f416d6f756e742062656c6f7720746965722070726963650000000000000000006044820152606401610473565b6105f23384610a65565b604051806080016040528042815260200183815260200182600381111561061b5761061b610e50565b8152336020918201526008545f908152600782526040908190208351815591830151600180840191909155908301516002830180549192909160ff19169083600381111561066b5761066b610e50565b021790555060609190910151600290910180546001600160a01b0390921661010002610100600160a81b031990921691909117905560085460405133917f142f98719c08a5e20093259a1f17f447857a045f328f3da0ae8ace23bbd81c1e916106d99187918690429061100a565b60405180910390a260088054905f6106f083611048565b9190505550505050565b6107026109b8565b61040e5f610a9d565b6107136109b8565b61040e610aee565b60606004805461034190610fd2565b5f336103cf81858561095b565b61073f6109b8565b6001600160a01b03811661076857604051631e4fbdf760e01b81525f6004820152602401610473565b61077181610a9d565b50565b61077c6109b8565b610784610a3a565b826107cb5760405162461bcd60e51b815260206004820152601760248201527647524720686173682063616e6e6f74206265207a65726f60481b6044820152606401610473565b816108185760405162461bcd60e51b815260206004820152601760248201527f506f5420686173682063616e6e6f74206265207a65726f0000000000000000006044820152606401610473565b6108228585610b31565b604080518581526020810185905290810183905260ff821660608201526001600160a01b038616907ff8eb34cac69e54778e0dc23857c446bae155f910d7b3da267eb61e47d003f9df9060800160405180910390a26040805184815260ff8316602082015290810183905267ffffffffffffffff4216907f2c302ca8f2238db290df51e29f492b31126096b324589e3da95286189cfd5e5b9060600160405180910390a25050505050565b6108da8383836001610b65565b505050565b6001600160a01b038381165f908152600160209081526040808320938616835292905220545f19811015610955578181101561094757604051637dc7a0d960e11b81526001600160a01b03841660048201526024810182905260448101839052606401610473565b61095584848484035f610b65565b50505050565b6001600160a01b03831661098457604051634b637e8f60e11b81525f6004820152602401610473565b6001600160a01b0382166109ad5760405163ec442f0560e01b81525f6004820152602401610473565b6108da838383610c37565b6005546001600160a01b0316331461040e5760405163118cdaa760e01b8152336004820152602401610473565b6109ed610d5d565b6005805460ff60a01b191690557f5db9ee0a495bf2e6ff9c91a7834c1ba4fdd244a5e8aa4e537bd38aeae4b073aa335b6040516001600160a01b03909116815260200160405180910390a1565b600554600160a01b900460ff161561040e5760405163d93c066560e01b815260040160405180910390fd5b6001600160a01b038216610a8e57604051634b637e8f60e11b81525f6004820152602401610473565b610a99825f83610c37565b5050565b600580546001600160a01b038381166001600160a01b0319831681179093556040519116919082907f8be0079c531659141344cd1fd0a4f28419497f9722a3daafe3b4186f6b6457e0905f90a35050565b610af6610a3a565b6005805460ff60a01b1916600160a01b1790557f62e78cea01bee320cd4e420270b5ea74000d11b0c9f74754ebdbfc544b05a258610a1d3390565b6001600160a01b038216610b5a5760405163ec442f0560e01b81525f6004820152602401610473565b610a995f8383610c37565b6001600160a01b038416610b8e5760405163e602df0560e01b81525f6004820152602401610473565b6001600160a01b038316610bb757604051634a1406b160e11b81525f6004820152602401610473565b6001600160a01b038085165f908152600160209081526040808320938716835292905220829055801561095557826001600160a01b0316846001600160a01b03167f8c5be1e5ebec7d5bd14f71427d1e84f3dd0314c0f7b2291e5b200ac8c7c3b92584604051610c2991815260200190565b60405180910390a350505050565b6001600160a01b038316610c61578060025f828254610c569190611060565b90915550610cd19050565b6001600160a01b0383165f9081526020819052604090205481811015610cb35760405163391434e360e21b81526001600160a01b03851660048201526024810182905260448101839052606401610473565b6001600160a01b0384165f9081526020819052604090209082900390555b6001600160a01b038216610ced57600280548290039055610d0b565b6001600160a01b0382165f9081526020819052604090208054820190555b816001600160a01b0316836001600160a01b03167fddf252ad1be2c89b69c2b068fc378daa952ba7f163c4a11628f55a4df523b3ef83604051610d5091815260200190565b60405180910390a3505050565b600554600160a01b900460ff1661040e57604051638dfc202b60e01b815260040160405180910390fd5b602081525f82518060208401528060208501604085015e5f604082850101526040601f19601f83011684010191505092915050565b80356001600160a01b0381168114610dd2575f5ffd5b919050565b5f5f60408385031215610de8575f5ffd5b610df183610dbc565b946020939093013593505050565b5f5f5f60608486031215610e11575f5ffd5b610e1a84610dbc565b9250610e2860208501610dbc565b929592945050506040919091013590565b5f60208284031215610e49575f5ffd5b5035919050565b634e487b7160e01b5f52602160045260245ffd5b60048110610e8057634e487b7160e01b5f52602160045260245ffd5b9052565b8481526020810184905260808101610e9f6040830185610e64565b6001600160a01b0392909216606091909101529392505050565b803560048110610dd2575f5ffd5b5f5f60408385031215610ed8575f5ffd5b610df183610eb9565b5f5f5f60608486031215610ef3575f5ffd5b8335925060208401359150610f0a60408501610eb9565b90509250925092565b5f60208284031215610f23575f5ffd5b610f2c82610dbc565b9392505050565b5f60208284031215610f43575f5ffd5b610f2c82610eb9565b5f5f60408385031215610f5d575f5ffd5b610f6683610dbc565b9150610f7460208401610dbc565b90509250929050565b5f5f5f5f5f60a08688031215610f91575f5ffd5b610f9a86610dbc565b9450602086013593506040860135925060608601359150608086013560ff81168114610fc4575f5ffd5b809150509295509295909350565b600181811c90821680610fe657607f821691505b60208210810361100457634e487b7160e01b5f52602260045260245ffd5b50919050565b84815260208101849052608081016110256040830185610e64565b82606083015295945050505050565b634e487b7160e01b5f52601160045260245ffd5b5f6001820161105957611059611034565b5060010190565b808201808211156103d5576103d561103456fea2646970667358221220aed56fefcea169f5d3bc30d443852aa9659c149f6b4907a9eeaff0ef90ca31b764736f6c634300081b0033",
  "linkReferences": {},
  "deployedLinkReferences": {}
}