{
  "_format": "hh-sol-artifact-1",
  "contractName": "PoolHelper",
  "sourceName": "contracts/PoolHelper.sol",
  "abi": [
    {
      "inputs": [
        {
          "internalType": "address",
          "name": "_poolManager",
          "type": "address"
        }
      ],
      "stateMutability": "nonpayable",
      "type": "constructor"
    },
    {
      "inputs": [],
      "name": "NotOwner",
      "type": "error"
    },
    {
      "inputs": [],
      "name": "NotPoolManager",
      "type": "error"
    },
    {
      "inputs": [
        {
          "components": [
            {
              "internalType": "Currency",
              "name": "currency0",
              "type": "address"
            },
            {
              "internalType": "Currency",
              "name": "currency1",
              "type": "address"
            },
            {
              "internalType": "uint24",
              "name": "fee",
              "type": "uint24"
            },
            {
              "internalType": "int24",
              "name": "tickSpacing",
              "type": "int24"
            },
            {
              "internalType": "contract IHooks",
              "name": "hooks",
              "type": "address"
            }
          ],
          "internalType": "struct PoolKey",
          "name": "key",
          "type": "tuple"
        },
        {
          "internalType": "int24",
          "name": "tickLower",
          "type": "int24"
        },
        {
          "internalType": "int24",
          "name": "tickUpper",
          "type": "int24"
        },
        {
          "internalType": "int256",
          "name": "liquidityDelta",
          "type": "int256"
        }
      ],
      "name": "addLiquidity",
      "outputs": [
        {
          "internalType": "BalanceDelta",
          "name": "delta",
          "type": "int256"
        }
      ],
      "stateMutability": "nonpayable",
      "type": "function"
    },
    {
      "inputs": [],
      "name": "owner",
      "outputs": [
        {
          "internalType": "address",
          "name": "",
          "type": "address"
        }
      ],
      "stateMutability": "view",
      "type": "function"
    },
    {
      "inputs": [],
      "name": "poolManager",
      "outputs": [
        {
          "internalType": "contract IPoolManager",
          "name": "",
          "type": "address"
        }
      ],
      "stateMutability": "view",
      "type": "function"
    },
    {
      "inputs": [
        {
          "components": [
            {
              "internalType": "Currency",
              "name": "currency0",
              "type": "address"
            },
            {
              "internalType": "Currency",
              "name": "currency1",
              "type": "address"
            },
            {
              "internalType": "uint24",
              "name": "fee",
              "type": "uint24"
            },
            {
              "internalType": "int24",
              "name": "tickSpacing",
              "type": "int24"
            },
            {
              "internalType": "contract IHooks",
              "name": "hooks",
              "type": "address"
            }
          ],
          "internalType": "struct PoolKey",
          "name": "key",
          "type": "tuple"
        },
        {
          "internalType": "bool",
          "name": "zeroForOne",
          "type": "bool"
        },
        {
          "internalType": "int256",
          "name": "amountSpecified",
          "type": "int256"
        }
      ],
      "name": "swap",
      "outputs": [
        {
          "internalType": "BalanceDelta",
          "name": "delta",
          "type": "int256"
        }
      ],
      "stateMutability": "nonpayable",
      "type": "function"
    },
    {
      "inputs": [
        {
          "internalType": "bytes",
          "name": "data",
          "type": "bytes"
        }
      ],
      "name": "unlockCallback",
      "outputs": [
        {
          "internalType": "bytes",
          "name": "",
          "type": "bytes"
        }
      ],
      "stateMutability": "nonpayable",
      "type": "function"
    }
  ],
  "bytecode": "0x60c060405234801561000f575f5ffd5b5060405161137038038061137083398101604081905261002e91610043565b6001600160a01b03166080523360a052610070565b5f60208284031215610053575f5ffd5b81516001600160a01b0381168114610069575f5ffd5b9392505050565b60805160a05161128d6100e35f395f8181608401528181610124015261032d01525f818160e301528181610165015281816102970152818161036e0152818161050d01528181610670015281816107fa015281816108a001528181610914015281816109920152610a62015261128d5ff3fe608060405234801561000f575f5ffd5b5060043610610055575f3560e01c806341a1df46146100595780638da5cb5b1461007f57806391dd7346146100be578063dc4c90d3146100de578063e2e6fcbe14610105575b5f5ffd5b61006c610067366004610ae7565b610118565b6040519081526020015b60405180910390f35b6100a67f000000000000000000000000000000000000000000000000000000000000000081565b6040516001600160a01b039091168152602001610076565b6100d16100cc366004610b24565b61028a565b6040516100769190610bc0565b6100a67f000000000000000000000000000000000000000000000000000000000000000081565b61006c610113366004610be7565b610321565b5f336001600160a01b037f00000000000000000000000000000000000000000000000000000000000000001614610162576040516330cd747160e01b815260040160405180910390fd5b5f7f00000000000000000000000000000000000000000000000000000000000000006001600160a01b03166348c8949160016040518060800160405280898036038101906101b09190610cc7565b81526020018815158152602001878152602001336001600160a01b03168152506040516020016101e09190610d84565b60408051601f19818403018152908290526101fe9291602001610dd9565b6040516020818303038152906040526040518263ffffffff1660e01b81526004016102299190610bc0565b5f604051808303815f875af1158015610244573d5f5f3e3d5ffd5b505050506040513d5f823e601f3d908101601f1916820160405261026b9190810190610e3c565b9050808060200190518101906102819190610eb6565b95945050505050565b6060336001600160a01b037f000000000000000000000000000000000000000000000000000000000000000016146102d55760405163570c108560e11b815260040160405180910390fd5b5f806102e384860186610ecd565b90925090505f8260018111156102fb576102fb610dc5565b03610312576103098161049d565b9250505061031b565b61030981610614565b92915050565b5f336001600160a01b037f0000000000000000000000000000000000000000000000000000000000000000161461036b576040516330cd747160e01b815260040160405180910390fd5b5f7f00000000000000000000000000000000000000000000000000000000000000006001600160a01b03166348c894915f6040518060a001604052808a8036038101906103b89190610cc7565b81526020018960020b81526020018860020b8152602001878152602001336001600160a01b03168152506040516020016103f29190610f58565b60408051601f19818403018152908290526104109291602001610dd9565b6040516020818303038152906040526040518263ffffffff1660e01b815260040161043b9190610bc0565b5f604051808303815f875af1158015610456573d5f5f3e3d5ffd5b505050506040513d5f823e601f3d908101601f1916820160405261047d9190810190610e3c565b9050808060200190518101906104939190610eb6565b9695505050505050565b60605f828060200190518101906104b49190611022565b805160408051608081018252602080850151600290810b835283860151900b81830152606080860151838501525f908301819052835191820184528082529251632d35e7ed60e11b815294955091936001600160a01b037f00000000000000000000000000000000000000000000000000000000000000001693635a6bcfda93610542939192600401611088565b60408051808303815f875af115801561055d573d5f5f3e3d5ffd5b505050506040513d601f19601f8201168201806040525081019061058191906110d6565b5082515160808401519192506105a09161059b8460801d90565b6107c5565b6105ba825f015160200151836080015161059b84600f0b90565b81515160808301516105d691906105d18460801d90565b610a1a565b6105f0825f01516020015183608001516105d184600f0b90565b60408051602081018390520160405160208183030381529060405292505050919050565b60605f8280602001905181019061062b91906110f8565b90505f816020015161065b57610656600173fffd8963efd1fc6a506488495d951d5263988d26611188565b61066b565b61066b6401000276a360016111a7565b90505f7f00000000000000000000000000000000000000000000000000000000000000006001600160a01b031663f3cd914c845f0151604051806060016040528087602001511515815260200187604001518152602001866001600160a01b031681525060405180602001604052805f8152506040518463ffffffff1660e01b81526004016106fc939291906111c6565b6020604051808303815f875af1158015610718573d5f5f3e3d5ffd5b505050506040513d601f19601f8201168201806040525081019061073c9190610eb6565b83515160608501519192506107559161059b8460801d90565b61076f835f015160200151846060015161059b84600f0b90565b825151606084015161078691906105d18460801d90565b6107a0835f01516020015184606001516105d184600f0b90565b6040805160208101839052016040516020818303038152906040529350505050919050565b5f81600f0b126107d457505050565b5f6107de8261120f565b6001600160801b03169050836001600160a01b038116610881577f00000000000000000000000000000000000000000000000000000000000000006001600160a01b03166311da60b4836040518263ffffffff1660e01b815260040160206040518083038185885af1158015610856573d5f5f3e3d5ffd5b50505050506040513d601f19601f8201168201806040525081019061087b9190610eb6565b50610a13565b604051632961046560e21b81526001600160a01b0386811660048301527f0000000000000000000000000000000000000000000000000000000000000000169063a5841194906024015f604051808303815f87803b1580156108e1575f5ffd5b505af11580156108f3573d5f5f3e3d5ffd5b50506040516323b872dd60e01b81526001600160a01b0387811660048301527f00000000000000000000000000000000000000000000000000000000000000008116602483015260448201869052841692506323b872dd91506064016020604051808303815f875af115801561096b573d5f5f3e3d5ffd5b505050506040513d601f19601f8201168201806040525081019061098f919061123c565b507f00000000000000000000000000000000000000000000000000000000000000006001600160a01b03166311da60b46040518163ffffffff1660e01b81526004016020604051808303815f875af11580156109ed573d5f5f3e3d5ffd5b505050506040513d601f19601f82011682018060405250810190610a119190610eb6565b505b5050505050565b5f81600f0b13610a2957505050565b604051630b0d9c0960e01b81526001600160a01b03848116600483015283811660248301526001600160801b03831660448301819052917f000000000000000000000000000000000000000000000000000000000000000090911690630b0d9c09906064015f604051808303815f87803b158015610aa5575f5ffd5b505af1158015610ab7573d5f5f3e3d5ffd5b5050505050505050565b5f60a08284031215610ad1575f5ffd5b50919050565b8015158114610ae4575f5ffd5b50565b5f5f5f60e08486031215610af9575f5ffd5b610b038585610ac1565b925060a0840135610b1381610ad7565b9295929450505060c0919091013590565b5f5f60208385031215610b35575f5ffd5b823567ffffffffffffffff811115610b4b575f5ffd5b8301601f81018513610b5b575f5ffd5b803567ffffffffffffffff811115610b71575f5ffd5b856020828401011115610b82575f5ffd5b6020919091019590945092505050565b5f81518084528060208401602086015e5f602082860101526020601f19601f83011685010191505092915050565b602081525f610bd26020830184610b92565b9392505050565b8060020b8114610ae4575f5ffd5b5f5f5f5f6101008587031215610bfb575f5ffd5b610c058686610ac1565b935060a0850135610c1581610bd9565b925060c0850135610c2581610bd9565b9396929550929360e00135925050565b634e487b7160e01b5f52604160045260245ffd5b60405160a0810167ffffffffffffffff81118282101715610c6c57610c6c610c35565b60405290565b604051601f8201601f1916810167ffffffffffffffff81118282101715610c9b57610c9b610c35565b604052919050565b6001600160a01b0381168114610ae4575f5ffd5b62ffffff81168114610ae4575f5ffd5b5f60a0828403128015610cd8575f5ffd5b50610ce1610c49565b8235610cec81610ca3565b81526020830135610cfc81610ca3565b60208201526040830135610d0f81610cb7565b60408201526060830135610d2281610bd9565b60608201526080830135610d3581610ca3565b60808201529392505050565b80516001600160a01b03908116835260208083015182169084015260408083015162ffffff169084015260608083015160020b9084015260809182015116910152565b5f61010082019050610d97828451610d41565b6020830151151560a0830152604083015160c08301526060909201516001600160a01b031660e09091015290565b634e487b7160e01b5f52602160045260245ffd5b5f60028410610df657634e487b7160e01b5f52602160045260245ffd5b83825260406020830152610e0d6040830184610b92565b949350505050565b5f67ffffffffffffffff821115610e2e57610e2e610c35565b50601f01601f191660200190565b5f60208284031215610e4c575f5ffd5b815167ffffffffffffffff811115610e62575f5ffd5b8201601f81018413610e72575f5ffd5b8051610e85610e8082610e15565b610c72565b818152856020838501011115610e99575f5ffd5b8160208401602083015e5f91810160200191909152949350505050565b5f60208284031215610ec6575f5ffd5b5051919050565b5f5f60408385031215610ede575f5ffd5b823560028110610eec575f5ffd5b9150602083013567ffffffffffffffff811115610f07575f5ffd5b8301601f81018513610f17575f5ffd5b8035610f25610e8082610e15565b818152866020838501011115610f39575f5ffd5b816020840160208301375f602083830101528093505050509250929050565b5f61012082019050610f6b828451610d41565b6020830151600290810b60a08401526040840151900b60c0830152606083015160e08301526080909201516001600160a01b03166101009091015290565b5f60a08284031215610fb9575f5ffd5b610fc1610c49565b90508151610fce81610ca3565b81526020820151610fde81610ca3565b60208201526040820151610ff181610cb7565b6040820152606082015161100481610bd9565b6060820152608082015161101781610ca3565b608082015292915050565b5f610120828403128015611034575f5ffd5b5061103d610c49565b6110478484610fa9565b815260a083015161105781610bd9565b602082015260c083015161106a81610bd9565b604082015260e08301516060820152610100830151610d3581610ca3565b6110928185610d41565b825160020b60a0820152602083015160020b60c0820152604083015160e082015260608301516101008201526101406101208201525f610281610140830184610b92565b5f5f604083850312156110e7575f5ffd5b505080516020909101519092909150565b5f61010082840312801561110a575f5ffd5b506040516080810167ffffffffffffffff8111828210171561112e5761112e610c35565b60405261113b8484610fa9565b815260a083015161114b81610ad7565b602082015260c0830151604082015260e083015161116881610ca3565b60608201529392505050565b634e487b7160e01b5f52601160045260245ffd5b6001600160a01b03828116828216039081111561031b5761031b611174565b6001600160a01b03818116838216019081111561031b5761031b611174565b6111d08185610d41565b8251151560a0820152602083015160c082015260408301516001600160a01b031660e082015261012061010082018190525f9061028190830184610b92565b5f81600f0b6f7fffffffffffffffffffffffffffffff19810361123457611234611174565b5f0392915050565b5f6020828403121561124c575f5ffd5b8151610bd281610ad756fea26469706673582212207107b863a3c28bec0ae08978b81a24999aa4fc0aa6c19f79ac2672c5e05c17bf64736f6c634300081b0033",
  "linkReferences": {},
  "deployedLinkReferences": {}
}