{
  "_format": "hh-sol-artifact-1",
  "contractName": "ProtocolFee",
  "sourceName": "contracts/ProtocolFee.sol",
  "abi": [
    {
      "inputs": [
        {
          "internalType": "address",
          "name": "_recipient",
          "type": "address"
        }
      ],
      "stateMutability": "nonpayable",
      "type": "constructor"
    },
    {
      "inputs": [],
      "name": "ECDSAInvalidSignature",
      "type": "error"
    },
    {
      "inputs": [
        {
          "internalType": "uint256",
          "name": "length",
          "type": "uint256"
        }
      ],
      "name": "ECDSAInvalidSignatureLength",
      "type": "error"
    },
    {
      "inputs": [
        {
          "internalType": "bytes32",
          "name": "s",
          "type": "bytes32"
        }
      ],
      "name": "ECDSAInvalidSignatureS",
      "type": "error"
    },
    {
      "inputs": [
        {
          "internalType": "address",
          "name": "account",
          "type": "address"
        },
        {
          "internalType": "uint256",
          "name": "currentNonce",
          "type": "uint256"
        }
      ],
      "name": "InvalidAccountNonce",
      "type": "error"
    },
    {
      "inputs": [],
      "name": "InvalidShortString",
      "type": "error"
    },
    {
      "inputs": [
        {
          "internalType": "address",
          "name": "owner",
          "type": "address"
        }
      ],
      "name": "OwnableInvalidOwner",
      "type": "error"
    },
    {
      "inputs": [
        {
          "internalType": "address",
          "name": "account",
          "type": "address"
        }
      ],
      "name": "OwnableUnauthorizedAccount",
      "type": "error"
    },
    {
      "inputs": [
        {
          "internalType": "address",
          "name": "token",
          "type": "address"
        }
      ],
      "name": "SafeERC20FailedOperation",
      "type": "error"
    },
    {
      "inputs": [
        {
          "internalType": "string",
          "name": "str",
          "type": "string"
        }
      ],
      "name": "StringTooLong",
      "type": "error"
    },
    {
      "anonymous": false,
      "inputs": [],
      "name": "EIP712DomainChanged",
      "type": "event"
    },
    {
      "anonymous": false,
      "inputs": [
        {
          "indexed": true,
          "internalType": "address",
          "name": "payer",
          "type": "address"
        },
        {
          "indexed": false,
          "internalType": "uint256",
          "name": "amount",
          "type": "uint256"
        },
        {
          "indexed": false,
          "internalType": "uint256",
          "name": "nonce",
          "type": "uint256"
        }
      ],
      "name": "FeeCollected",
      "type": "event"
    },
    {
      "anonymous": false,
      "inputs": [
        {
          "indexed": true,
          "internalType": "address",
          "name": "previousOwner",
          "type": "address"
        },
        {
          "indexed": true,
          "internalType": "address",
          "name": "newOwner",
          "type": "address"
        }
      ],
      "name": "OwnershipTransferred",
      "type": "event"
    },
    {
      "inputs": [
        {
          "internalType": "address",
          "name": "token",
          "type": "address"
        },
        {
          "internalType": "uint256",
          "name": "amount",
          "type": "uint256"
        },
        {
          "internalType": "bytes",
          "name": "signature",
          "type": "bytes"
        },
        {
          "internalType": "uint256",
          "name": "nonce",
          "type": "uint256"
        },
        {
          "internalType": "uint256",
          "name": "deadline",
          "type": "uint256"
        }
      ],
      "name": "collectFee",
      "outputs": [],
      "stateMutability": "nonpayable",
      "type": "function"
    },
    {
      "inputs": [],
      "name": "eip712Domain",
      "outputs": [
        {
          "internalType": "bytes1",
          "name": "fields",
          "type": "bytes1"
        },
        {
          "internalType": "string",
          "name": "name",
          "type": "string"
        },
        {
          "internalType": "string",
          "name": "version",
          "type": "string"
        },
        {
          "internalType": "uint256",
          "name": "chainId",
          "type": "uint256"
        },
        {
          "internalType": "address",
          "name": "verifyingContract",
          "type": "address"
        },
        {
          "internalType": "bytes32",
          "name": "salt",
          "type": "bytes32"
        },
        {
          "internalType": "uint256[]",
          "name": "extensions",
          "type": "uint256[]"
        }
      ],
      "stateMutability": "view",
      "type": "function"
    },
    {
      "inputs": [
        {
          "internalType": "address",
          "name": "owner",
          "type": "address"
        }
      ],
      "name": "nonces",
      "outputs": [
        {
          "internalType": "uint256",
          "name": "",
          "type": "uint256"
        }
      ],
      "stateMutability": "view",
      "type": "function"
    },
    {
      "inputs": [],
      "name": "owner",
      "outputs": [
        {
          "internalType": "address",
          "name": "",
          "type": "address"
        }
      ],
      "stateMutability": "view",
      "type": "function"
    },
    {
      "inputs": [],
      "name": "protocolFeeRecipient",
      "outputs": [
        {
          "internalType": "address",
          "name": "",
          "type": "address"
        }
      ],
      "stateMutability": "view",
      "type": "function"
    },
    {
      "inputs": [],
      "name": "renounceOwnership",
      "outputs": [],
      "stateMutability": "nonpayable",
      "type": "function"
    },
    {
      "inputs": [
        {
          "internalType": "address",
          "name": "_recipient",
          "type": "address"
        }
      ],
      "name": "setProtocolFeeRecipient",
      "outputs": [],
      "stateMutability": "nonpayable",
      "type": "function"
    },
    {
      "inputs": [
        {
          "internalType": "address",
          "name": "newOwner",
          "type": "address"
        }
      ],
      "name": "transferOwnership",
      "outputs": [],
      "stateMutability": "nonpayable",
      "type": "function"
    }
  ],
  "bytecode": "0x61016060405234801562000011575f80fd5b506040516200111d3803806200111d833981016040819052620000349162000247565b604080518082018252600d81526c12195b1b48141c9bdd1bd8dbdb609a1b602080830191909152825180840190935260018352603160f81b908301529033806200009857604051631e4fbdf760e01b81525f60048201526024015b60405180910390fd5b620000a3816200017e565b50620000b1826001620001cd565b61012052620000c2816002620001cd565b61014052815160208084019190912060e052815190820120610100524660a0526200014f60e05161010051604080517f8b73c3c69bb8fe3d512ecc4cf759cc79239f7b179b0ffacaa9a75d522b39400f60208201529081019290925260608201524660808201523060a08201525f9060c00160405160208183030381529060405280519060200120905090565b60805250503060c052600480546001600160a01b0319166001600160a01b039290921691909117905562000452565b5f80546001600160a01b038381166001600160a01b0319831681178455604051919092169283917f8be0079c531659141344cd1fd0a4f28419497f9722a3daafe3b4186f6b6457e09190a35050565b5f602083511015620001ec57620001e48362000205565b9050620001ff565b81620001f9848262000314565b5060ff90505b92915050565b5f80829050601f8151111562000232578260405163305a27a960e01b81526004016200008f9190620003e0565b80516200023f826200042e565b179392505050565b5f6020828403121562000258575f80fd5b81516001600160a01b03811681146200026f575f80fd5b9392505050565b634e487b7160e01b5f52604160045260245ffd5b600181811c908216806200029f57607f821691505b602082108103620002be57634e487b7160e01b5f52602260045260245ffd5b50919050565b601f8211156200030f57805f5260205f20601f840160051c81016020851015620002eb5750805b601f840160051c820191505b818110156200030c575f8155600101620002f7565b50505b505050565b81516001600160401b0381111562000330576200033062000276565b62000348816200034184546200028a565b84620002c4565b602080601f8311600181146200037e575f8415620003665750858301515b5f19600386901b1c1916600185901b178555620003d8565b5f85815260208120601f198616915b82811015620003ae578886015182559484019460019091019084016200038d565b5085821015620003cc57878501515f19600388901b60f8161c191681555b505060018460011b0185555b505050505050565b5f602080835283518060208501525f5b818110156200040e57858101830151858201604001528201620003f0565b505f604082860101526040601f19601f8301168501019250505092915050565b80516020808301519190811015620002be575f1960209190910360031b1b16919050565b60805160a05160c05160e051610100516101205161014051610c79620004a45f395f6105bb01525f61058901525f6106ba01525f61069201525f6105ed01525f61061701525f6106410152610c795ff3fe608060405234801561000f575f80fd5b5060043610610085575f3560e01c806384b0196e1161005857806384b0196e1461010c5780638da5cb5b14610127578063e521cb9214610137578063f2fde38b1461014a575f80fd5b80630851a7381461008957806364df049e1461009e578063715018a6146100ce5780637ecebe00146100d6575b5f80fd5b61009c610097366004610a6c565b61015d565b005b6004546100b1906001600160a01b031681565b6040516001600160a01b0390911681526020015b60405180910390f35b61009c610319565b6100fe6100e4366004610afd565b6001600160a01b03165f9081526003602052604090205490565b6040519081526020016100c5565b61011461032c565b6040516100c59796959493929190610b60565b5f546001600160a01b03166100b1565b61009c610145366004610afd565b61036e565b61009c610158366004610afd565b6103dd565b804211156101a65760405162461bcd60e51b8152602060048201526011602482015270111958591b1a5b9948195e18d959591959607a1b60448201526064015b60405180910390fd5b6101b0338361041a565b604080517ff7b128d7f33229948bbb22af931c11b80ea3f93687e8070beb548530651f189660208201526001600160a01b03881691810191909152606081018690526080810183905260a081018290525f9060c0016040516020818303038152906040528051906020012090505f61022782610471565b90505f6102698288888080601f0160208091040260200160405190810160405280939291908181526020018383808284375f920191909152506104a392505050565b90506001600160a01b03811633146102b75760405162461bcd60e51b8152602060048201526011602482015270496e76616c6964207369676e617475726560781b604482015260640161019d565b6004546102d3906001600160a01b038b8116913391168b6104cb565b604080518981526020810187905233917f108516ddcf5ba43cea6bb2cd5ff6d59ac196c1c86ccb9178332b9dd72d1ca561910160405180910390a2505050505050505050565b610321610507565b61032a5f610533565b565b5f6060805f805f606061033d610582565b6103456105b4565b604080515f80825260208201909252600f60f81b9b939a50919850469750309650945092509050565b610376610507565b6001600160a01b0381166103bb5760405162461bcd60e51b815260206004820152600c60248201526b5a65726f206164647265737360a01b604482015260640161019d565b600480546001600160a01b0319166001600160a01b0392909216919091179055565b6103e5610507565b6001600160a01b03811661040e57604051631e4fbdf760e01b81525f600482015260240161019d565b61041781610533565b50565b6001600160a01b0382165f90815260036020526040902080546001810190915581811461046c576040516301d4b62360e61b81526001600160a01b03841660048201526024810182905260440161019d565b505050565b5f61049d61047d6105e1565b8360405161190160f01b8152600281019290925260228201526042902090565b92915050565b5f805f806104b1868661070a565b9250925092506104c18282610753565b5090949350505050565b6104d984848484600161080f565b61050157604051635274afe760e01b81526001600160a01b038516600482015260240161019d565b50505050565b5f546001600160a01b0316331461032a5760405163118cdaa760e01b815233600482015260240161019d565b5f80546001600160a01b038381166001600160a01b0319831681178455604051919092169283917f8be0079c531659141344cd1fd0a4f28419497f9722a3daafe3b4186f6b6457e09190a35050565b60606105af7f0000000000000000000000000000000000000000000000000000000000000000600161087c565b905090565b60606105af7f0000000000000000000000000000000000000000000000000000000000000000600261087c565b5f306001600160a01b037f00000000000000000000000000000000000000000000000000000000000000001614801561063957507f000000000000000000000000000000000000000000000000000000000000000046145b1561066357507f000000000000000000000000000000000000000000000000000000000000000090565b6105af604080517f8b73c3c69bb8fe3d512ecc4cf759cc79239f7b179b0ffacaa9a75d522b39400f60208201527f0000000000000000000000000000000000000000000000000000000000000000918101919091527f000000000000000000000000000000000000000000000000000000000000000060608201524660808201523060a08201525f9060c00160405160208183030381529060405280519060200120905090565b5f805f8351604103610741576020840151604085015160608601515f1a61073388828585610925565b95509550955050505061074c565b505081515f91506002905b9250925092565b5f82600381111561076657610766610bf7565b0361076f575050565b600182600381111561078357610783610bf7565b036107a15760405163f645eedf60e01b815260040160405180910390fd5b60028260038111156107b5576107b5610bf7565b036107d65760405163fce698f760e01b81526004810182905260240161019d565b60038260038111156107ea576107ea610bf7565b0361080b576040516335e2f38360e21b81526004810182905260240161019d565b5050565b6040516323b872dd60e01b5f8181526001600160a01b038781166004528616602452604485905291602083606481808c5af1925060015f5114831661086b57838315161561085f573d5f823e3d81fd5b5f883b113d1516831692505b604052505f60605295945050505050565b606060ff83146108965761088f836109ed565b905061049d565b8180546108a290610c0b565b80601f01602080910402602001604051908101604052809291908181526020018280546108ce90610c0b565b80156109195780601f106108f057610100808354040283529160200191610919565b820191905f5260205f20905b8154815290600101906020018083116108fc57829003601f168201915b5050505050905061049d565b5f80807f7fffffffffffffffffffffffffffffff5d576e7357a4501ddfe92f46681b20a084111561095e57505f915060039050826109e3565b604080515f808252602082018084528a905260ff891692820192909252606081018790526080810186905260019060a0016020604051602081039080840390855afa1580156109af573d5f803e3d5ffd5b5050604051601f1901519150506001600160a01b0381166109da57505f9250600191508290506109e3565b92505f91508190505b9450945094915050565b60605f6109f983610a2a565b6040805160208082528183019092529192505f91906020820181803683375050509182525060208101929092525090565b5f60ff8216601f81111561049d57604051632cd44ac360e21b815260040160405180910390fd5b80356001600160a01b0381168114610a67575f80fd5b919050565b5f805f805f8060a08789031215610a81575f80fd5b610a8a87610a51565b955060208701359450604087013567ffffffffffffffff80821115610aad575f80fd5b818901915089601f830112610ac0575f80fd5b813581811115610ace575f80fd5b8a6020828501011115610adf575f80fd5b979a9699505060200196606081013595608090910135945092505050565b5f60208284031215610b0d575f80fd5b610b1682610a51565b9392505050565b5f81518084525f5b81811015610b4157602081850181015186830182015201610b25565b505f602082860101526020601f19601f83011685010191505092915050565b60ff60f81b881681525f602060e06020840152610b8060e084018a610b1d565b8381036040850152610b92818a610b1d565b606085018990526001600160a01b038816608086015260a0850187905284810360c0860152855180825260208088019350909101905f5b81811015610be557835183529284019291840191600101610bc9565b50909c9b505050505050505050505050565b634e487b7160e01b5f52602160045260245ffd5b600181811c90821680610c1f57607f821691505b602082108103610c3d57634e487b7160e01b5f52602260045260245ffd5b5091905056fea264697066735822122040ae861d4ce97f6144823f01c210ba64a530bc8728d317b8f984fad6c7e75b4764736f6c63430008180033",
  "linkReferences": {},
  "deployedLinkReferences": {}
}