{
  "_format": "hh-sol-artifact-1",
  "contractName": "ImmutableState",
  "sourceName": "@uniswap/v4-periphery/src/base/ImmutableState.sol",
  "abi": [
    {
      "inputs": [
        {
          "internalType": "contract IPoolManager",
          "name": "_poolManager",
          "type": "address"
        }
      ],
      "stateMutability": "nonpayable",
      "type": "constructor"
    },
    {
      "inputs": [],
      "name": "NotPoolManager",
      "type": "error"
    },
    {
      "inputs": [],
      "name": "poolManager",
      "outputs": [
        {
          "internalType": "contract IPoolManager",
          "name": "",
          "type": "address"
        }
      ],
      "stateMutability": "view",
      "type": "function"
    }
  ],
  "bytecode": "0x60a0604052348015600e575f5ffd5b5060405161011d38038061011d833981016040819052602b91603b565b6001600160a01b03166080526066565b5f60208284031215604a575f5ffd5b81516001600160a01b0381168114605f575f5ffd5b9392505050565b60805160a261007b5f395f602e015260a25ff3fe6080604052348015600e575f5ffd5b50600436106026575f3560e01c8063dc4c90d314602a575b5f5ffd5b60507f000000000000000000000000000000000000000000000000000000000000000081565b6040516001600160a01b03909116815260200160405180910390f3fea264697066735822122078de17aadc8d4d6c56add3250f11802fee2a9c6b99e8f597772ecdbbf154535d64736f6c634300081b0033",
  "linkReferences": {},
  "deployedLinkReferences": {}
}